{
	"data": {
		"bytecode": {
			"linkReferences": {},
			"object": "60b9610025600b82828239805160001a60731461001857fe5b30600052607381538281f3fe730000000000000000000000000000000000000000301460806040526004361060335760003560e01c80639f510982146038575b600080fd5b606160048036036020811015604c57600080fd5b81019080803590602001909291905050506077565b6040518082815260200191505060405180910390f35b6000600a8201905091905056fea265627a7a723158207c76b1ae91e985ad7effd0f56bc88e2022519a18252590a4ed1e6602231c322764736f6c63430005110032",
			"opcodes": "PUSH1 0xB9 PUSH2 0x25 PUSH1 0xB DUP3 DUP3 DUP3 CODECOPY DUP1 MLOAD PUSH1 0x0 BYTE PUSH1 0x73 EQ PUSH2 0x18 JUMPI INVALID JUMPDEST ADDRESS PUSH1 0x0 MSTORE PUSH1 0x73 DUP2 MSTORE8 DUP3 DUP2 RETURN INVALID PUSH20 0x0 ADDRESS EQ PUSH1 0x80 PUSH1 0x40 MSTORE PUSH1 0x4 CALLDATASIZE LT PUSH1 0x33 JUMPI PUSH1 0x0 CALLDATALOAD PUSH1 0xE0 SHR DUP1 PUSH4 0x9F510982 EQ PUSH1 0x38 JUMPI JUMPDEST PUSH1 0x0 DUP1 REVERT JUMPDEST PUSH1 0x61 PUSH1 0x4 DUP1 CALLDATASIZE SUB PUSH1 0x20 DUP2 LT ISZERO PUSH1 0x4C JUMPI PUSH1 0x0 DUP1 REVERT JUMPDEST DUP2 ADD SWAP1 DUP1 DUP1 CALLDATALOAD SWAP1 PUSH1 0x20 ADD SWAP1 SWAP3 SWAP2 SWAP1 POP POP POP PUSH1 0x77 JUMP JUMPDEST PUSH1 0x40 MLOAD DUP1 DUP3 DUP2 MSTORE PUSH1 0x20 ADD SWAP2 POP POP PUSH1 0x40 MLOAD DUP1 SWAP2 SUB SWAP1 RETURN JUMPDEST PUSH1 0x0 PUSH1 0xA DUP3 ADD SWAP1 POP SWAP2 SWAP1 POP JUMP INVALID LOG2 PUSH6 0x627A7A723158 KECCAK256 PUSH29 0x76B1AE91E985AD7EFFD0F56BC88E2022519A18252590A4ED1E6602231C ORIGIN 0x27 PUSH5 0x736F6C6343 STOP SDIV GT STOP ORIGIN "
		},
		"gasEstimates": {
			"creation": {
				"codeDepositCost": "37000",
				"executionCost": "115",
				"totalCost": "37115"
			},
			"external": {
				"add10(uint256)": "268"
			}
		},
		"methodIdentifiers": {
			"add10(uint256)": "9f510982"
		}
	},
	"abi": [
		{
			"constant": true,
			"inputs": [
				{
					"internalType": "uint256",
					"name": "a",
					"type": "uint256"
				}
			],
			"name": "add10",
			"outputs": [
				{
					"internalType": "uint256",
					"name": "",
					"type": "uint256"
				}
			],
			"payable": false,
			"stateMutability": "view",
			"type": "function"
		}
	]
}