{
	"data": {
		"bytecode": {
			"linkReferences": {},
			"object": "608060405234801561001057600080fd5b506102fb806100206000396000f3fe608060405234801561001057600080fd5b50600436106100365760003560e01c806369a1a5961461003b5780639724283f1461005d575b600080fd5b61004361008d565b6040516100549594939291906101ae565b60405180910390f35b61007760048036038101906100729190610104565b6100e4565b6040516100849190610193565b60405180910390f35b6060600080600080434144456040518060400160405280600981526020017f6865726573206f7574000000000000000000000000000000000000000000000081525093929190945094509450945094509091929394565b600081409050919050565b6000813590506100fe816102ae565b92915050565b60006020828403121561011657600080fd5b6000610124848285016100ef565b91505092915050565b61013681610224565b82525050565b61014581610236565b82525050565b600061015682610208565b6101608185610213565b935061017081856020860161026a565b6101798161029d565b840191505092915050565b61018d81610260565b82525050565b60006020820190506101a8600083018461013c565b92915050565b600060a08201905081810360008301526101c8818861014b565b90506101d76020830187610184565b6101e4604083018661012d565b6101f16060830185610184565b6101fe6080830184610184565b9695505050505050565b600081519050919050565b600082825260208201905092915050565b600061022f82610240565b9050919050565b6000819050919050565b600073ffffffffffffffffffffffffffffffffffffffff82169050919050565b6000819050919050565b60005b8381101561028857808201518184015260208101905061026d565b83811115610297576000848401525b50505050565b6000601f19601f8301169050919050565b6102b781610260565b81146102c257600080fd5b5056fea2646970667358221220a4ae2b632d7af2fbe126ed030bcbd4bc93bf5a5e420f13ea516e9abf18dcacef64736f6c63430008040033",
			"opcodes": "PUSH1 0x80 PUSH1 0x40 MSTORE CALLVALUE DUP1 ISZERO PUSH2 0x10 JUMPI PUSH1 0x0 DUP1 REVERT JUMPDEST POP PUSH2 0x2FB DUP1 PUSH2 0x20 PUSH1 0x0 CODECOPY PUSH1 0x0 RETURN INVALID PUSH1 0x80 PUSH1 0x40 MSTORE CALLVALUE DUP1 ISZERO PUSH2 0x10 JUMPI PUSH1 0x0 DUP1 REVERT JUMPDEST POP PUSH1 0x4 CALLDATASIZE LT PUSH2 0x36 JUMPI PUSH1 0x0 CALLDATALOAD PUSH1 0xE0 SHR DUP1 PUSH4 0x69A1A596 EQ PUSH2 0x3B JUMPI DUP1 PUSH4 0x9724283F EQ PUSH2 0x5D JUMPI JUMPDEST PUSH1 0x0 DUP1 REVERT JUMPDEST PUSH2 0x43 PUSH2 0x8D JUMP JUMPDEST PUSH1 0x40 MLOAD PUSH2 0x54 SWAP6 SWAP5 SWAP4 SWAP3 SWAP2 SWAP1 PUSH2 0x1AE JUMP JUMPDEST PUSH1 0x40 MLOAD DUP1 SWAP2 SUB SWAP1 RETURN JUMPDEST PUSH2 0x77 PUSH1 0x4 DUP1 CALLDATASIZE SUB DUP2 ADD SWAP1 PUSH2 0x72 SWAP2 SWAP1 PUSH2 0x104 JUMP JUMPDEST PUSH2 0xE4 JUMP JUMPDEST PUSH1 0x40 MLOAD PUSH2 0x84 SWAP2 SWAP1 PUSH2 0x193 JUMP JUMPDEST PUSH1 0x40 MLOAD DUP1 SWAP2 SUB SWAP1 RETURN JUMPDEST PUSH1 0x60 PUSH1 0x0 DUP1 PUSH1 0x0 DUP1 NUMBER COINBASE DIFFICULTY GASLIMIT PUSH1 0x40 MLOAD DUP1 PUSH1 0x40 ADD PUSH1 0x40 MSTORE DUP1 PUSH1 0x9 DUP2 MSTORE PUSH1 0x20 ADD PUSH32 0x6865726573206F75740000000000000000000000000000000000000000000000 DUP2 MSTORE POP SWAP4 SWAP3 SWAP2 SWAP1 SWAP5 POP SWAP5 POP SWAP5 POP SWAP5 POP SWAP5 POP SWAP1 SWAP2 SWAP3 SWAP4 SWAP5 JUMP JUMPDEST PUSH1 0x0 DUP2 BLOCKHASH SWAP1 POP SWAP2 SWAP1 POP JUMP JUMPDEST PUSH1 0x0 DUP2 CALLDATALOAD SWAP1 POP PUSH2 0xFE DUP2 PUSH2 0x2AE JUMP JUMPDEST SWAP3 SWAP2 POP POP JUMP JUMPDEST PUSH1 0x0 PUSH1 0x20 DUP3 DUP5 SUB SLT ISZERO PUSH2 0x116 JUMPI PUSH1 0x0 DUP1 REVERT JUMPDEST PUSH1 0x0 PUSH2 0x124 DUP5 DUP3 DUP6 ADD PUSH2 0xEF JUMP JUMPDEST SWAP2 POP POP SWAP3 SWAP2 POP POP JUMP JUMPDEST PUSH2 0x136 DUP2 PUSH2 0x224 JUMP JUMPDEST DUP3 MSTORE POP POP JUMP JUMPDEST PUSH2 0x145 DUP2 PUSH2 0x236 JUMP JUMPDEST DUP3 MSTORE POP POP JUMP JUMPDEST PUSH1 0x0 PUSH2 0x156 DUP3 PUSH2 0x208 JUMP JUMPDEST PUSH2 0x160 DUP2 DUP6 PUSH2 0x213 JUMP JUMPDEST SWAP4 POP PUSH2 0x170 DUP2 DUP6 PUSH1 0x20 DUP7 ADD PUSH2 0x26A JUMP JUMPDEST PUSH2 0x179 DUP2 PUSH2 0x29D JUMP JUMPDEST DUP5 ADD SWAP2 POP POP SWAP3 SWAP2 POP POP JUMP JUMPDEST PUSH2 0x18D DUP2 PUSH2 0x260 JUMP JUMPDEST DUP3 MSTORE POP POP JUMP JUMPDEST PUSH1 0x0 PUSH1 0x20 DUP3 ADD SWAP1 POP PUSH2 0x1A8 PUSH1 0x0 DUP4 ADD DUP5 PUSH2 0x13C JUMP JUMPDEST SWAP3 SWAP2 POP POP JUMP JUMPDEST PUSH1 0x0 PUSH1 0xA0 DUP3 ADD SWAP1 POP DUP2 DUP2 SUB PUSH1 0x0 DUP4 ADD MSTORE PUSH2 0x1C8 DUP2 DUP9 PUSH2 0x14B JUMP JUMPDEST SWAP1 POP PUSH2 0x1D7 PUSH1 0x20 DUP4 ADD DUP8 PUSH2 0x184 JUMP JUMPDEST PUSH2 0x1E4 PUSH1 0x40 DUP4 ADD DUP7 PUSH2 0x12D JUMP JUMPDEST PUSH2 0x1F1 PUSH1 0x60 DUP4 ADD DUP6 PUSH2 0x184 JUMP JUMPDEST PUSH2 0x1FE PUSH1 0x80 DUP4 ADD DUP5 PUSH2 0x184 JUMP JUMPDEST SWAP7 SWAP6 POP POP POP POP POP POP JUMP JUMPDEST PUSH1 0x0 DUP2 MLOAD SWAP1 POP SWAP2 SWAP1 POP JUMP JUMPDEST PUSH1 0x0 DUP3 DUP3 MSTORE PUSH1 0x20 DUP3 ADD SWAP1 POP SWAP3 SWAP2 POP POP JUMP JUMPDEST PUSH1 0x0 PUSH2 0x22F DUP3 PUSH2 0x240 JUMP JUMPDEST SWAP1 POP SWAP2 SWAP1 POP JUMP JUMPDEST PUSH1 0x0 DUP2 SWAP1 POP SWAP2 SWAP1 POP JUMP JUMPDEST PUSH1 0x0 PUSH20 0xFFFFFFFFFFFFFFFFFFFFFFFFFFFFFFFFFFFFFFFF DUP3 AND SWAP1 POP SWAP2 SWAP1 POP JUMP JUMPDEST PUSH1 0x0 DUP2 SWAP1 POP SWAP2 SWAP1 POP JUMP JUMPDEST PUSH1 0x0 JUMPDEST DUP4 DUP2 LT ISZERO PUSH2 0x288 JUMPI DUP1 DUP3 ADD MLOAD DUP2 DUP5 ADD MSTORE PUSH1 0x20 DUP2 ADD SWAP1 POP PUSH2 0x26D JUMP JUMPDEST DUP4 DUP2 GT ISZERO PUSH2 0x297 JUMPI PUSH1 0x0 DUP5 DUP5 ADD MSTORE JUMPDEST POP POP POP POP JUMP JUMPDEST PUSH1 0x0 PUSH1 0x1F NOT PUSH1 0x1F DUP4 ADD AND SWAP1 POP SWAP2 SWAP1 POP JUMP JUMPDEST PUSH2 0x2B7 DUP2 PUSH2 0x260 JUMP JUMPDEST DUP2 EQ PUSH2 0x2C2 JUMPI PUSH1 0x0 DUP1 REVERT JUMPDEST POP JUMP INVALID LOG2 PUSH5 0x6970667358 0x22 SLT KECCAK256 LOG4 0xAE 0x2B PUSH4 0x2D7AF2FB 0xE1 0x26 0xED SUB SIGNEXTEND 0xCB 0xD4 0xBC SWAP4 0xBF GAS 0x5E TIMESTAMP 0xF SGT 0xEA MLOAD PUSH15 0x9ABF18DCACEF64736F6C6343000804 STOP CALLER "
		},
		"gasEstimates": {
			"creation": {
				"codeDepositCost": "152600",
				"executionCost": "196",
				"totalCost": "152796"
			},
			"external": {
				"get_block()": "infinite",
				"get_block_hash(uint256)": "622"
			}
		},
		"methodIdentifiers": {
			"get_block()": "69a1a596",
			"get_block_hash(uint256)": "9724283f"
		}
	},
	"abi": [
		{
			"inputs": [],
			"name": "get_block",
			"outputs": [
				{
					"internalType": "string",
					"name": "",
					"type": "string"
				},
				{
					"internalType": "uint256",
					"name": "",
					"type": "uint256"
				},
				{
					"internalType": "address",
					"name": "",
					"type": "address"
				},
				{
					"internalType": "uint256",
					"name": "",
					"type": "uint256"
				},
				{
					"internalType": "uint256",
					"name": "",
					"type": "uint256"
				}
			],
			"stateMutability": "nonpayable",
			"type": "function"
		},
		{
			"inputs": [
				{
					"internalType": "uint256",
					"name": "block_number",
					"type": "uint256"
				}
			],
			"name": "get_block_hash",
			"outputs": [
				{
					"internalType": "bytes32",
					"name": "hash",
					"type": "bytes32"
				}
			],
			"stateMutability": "nonpayable",
			"type": "function"
		}
	]
}