{
	"data": {
		"bytecode": {
			"linkReferences": {},
			"object": "6080604052600a6000556040518060400160405280600b81526020017f48656c6c6f20576f726c6400000000000000000000000000000000000000000081525060019080519060200190610054929190610067565b5034801561006157600080fd5b50610112565b828054600181600116156101000203166002900490600052602060002090601f01602090048101928261009d57600085556100e4565b82601f106100b657805160ff19168380011785556100e4565b828001600101855582156100e4579182015b828111156100e35782518255916020019190600101906100c8565b5b5090506100f191906100f5565b5090565b5b8082111561010e5760008160009055506001016100f6565b5090565b610187806101216000396000f3fe608060405234801561001057600080fd5b506004361061002b5760003560e01c8063cfae321714610030575b600080fd5b6100386100b3565b6040518080602001828103825283818151815260200191508051906020019080838360005b8381101561007857808201518184015260208101905061005d565b50505050905090810190601f1680156100a55780820380516001836020036101000a031916815260200191505b509250505060405180910390f35b60018054600181600116156101000203166002900480601f0160208091040260200160405190810160405280929190818152602001828054600181600116156101000203166002900480156101495780601f1061011e57610100808354040283529160200191610149565b820191906000526020600020905b81548152906001019060200180831161012c57829003601f168201915b50505050508156fea2646970667358221220ef1e6892982c28a65e7ce900a1ccff7d1703a77775fa8104a4bb4d9d9c817a0664736f6c63430007060033",
			"opcodes": "PUSH1 0x80 PUSH1 0x40 MSTORE PUSH1 0xA PUSH1 0x0 SSTORE PUSH1 0x40 MLOAD DUP1 PUSH1 0x40 ADD PUSH1 0x40 MSTORE DUP1 PUSH1 0xB DUP2 MSTORE PUSH1 0x20 ADD PUSH32 0x48656C6C6F20576F726C64000000000000000000000000000000000000000000 DUP2 MSTORE POP PUSH1 0x1 SWAP1 DUP1 MLOAD SWAP1 PUSH1 0x20 ADD SWAP1 PUSH2 0x54 SWAP3 SWAP2 SWAP1 PUSH2 0x67 JUMP JUMPDEST POP CALLVALUE DUP1 ISZERO PUSH2 0x61 JUMPI PUSH1 0x0 DUP1 REVERT JUMPDEST POP PUSH2 0x112 JUMP JUMPDEST DUP3 DUP1 SLOAD PUSH1 0x1 DUP2 PUSH1 0x1 AND ISZERO PUSH2 0x100 MUL SUB AND PUSH1 0x2 SWAP1 DIV SWAP1 PUSH1 0x0 MSTORE PUSH1 0x20 PUSH1 0x0 KECCAK256 SWAP1 PUSH1 0x1F ADD PUSH1 0x20 SWAP1 DIV DUP2 ADD SWAP3 DUP3 PUSH2 0x9D JUMPI PUSH1 0x0 DUP6 SSTORE PUSH2 0xE4 JUMP JUMPDEST DUP3 PUSH1 0x1F LT PUSH2 0xB6 JUMPI DUP1 MLOAD PUSH1 0xFF NOT AND DUP4 DUP1 ADD OR DUP6 SSTORE PUSH2 0xE4 JUMP JUMPDEST DUP3 DUP1 ADD PUSH1 0x1 ADD DUP6 SSTORE DUP3 ISZERO PUSH2 0xE4 JUMPI SWAP2 DUP3 ADD JUMPDEST DUP3 DUP2 GT ISZERO PUSH2 0xE3 JUMPI DUP3 MLOAD DUP3 SSTORE SWAP2 PUSH1 0x20 ADD SWAP2 SWAP1 PUSH1 0x1 ADD SWAP1 PUSH2 0xC8 JUMP JUMPDEST JUMPDEST POP SWAP1 POP PUSH2 0xF1 SWAP2 SWAP1 PUSH2 0xF5 JUMP JUMPDEST POP SWAP1 JUMP JUMPDEST JUMPDEST DUP1 DUP3 GT ISZERO PUSH2 0x10E JUMPI PUSH1 0x0 DUP2 PUSH1 0x0 SWAP1 SSTORE POP PUSH1 0x1 ADD PUSH2 0xF6 JUMP JUMPDEST POP SWAP1 JUMP JUMPDEST PUSH2 0x187 DUP1 PUSH2 0x121 PUSH1 0x0 CODECOPY PUSH1 0x0 RETURN INVALID PUSH1 0x80 PUSH1 0x40 MSTORE CALLVALUE DUP1 ISZERO PUSH2 0x10 JUMPI PUSH1 0x0 DUP1 REVERT JUMPDEST POP PUSH1 0x4 CALLDATASIZE LT PUSH2 0x2B JUMPI PUSH1 0x0 CALLDATALOAD PUSH1 0xE0 SHR DUP1 PUSH4 0xCFAE3217 EQ PUSH2 0x30 JUMPI JUMPDEST PUSH1 0x0 DUP1 REVERT JUMPDEST PUSH2 0x38 PUSH2 0xB3 JUMP JUMPDEST PUSH1 0x40 MLOAD DUP1 DUP1 PUSH1 0x20 ADD DUP3 DUP2 SUB DUP3 MSTORE DUP4 DUP2 DUP2 MLOAD DUP2 MSTORE PUSH1 0x20 ADD SWAP2 POP DUP1 MLOAD SWAP1 PUSH1 0x20 ADD SWAP1 DUP1 DUP4 DUP4 PUSH1 0x0 JUMPDEST DUP4 DUP2 LT ISZERO PUSH2 0x78 JUMPI DUP1 DUP3 ADD MLOAD DUP2 DUP5 ADD MSTORE PUSH1 0x20 DUP2 ADD SWAP1 POP PUSH2 0x5D JUMP JUMPDEST POP POP POP POP SWAP1 POP SWAP1 DUP2 ADD SWAP1 PUSH1 0x1F AND DUP1 ISZERO PUSH2 0xA5 JUMPI DUP1 DUP3 SUB DUP1 MLOAD PUSH1 0x1 DUP4 PUSH1 0x20 SUB PUSH2 0x100 EXP SUB NOT AND DUP2 MSTORE PUSH1 0x20 ADD SWAP2 POP JUMPDEST POP SWAP3 POP POP POP PUSH1 0x40 MLOAD DUP1 SWAP2 SUB SWAP1 RETURN JUMPDEST PUSH1 0x1 DUP1 SLOAD PUSH1 0x1 DUP2 PUSH1 0x1 AND ISZERO PUSH2 0x100 MUL SUB AND PUSH1 0x2 SWAP1 DIV DUP1 PUSH1 0x1F ADD PUSH1 0x20 DUP1 SWAP2 DIV MUL PUSH1 0x20 ADD PUSH1 0x40 MLOAD SWAP1 DUP2 ADD PUSH1 0x40 MSTORE DUP1 SWAP3 SWAP2 SWAP1 DUP2 DUP2 MSTORE PUSH1 0x20 ADD DUP3 DUP1 SLOAD PUSH1 0x1 DUP2 PUSH1 0x1 AND ISZERO PUSH2 0x100 MUL SUB AND PUSH1 0x2 SWAP1 DIV DUP1 ISZERO PUSH2 0x149 JUMPI DUP1 PUSH1 0x1F LT PUSH2 0x11E JUMPI PUSH2 0x100 DUP1 DUP4 SLOAD DIV MUL DUP4 MSTORE SWAP2 PUSH1 0x20 ADD SWAP2 PUSH2 0x149 JUMP JUMPDEST DUP3 ADD SWAP2 SWAP1 PUSH1 0x0 MSTORE PUSH1 0x20 PUSH1 0x0 KECCAK256 SWAP1 JUMPDEST DUP2 SLOAD DUP2 MSTORE SWAP1 PUSH1 0x1 ADD SWAP1 PUSH1 0x20 ADD DUP1 DUP4 GT PUSH2 0x12C JUMPI DUP3 SWAP1 SUB PUSH1 0x1F AND DUP3 ADD SWAP2 JUMPDEST POP POP POP POP POP DUP2 JUMP INVALID LOG2 PUSH5 0x6970667358 0x22 SLT KECCAK256 0xEF 0x1E PUSH9 0x92982C28A65E7CE900 LOG1 0xCC SELFDESTRUCT PUSH30 0x1703A77775FA8104A4BB4D9D9C817A0664736F6C63430007060033000000 "
		},
		"gasEstimates": {
			"creation": {
				"codeDepositCost": "78200",
				"executionCost": "infinite",
				"totalCost": "infinite"
			},
			"external": {
				"greet()": "infinite"
			}
		},
		"methodIdentifiers": {
			"greet()": "cfae3217"
		}
	},
	"abi": [
		{
			"inputs": [],
			"name": "greet",
			"outputs": [
				{
					"internalType": "string",
					"name": "",
					"type": "string"
				}
			],
			"stateMutability": "view",
			"type": "function"
		}
	]
}