{
	"data": {
		"bytecode": {
			"linkReferences": {},
			"object": "608060405234801561001057600080fd5b5060d48061001f6000396000f3fe6080604052348015600f57600080fd5b506004361060285760003560e01c8063995e922814602d575b600080fd5b606060048036036040811015604157600080fd5b810190808035906020019092919080359060200190929190505050607a565b604051808215151515815260200191505060405180910390f35b60008060018385901c1690506001811460935760006096565b60015b9150509291505056fea265627a7a72315820b61437a3bac4d56cd4c39ce57fb1d584798cd9e1e2e44ff7de833abc81ec8f6164736f6c63430005110032",
			"opcodes": "PUSH1 0x80 PUSH1 0x40 MSTORE CALLVALUE DUP1 ISZERO PUSH2 0x10 JUMPI PUSH1 0x0 DUP1 REVERT JUMPDEST POP PUSH1 0xD4 DUP1 PUSH2 0x1F PUSH1 0x0 CODECOPY PUSH1 0x0 RETURN INVALID PUSH1 0x80 PUSH1 0x40 MSTORE CALLVALUE DUP1 ISZERO PUSH1 0xF JUMPI PUSH1 0x0 DUP1 REVERT JUMPDEST POP PUSH1 0x4 CALLDATASIZE LT PUSH1 0x28 JUMPI PUSH1 0x0 CALLDATALOAD PUSH1 0xE0 SHR DUP1 PUSH4 0x995E9228 EQ PUSH1 0x2D JUMPI JUMPDEST PUSH1 0x0 DUP1 REVERT JUMPDEST PUSH1 0x60 PUSH1 0x4 DUP1 CALLDATASIZE SUB PUSH1 0x40 DUP2 LT ISZERO PUSH1 0x41 JUMPI PUSH1 0x0 DUP1 REVERT JUMPDEST DUP2 ADD SWAP1 DUP1 DUP1 CALLDATALOAD SWAP1 PUSH1 0x20 ADD SWAP1 SWAP3 SWAP2 SWAP1 DUP1 CALLDATALOAD SWAP1 PUSH1 0x20 ADD SWAP1 SWAP3 SWAP2 SWAP1 POP POP POP PUSH1 0x7A JUMP JUMPDEST PUSH1 0x40 MLOAD DUP1 DUP3 ISZERO ISZERO ISZERO ISZERO DUP2 MSTORE PUSH1 0x20 ADD SWAP2 POP POP PUSH1 0x40 MLOAD DUP1 SWAP2 SUB SWAP1 RETURN JUMPDEST PUSH1 0x0 DUP1 PUSH1 0x1 DUP4 DUP6 SWAP1 SHR AND SWAP1 POP PUSH1 0x1 DUP2 EQ PUSH1 0x93 JUMPI PUSH1 0x0 PUSH1 0x96 JUMP JUMPDEST PUSH1 0x1 JUMPDEST SWAP2 POP POP SWAP3 SWAP2 POP POP JUMP INVALID LOG2 PUSH6 0x627A7A723158 KECCAK256 0xB6 EQ CALLDATACOPY LOG3 0xBA 0xC4 0xD5 PUSH13 0xD4C39CE57FB1D584798CD9E1E2 0xE4 0x4F 0xF7 0xDE DUP4 GASPRICE 0xBC DUP2 0xEC DUP16 PUSH2 0x6473 PUSH16 0x6C634300051100320000000000000000 "
		},
		"gasEstimates": {
			"creation": {
				"codeDepositCost": "42400",
				"executionCost": "93",
				"totalCost": "42493"
			},
			"external": {
				"getBoolean(uint256,uint256)": "381"
			}
		},
		"methodIdentifiers": {
			"getBoolean(uint256,uint256)": "995e9228"
		}
	},
	"abi": [
		{
			"constant": true,
			"inputs": [
				{
					"internalType": "uint256",
					"name": "_packedBools",
					"type": "uint256"
				},
				{
					"internalType": "uint256",
					"name": "_boolNumber",
					"type": "uint256"
				}
			],
			"name": "getBoolean",
			"outputs": [
				{
					"internalType": "bool",
					"name": "",
					"type": "bool"
				}
			],
			"payable": false,
			"stateMutability": "view",
			"type": "function"
		}
	]
}