{
	"data": {
		"bytecode": {
			"linkReferences": {},
			"object": "608060405234801561001057600080fd5b50613f63806100206000396000f3fe6080604052600436106101665760003560e01c80637c9efef8116100d1578063bf53253b1161008a578063d9caa3d211610064578063d9caa3d2146105a2578063e59d3f5c146105cb578063f5b541a6146105f4578063fddadbf51461061f57610166565b8063bf53253b14610525578063c4d66de814610550578063d547741f1461057957610166565b80637c9efef8146103da5780638909aa3f1461040357806391d1485414610440578063940992a31461047d578063a217fddf146104bb578063b39c4897146104e657610166565b80633820c4bb116101235780633820c4bb146102b3578063530e931c146102f05780635dc4bb171461032d5780636e5b51141461034957806371c87ab414610372578063728cc203146103b157610166565b806301ffc9a71461016b57806305e2aaf4146101a857806320f053e2146101e5578063248a9ca3146102245780632f2ff15d1461026157806336568abe1461028a575b600080fd5b34801561017757600080fd5b50610192600480360381019061018d9190612eea565b610648565b60405161019f919061346e565b60405180910390f35b3480156101b457600080fd5b506101cf60048036038101906101ca9190612c64565b6106c2565b6040516101dc919061346e565b60405180910390f35b3480156101f157600080fd5b5061020c60048036038101906102079190612a59565b610706565b60405161021b939291906137ca565b60405180910390f35b34801561023057600080fd5b5061024b60048036038101906102469190612a59565b610774565b6040516102589190613489565b60405180910390f35b34801561026d57600080fd5b5061028860048036038101906102839190612a82565b610794565b005b34801561029657600080fd5b506102b160048036038101906102ac9190612a82565b6107bd565b005b3480156102bf57600080fd5b506102da60048036038101906102d59190612cb3565b610840565b6040516102e7919061346e565b60405180910390f35b3480156102fc57600080fd5b5061031760048036038101906103129190612a82565b610958565b604051610324919061370a565b60405180910390f35b61034760048036038101906103429190612b6e565b61097f565b005b34801561035557600080fd5b50610370600480360381019061036b9190612bbd565b610aa0565b005b34801561037e57600080fd5b5061039960048036038101906103949190612a59565b610c28565b6040516103a8939291906137ca565b60405180910390f35b3480156103bd57600080fd5b506103d860048036038101906103d39190612eae565b610c96565b005b3480156103e657600080fd5b5061040160048036038101906103fc9190612d76565b610ea0565b005b34801561040f57600080fd5b5061042a60048036038101906104259190612a59565b6110f8565b604051610437919061370a565b60405180910390f35b34801561044c57600080fd5b5061046760048036038101906104629190612a82565b611110565b604051610474919061346e565b60405180910390f35b34801561048957600080fd5b506104a4600480360381019061049f9190612a59565b61117b565b6040516104b29291906136e1565b60405180910390f35b3480156104c757600080fd5b506104d0611257565b6040516104dd9190613489565b60405180910390f35b3480156104f257600080fd5b5061050d60048036038101906105089190612a59565b61125e565b60405161051c939291906137ca565b60405180910390f35b34801561053157600080fd5b5061053a6112cc565b60405161054791906133f3565b60405180910390f35b34801561055c57600080fd5b5061057760048036038101906105729190612a07565b6112d1565b005b34801561058557600080fd5b506105a0600480360381019061059b9190612a82565b6113e2565b005b3480156105ae57600080fd5b506105c960048036038101906105c49190612a59565b61140b565b005b3480156105d757600080fd5b506105f260048036038101906105ed9190612de2565b6115be565b005b34801561060057600080fd5b506106096117aa565b6040516106169190613489565b60405180910390f35b34801561062b57600080fd5b5061064660048036038101906106419190612abe565b6117ce565b005b60007f7965db0b000000000000000000000000000000000000000000000000000000007bffffffffffffffffffffffffffffffffffffffffffffffffffffffff1916827bffffffffffffffffffffffffffffffffffffffffffffffffffffffff191614806106bb57506106ba82611a39565b5b9050919050565b60006106fd600360006106d58787611aa3565b815260200190815260200160002060000160009054906101000a900460ff1660ff1683611ad6565b90509392505050565b60046020528060005260406000206000915090508060000160009054906101000a900460ff16908060000160019054906101000a900476ffffffffffffffffffffffffffffffffffffffffffffff16908060000160189054906101000a900467ffffffffffffffff16905083565b600060016000838152602001908152602001600020600101549050919050565b61079d82610774565b6107ae816107a9611aec565b611af4565b6107b88383611b91565b505050565b6107c5611aec565b73ffffffffffffffffffffffffffffffffffffffff168173ffffffffffffffffffffffffffffffffffffffff1614610832576040517f08c379a0000000000000000000000000000000000000000000000000000000008152600401610829906136c1565b60405180910390fd5b61083c8282611c71565b5050565b6000610851898988888888886117ce565b6000600360006108618c8c611aa3565b81526020019081526020016000206040518060600160405290816000820160009054906101000a900460ff1660ff1660ff1681526020016000820160019054906101000a900476ffffffffffffffffffffffffffffffffffffffffffffff1676ffffffffffffffffffffffffffffffffffffffffffffff1676ffffffffffffffffffffffffffffffffffffffffffffff1681526020016000820160189054906101000a900467ffffffffffffffff1667ffffffffffffffff1667ffffffffffffffff168152505090506109388a8260400151611d53565b610949816000015160ff1689611ad6565b91505098975050505050505050565b6000600660006109688585611dee565b815260200190815260200160002054905092915050565b6000811161098c57600080fd5b60006109988484611dee565b90506000600660008381526020019081526020016000205490506109c78284836109c29190613878565b611e21565b3373ffffffffffffffffffffffffffffffffffffffff16857f50941445d212167ff98a2ff018c9c9a3181a60e1e39ce40326f17130ca56d1438686604051610a10929190613445565b60405180910390a3600073ffffffffffffffffffffffffffffffffffffffff168473ffffffffffffffffffffffffffffffffffffffff161415610a5e57823414610a5957600080fd5b610a99565b60003414610a6b57600080fd5b610a983330858773ffffffffffffffffffffffffffffffffffffffff16611e3d909392919063ffffffff16565b5b5050505050565b6000610aac8888611dee565b9050600060066000838152602001908152602001600020549050610b28896040518060400160405280600881526020017f7265706f727465720000000000000000000000000000000000000000000000008152508888604051602001610b1291906133f3565b6040516020818303038152906040528888611ec6565b610b3d828883610b389190613966565b611e21565b8473ffffffffffffffffffffffffffffffffffffffff16897f6c3a45613039e0a1117bd6ce110ab3c920271709c010983d921a2cd268e2ea478a8a604051610b86929190613445565b60405180910390a3600073ffffffffffffffffffffffffffffffffffffffff168873ffffffffffffffffffffffffffffffffffffffff161415610bf157610bec878673ffffffffffffffffffffffffffffffffffffffff1661202290919063ffffffff16565b610c1d565b610c1c85888a73ffffffffffffffffffffffffffffffffffffffff166121169092919063ffffffff16565b5b505050505050505050565b60036020528060005260406000206000915090508060000160009054906101000a900460ff16908060000160019054906101000a900476ffffffffffffffffffffffffffffffffffffffffffffff16908060000160189054906101000a900467ffffffffffffffff16905083565b7f97667070c54ef182b0f5858b034beac1b6f3089aa2d3188bb1e8929f4fa9b929610cc881610cc3611aec565b611af4565b6000801b60056000610d1086336040518060400160405280600681526020017f7265706f7274000000000000000000000000000000000000000000000000000081525061219c565b8152602001908152602001600020600101541415610d2d57600080fd5b60008260ff161415610d3e57600080fd5b6000610d49426121d2565b905060405180606001604052808460ff168152602001600076ffffffffffffffffffffffffffffffffffffffffffffff1681526020018267ffffffffffffffff1681525060036000610d9b8733611aa3565b815260200190815260200160002060008201518160000160006101000a81548160ff021916908360ff16021790555060208201518160000160016101000a81548176ffffffffffffffffffffffffffffffffffffffffffffff021916908376ffffffffffffffffffffffffffffffffffffffffffffff16021790555060408201518160000160186101000a81548167ffffffffffffffff021916908367ffffffffffffffff160217905550905050833373ffffffffffffffffffffffffffffffffffffffff167fbb119022ca5deb228a464c00b50be8a2d0db6203dda115464af25fcb1d7fc7418584604051610e92929190613801565b60405180910390a350505050565b7f97667070c54ef182b0f5858b034beac1b6f3089aa2d3188bb1e8929f4fa9b929610ed281610ecd611aec565b611af4565b6000801b821415610ee257600080fd5b600060056000610f37883389898080601f016020809104026020016040519081016040528093929190818152602001838380828437600081840152601f19601f8201169050808301925050505050505061219c565b8152602001908152602001600020905060008160000160000160189054906101000a900467ffffffffffffffff1667ffffffffffffffff16148015610f8257506000801b8160010154145b610f8b57600080fd5b6000610f96426121d2565b90508382600101819055506040518060600160405280600060ff168152602001600076ffffffffffffffffffffffffffffffffffffffffffffff1681526020018267ffffffffffffffff168152508260000160008201518160000160006101000a81548160ff021916908360ff16021790555060208201518160000160016101000a81548176ffffffffffffffffffffffffffffffffffffffffffffff021916908376ffffffffffffffffffffffffffffffffffffffffffffff16021790555060408201518160000160186101000a81548167ffffffffffffffff021916908367ffffffffffffffff160217905550905050858560405161109892919061338b565b6040518091039020873373ffffffffffffffffffffffffffffffffffffffff167f369a3629b1e90a807362918af20258c3524b651746847e6525b1798ccb05586f846040516110e791906137af565b60405180910390a450505050505050565b60066020528060005260406000206000915090505481565b60006001600084815260200190815260200160002060000160008373ffffffffffffffffffffffffffffffffffffffff1673ffffffffffffffffffffffffffffffffffffffff16815260200190815260200160002060009054906101000a900460ff16905092915050565b6005602052806000526040600020600091509050806000016040518060600160405290816000820160009054906101000a900460ff1660ff1660ff1681526020016000820160019054906101000a900476ffffffffffffffffffffffffffffffffffffffffffffff1676ffffffffffffffffffffffffffffffffffffffffffffff1676ffffffffffffffffffffffffffffffffffffffffffffff1681526020016000820160189054906101000a900467ffffffffffffffff1667ffffffffffffffff1667ffffffffffffffff1681525050908060010154905082565b6000801b81565b60026020528060005260406000206000915090508060000160009054906101000a900460ff16908060000160019054906101000a900476ffffffffffffffffffffffffffffffffffffffffffffff16908060000160189054906101000a900467ffffffffffffffff16905083565b600081565b600060019054906101000a900460ff16806112f7575060008054906101000a900460ff16155b611336576040517f08c379a000000000000000000000000000000000000000000000000000000000815260040161132d90613601565b60405180910390fd5b60008060019054906101000a900460ff161590508015611386576001600060016101000a81548160ff02191690831515021790555060016000806101000a81548160ff0219169083151502179055505b6113936000801b83612227565b6113bd7f97667070c54ef182b0f5858b034beac1b6f3089aa2d3188bb1e8929f4fa9b92983612227565b80156113de5760008060016101000a81548160ff0219169083151502179055505b5050565b6113eb82610774565b6113fc816113f7611aec565b611af4565b6114068383611c71565b505050565b7f97667070c54ef182b0f5858b034beac1b6f3089aa2d3188bb1e8929f4fa9b92961143d81611438611aec565b611af4565b60006002600084815260200190815260200160002060000160189054906101000a900467ffffffffffffffff1667ffffffffffffffff161461147e57600080fd5b6000611489426121d2565b90506040518060600160405280600060ff168152602001600076ffffffffffffffffffffffffffffffffffffffffffffff1681526020018267ffffffffffffffff168152506002600085815260200190815260200160002060008201518160000160006101000a81548160ff021916908360ff16021790555060208201518160000160016101000a81548176ffffffffffffffffffffffffffffffffffffffffffffff021916908376ffffffffffffffffffffffffffffffffffffffffffffff16021790555060408201518160000160186101000a81548167ffffffffffffffff021916908367ffffffffffffffff160217905550905050827f253c339a28e236388aa154042d109f85249afe8ca219071e93347d732982cac2826040516115b191906137af565b60405180910390a2505050565b7f97667070c54ef182b0f5858b034beac1b6f3089aa2d3188bb1e8929f4fa9b9296115f0816115eb611aec565b611af4565b6000600460006116448c8c8c8080601f016020809104026020016040519081016040528093929190818152602001838380828437600081840152601f19601f82011690508083019250505050505050612235565b8152602001908152602001600020905060008160000160189054906101000a900467ffffffffffffffff1667ffffffffffffffff161461168357600080fd5b6117198a8a8a8080601f016020809104026020016040519081016040528093929190818152602001838380828437600081840152601f19601f820116905080830192505050505050508989898080601f016020809104026020016040519081016040528093929190818152602001838380828437600081840152601f19601f820116905080830192505050505050508888611ec6565b611722426121d2565b8160000160186101000a81548167ffffffffffffffff021916908367ffffffffffffffff160217905550888860405161175c92919061338b565b60405180910390208a7f2dbc7d77b34ff61afd4ab472f9ac9cb2458609e516b9d75fc715f8a80e019dc5888860405161179692919061353b565b60405180910390a350505050505050505050565b7f97667070c54ef182b0f5858b034beac1b6f3089aa2d3188bb1e8929f4fa9b92981565b6000600560006118148a8a6040518060400160405280600681526020017f7265706f7274000000000000000000000000000000000000000000000000000081525061219c565b8152602001908152602001600020604051806040016040529081600082016040518060600160405290816000820160009054906101000a900460ff1660ff1660ff1681526020016000820160019054906101000a900476ffffffffffffffffffffffffffffffffffffffffffffff1676ffffffffffffffffffffffffffffffffffffffffffffff1676ffffffffffffffffffffffffffffffffffffffffffffff1681526020016000820160189054906101000a900467ffffffffffffffff1667ffffffffffffffff1667ffffffffffffffff16815250508152602001600182015481525050905061190d88826000015160400151611d53565b60006001886040518060400160405280600681526020017f7265706f727400000000000000000000000000000000000000000000000000008152508960405160200161195c9493929190613725565b604051602081830303815290604052868660405160200161197f93929190613341565b604051602081830303815290604052805190602001209050808260200151146119a757600080fd5b611a2e896040518060400160405280600681526020017f7265706f727400000000000000000000000000000000000000000000000000008152508989898080601f016020809104026020016040519081016040528093929190818152602001838380828437600081840152601f19601f820116905080830192505050505050508888611ec6565b505050505050505050565b60007f01ffc9a7000000000000000000000000000000000000000000000000000000007bffffffffffffffffffffffffffffffffffffffffffffffffffffffff1916827bffffffffffffffffffffffffffffffffffffffffffffffffffffffff1916149050919050565b60008282604051602001611ab89291906134a4565b60405160208183030381529060405280519060200120905092915050565b60006001808360ff1685901c1614905092915050565b600033905090565b611afe8282611110565b611b8d57611b238173ffffffffffffffffffffffffffffffffffffffff166014612268565b611b318360001c6020612268565b604051602001611b429291906133b9565b6040516020818303038152906040526040517f08c379a0000000000000000000000000000000000000000000000000000000008152600401611b84919061355f565b60405180910390fd5b5050565b611b9b8282611110565b611c6d57600180600084815260200190815260200160002060000160008373ffffffffffffffffffffffffffffffffffffffff1673ffffffffffffffffffffffffffffffffffffffff16815260200190815260200160002060006101000a81548160ff021916908315150217905550611c12611aec565b73ffffffffffffffffffffffffffffffffffffffff168173ffffffffffffffffffffffffffffffffffffffff16837f2f8788117e7eff1d82e926ec794901d17c78024a50270940304540a733656f0d60405160405180910390a45b5050565b611c7b8282611110565b15611d4f5760006001600084815260200190815260200160002060000160008373ffffffffffffffffffffffffffffffffffffffff1673ffffffffffffffffffffffffffffffffffffffff16815260200190815260200160002060006101000a81548160ff021916908315150217905550611cf4611aec565b73ffffffffffffffffffffffffffffffffffffffff168173ffffffffffffffffffffffffffffffffffffffff16837ff6391f5c32d9c69d2a47ea670b442974b53935d1edc7fd64eb21e047a839171b60405160405180910390a45b5050565b60046000611d96846040518060400160405280600681526020017f7265706f72740000000000000000000000000000000000000000000000000000815250612235565b815260200190815260200160002060000160189054906101000a900467ffffffffffffffff1667ffffffffffffffff166201518082611dd591906138ce565b67ffffffffffffffff161115611dea57600080fd5b5050565b60008282604051602001611e039291906134a4565b60405160208183030381529060405280519060200120905092915050565b8060066000848152602001908152602001600020819055505050565b611ec0846323b872dd60e01b858585604051602401611e5e9392919061340e565b604051602081830303815290604052907bffffffffffffffffffffffffffffffffffffffffffffffffffffffff19166020820180517bffffffffffffffffffffffffffffffffffffffffffffffffffffffff8381831617835250505050612562565b50505050565b60006002600088815260200190815260200160002060000160189054906101000a900467ffffffffffffffff1667ffffffffffffffff161415611f3e576040517f08c379a0000000000000000000000000000000000000000000000000000000008152600401611f3590613621565b60405180910390fd5b6000808686604051602001611f5593929190613771565b60405160208183030381529060405284604051602001611f76929190613367565b604051602081830303815290604052805190602001209050611fda838380806020026020016040519081016040528093929190818152602001838360200280828437600081840152601f19601f820116905080830192505050505050508883612629565b612019576040517f08c379a000000000000000000000000000000000000000000000000000000000815260040161201090613681565b60405180910390fd5b50505050505050565b80471015612065576040517f08c379a000000000000000000000000000000000000000000000000000000000815260040161205c906135c1565b60405180910390fd5b60008273ffffffffffffffffffffffffffffffffffffffff168260405161208b906133a4565b60006040518083038185875af1925050503d80600081146120c8576040519150601f19603f3d011682016040523d82523d6000602084013e6120cd565b606091505b5050905080612111576040517f08c379a0000000000000000000000000000000000000000000000000000000008152600401612108906135a1565b60405180910390fd5b505050565b6121978363a9059cbb60e01b8484604051602401612135929190613445565b604051602081830303815290604052907bffffffffffffffffffffffffffffffffffffffffffffffffffffffff19166020820180517bffffffffffffffffffffffffffffffffffffffffffffffffffffffff8381831617835250505050612562565b505050565b60008383836040516020016121b3939291906134cd565b6040516020818303038152906040528051906020012090509392505050565b600068010000000000000000821061221f576040517f08c379a000000000000000000000000000000000000000000000000000000000815260040161221690613641565b60405180910390fd5b819050919050565b6122318282611b91565b5050565b6000828260405160200161224a92919061350b565b60405160208183030381529060405280519060200120905092915050565b60606000600283600261227b919061390c565b6122859190613878565b67ffffffffffffffff8111156122c4577f4e487b7100000000000000000000000000000000000000000000000000000000600052604160045260246000fd5b6040519080825280601f01601f1916602001820160405280156122f65781602001600182028036833780820191505090505b5090507f300000000000000000000000000000000000000000000000000000000000000081600081518110612354577f4e487b7100000000000000000000000000000000000000000000000000000000600052603260045260246000fd5b60200101907effffffffffffffffffffffffffffffffffffffffffffffffffffffffffffff1916908160001a9053507f7800000000000000000000000000000000000000000000000000000000000000816001815181106123de577f4e487b7100000000000000000000000000000000000000000000000000000000600052603260045260246000fd5b60200101907effffffffffffffffffffffffffffffffffffffffffffffffffffffffffffff1916908160001a9053506000600184600261241e919061390c565b6124289190613878565b90505b6001811115612514577f3031323334353637383961626364656600000000000000000000000000000000600f861660108110612490577f4e487b7100000000000000000000000000000000000000000000000000000000600052603260045260246000fd5b1a60f81b8282815181106124cd577f4e487b7100000000000000000000000000000000000000000000000000000000600052603260045260246000fd5b60200101907effffffffffffffffffffffffffffffffffffffffffffffffffffffffffffff1916908160001a905350600485901c94508061250d90613a9e565b905061242b565b5060008414612558576040517f08c379a000000000000000000000000000000000000000000000000000000000815260040161254f90613581565b60405180910390fd5b8091505092915050565b60006125c4826040518060400160405280602081526020017f5361666545524332303a206c6f772d6c6576656c2063616c6c206661696c65648152508573ffffffffffffffffffffffffffffffffffffffff166127059092919063ffffffff16565b905060008151111561262457808060200190518101906125e49190612a30565b612623576040517f08c379a000000000000000000000000000000000000000000000000000000000815260040161261a906136a1565b60405180910390fd5b5b505050565b60008082905060005b85518110156126f7576000868281518110612676577f4e487b7100000000000000000000000000000000000000000000000000000000600052603260045260246000fd5b602002602001015190508083116126b757828160405160200161269a9291906132fe565b6040516020818303038152906040528051906020012092506126e3565b80836040516020016126ca9291906132fe565b6040516020818303038152906040528051906020012092505b5080806126ef90613ac8565b915050612632565b508381149150509392505050565b6060612714848460008561271d565b90509392505050565b606082471015612762576040517f08c379a0000000000000000000000000000000000000000000000000000000008152600401612759906135e1565b60405180910390fd5b61276b85612831565b6127aa576040517f08c379a00000000000000000000000000000000000000000000000000000000081526004016127a190613661565b60405180910390fd5b6000808673ffffffffffffffffffffffffffffffffffffffff1685876040516127d3919061332a565b60006040518083038185875af1925050503d8060008114612810576040519150601f19603f3d011682016040523d82523d6000602084013e612815565b606091505b5091509150612825828286612844565b92505050949350505050565b600080823b905060008111915050919050565b60608315612854578290506128a4565b6000835111156128675782518084602001fd5b816040517f08c379a000000000000000000000000000000000000000000000000000000000815260040161289b919061355f565b60405180910390fd5b9392505050565b6000813590506128ba81613ea3565b92915050565b60008083601f8401126128d257600080fd5b8235905067ffffffffffffffff8111156128eb57600080fd5b60208301915083602082028301111561290357600080fd5b9250929050565b60008151905061291981613eba565b92915050565b60008135905061292e81613ed1565b92915050565b60008135905061294381613ee8565b92915050565b60008083601f84011261295b57600080fd5b8235905067ffffffffffffffff81111561297457600080fd5b60208301915083600182028301111561298c57600080fd5b9250929050565b60008083601f8401126129a557600080fd5b8235905067ffffffffffffffff8111156129be57600080fd5b6020830191508360018202830111156129d657600080fd5b9250929050565b6000813590506129ec81613eff565b92915050565b600081359050612a0181613f16565b92915050565b600060208284031215612a1957600080fd5b6000612a27848285016128ab565b91505092915050565b600060208284031215612a4257600080fd5b6000612a508482850161290a565b91505092915050565b600060208284031215612a6b57600080fd5b6000612a798482850161291f565b91505092915050565b60008060408385031215612a9557600080fd5b6000612aa38582860161291f565b9250506020612ab4858286016128ab565b9150509250929050565b600080600080600080600060a0888a031215612ad957600080fd5b6000612ae78a828b0161291f565b9750506020612af88a828b016128ab565b9650506040612b098a828b0161291f565b955050606088013567ffffffffffffffff811115612b2657600080fd5b612b328a828b01612949565b9450945050608088013567ffffffffffffffff811115612b5157600080fd5b612b5d8a828b016128c0565b925092505092959891949750929550565b600080600060608486031215612b8357600080fd5b6000612b918682870161291f565b9350506020612ba2868287016128ab565b9250506040612bb3868287016129dd565b9150509250925092565b600080600080600080600060c0888a031215612bd857600080fd5b6000612be68a828b0161291f565b9750506020612bf78a828b016128ab565b9650506040612c088a828b016129dd565b9550506060612c198a828b0161291f565b9450506080612c2a8a828b016128ab565b93505060a088013567ffffffffffffffff811115612c4757600080fd5b612c538a828b016128c0565b925092505092959891949750929550565b600080600060608486031215612c7957600080fd5b6000612c878682870161291f565b9350506020612c98868287016128ab565b9250506040612ca9868287016129f2565b9150509250925092565b60008060008060008060008060c0898b031215612ccf57600080fd5b6000612cdd8b828c0161291f565b9850506020612cee8b828c016128ab565b9750506040612cff8b828c016129f2565b9650506060612d108b828c0161291f565b955050608089013567ffffffffffffffff811115612d2d57600080fd5b612d398b828c01612949565b945094505060a089013567ffffffffffffffff811115612d5857600080fd5b612d648b828c016128c0565b92509250509295985092959890939650565b60008060008060608587031215612d8c57600080fd5b6000612d9a8782880161291f565b945050602085013567ffffffffffffffff811115612db757600080fd5b612dc387828801612993565b93509350506040612dd68782880161291f565b91505092959194509250565b60008060008060008060008060a0898b031215612dfe57600080fd5b6000612e0c8b828c0161291f565b985050602089013567ffffffffffffffff811115612e2957600080fd5b612e358b828c01612993565b97509750506040612e488b828c0161291f565b955050606089013567ffffffffffffffff811115612e6557600080fd5b612e718b828c01612949565b9450945050608089013567ffffffffffffffff811115612e9057600080fd5b612e9c8b828c016128c0565b92509250509295985092959890939650565b60008060408385031215612ec157600080fd5b6000612ecf8582860161291f565b9250506020612ee0858286016129f2565b9150509250929050565b600060208284031215612efc57600080fd5b6000612f0a84828501612934565b91505092915050565b612f1c8161399a565b82525050565b612f2b816139ac565b82525050565b612f3a816139b8565b82525050565b612f51612f4c826139b8565b613b11565b82525050565b6000612f638385613840565b9350612f70838584613a5c565b612f7983613b4a565b840190509392505050565b6000612f908385613851565b9350612f9d838584613a5c565b82840190509392505050565b6000612fb48261382a565b612fbe8185613851565b9350612fce818560208601613a6b565b80840191505092915050565b6000612fe6838561386d565b9350612ff3838584613a5c565b82840190509392505050565b600061300a82613835565b613014818561385c565b9350613024818560208601613a6b565b61302d81613b4a565b840191505092915050565b600061304382613835565b61304d818561386d565b935061305d818560208601613a6b565b80840191505092915050565b600061307660208361385c565b915061308182613b5b565b602082019050919050565b6000613099603a8361385c565b91506130a482613b84565b604082019050919050565b60006130bc601d8361385c565b91506130c782613bd3565b602082019050919050565b60006130df60268361385c565b91506130ea82613bfc565b604082019050919050565b6000613102602e8361385c565b915061310d82613c4b565b604082019050919050565b6000613125602d8361385c565b915061313082613c9a565b604082019050919050565b600061314860268361385c565b915061315382613ce9565b604082019050919050565b600061316b600083613851565b915061317682613d38565b600082019050919050565b600061318e601d8361385c565b915061319982613d3b565b602082019050919050565b60006131b160278361385c565b91506131bc82613d64565b604082019050919050565b60006131d460178361386d565b91506131df82613db3565b601782019050919050565b60006131f7602a8361385c565b915061320282613ddc565b604082019050919050565b600061321a60118361386d565b915061322582613e2b565b601182019050919050565b600061323d602f8361385c565b915061324882613e54565b604082019050919050565b60608201600082015161326960008501826132e0565b50602082015161327c6020850182613295565b50604082015161328f60408501826132c2565b50505050565b61329e81613a0e565b82525050565b6132ad81613a0e565b82525050565b6132bc81613a31565b82525050565b6132cb81613a3b565b82525050565b6132da81613a3b565b82525050565b6132e981613a4f565b82525050565b6132f881613a4f565b82525050565b600061330a8285612f40565b60208201915061331a8284612f40565b6020820191508190509392505050565b60006133368284612fa9565b915081905092915050565b600061334d8286612fa9565b915061335a828486612f84565b9150819050949350505050565b60006133738285612fa9565b915061337f8284612fa9565b91508190509392505050565b6000613398828486612fda565b91508190509392505050565b60006133af8261315e565b9150819050919050565b60006133c4826131c7565b91506133d08285613038565b91506133db8261320d565b91506133e78284613038565b91508190509392505050565b60006020820190506134086000830184612f13565b92915050565b60006060820190506134236000830186612f13565b6134306020830185612f13565b61343d60408301846132b3565b949350505050565b600060408201905061345a6000830185612f13565b61346760208301846132b3565b9392505050565b60006020820190506134836000830184612f22565b92915050565b600060208201905061349e6000830184612f31565b92915050565b60006040820190506134b96000830185612f31565b6134c66020830184612f13565b9392505050565b60006060820190506134e26000830186612f31565b6134ef6020830185612f13565b81810360408301526135018184612fff565b9050949350505050565b60006040820190506135206000830185612f31565b81810360208301526135328184612fff565b90509392505050565b60006020820190508181036000830152613556818486612f57565b90509392505050565b600060208201905081810360008301526135798184612fff565b905092915050565b6000602082019050818103600083015261359a81613069565b9050919050565b600060208201905081810360008301526135ba8161308c565b9050919050565b600060208201905081810360008301526135da816130af565b9050919050565b600060208201905081810360008301526135fa816130d2565b9050919050565b6000602082019050818103600083015261361a816130f5565b9050919050565b6000602082019050818103600083015261363a81613118565b9050919050565b6000602082019050818103600083015261365a8161313b565b9050919050565b6000602082019050818103600083015261367a81613181565b9050919050565b6000602082019050818103600083015261369a816131a4565b9050919050565b600060208201905081810360008301526136ba816131ea565b9050919050565b600060208201905081810360008301526136da81613230565b9050919050565b60006080820190506136f66000830185613253565b6137036060830184612f31565b9392505050565b600060208201905061371f60008301846132b3565b92915050565b600060808201905061373a60008301876132b3565b6137476020830186612f13565b81810360408301526137598185612fff565b90506137686060830184612f31565b95945050505050565b600060608201905061378660008301866132b3565b81810360208301526137988185612fff565b90506137a76040830184612f31565b949350505050565b60006020820190506137c460008301846132d1565b92915050565b60006060820190506137df60008301866132ef565b6137ec60208301856132a4565b6137f960408301846132d1565b949350505050565b600060408201905061381660008301856132ef565b61382360208301846132d1565b9392505050565b600081519050919050565b600081519050919050565b600082825260208201905092915050565b600081905092915050565b600082825260208201905092915050565b600081905092915050565b600061388382613a31565b915061388e83613a31565b9250827fffffffffffffffffffffffffffffffffffffffffffffffffffffffffffffffff038211156138c3576138c2613b1b565b5b828201905092915050565b60006138d982613a3b565b91506138e483613a3b565b92508267ffffffffffffffff0382111561390157613900613b1b565b5b828201905092915050565b600061391782613a31565b915061392283613a31565b9250817fffffffffffffffffffffffffffffffffffffffffffffffffffffffffffffffff048311821515161561395b5761395a613b1b565b5b828202905092915050565b600061397182613a31565b915061397c83613a31565b92508282101561398f5761398e613b1b565b5b828203905092915050565b60006139a5826139ee565b9050919050565b60008115159050919050565b6000819050919050565b60007fffffffff0000000000000000000000000000000000000000000000000000000082169050919050565b600073ffffffffffffffffffffffffffffffffffffffff82169050919050565b600076ffffffffffffffffffffffffffffffffffffffffffffff82169050919050565b6000819050919050565b600067ffffffffffffffff82169050919050565b600060ff82169050919050565b82818337600083830152505050565b60005b83811015613a89578082015181840152602081019050613a6e565b83811115613a98576000848401525b50505050565b6000613aa982613a31565b91506000821415613abd57613abc613b1b565b5b600182039050919050565b6000613ad382613a31565b91507fffffffffffffffffffffffffffffffffffffffffffffffffffffffffffffffff821415613b0657613b05613b1b565b5b600182019050919050565b6000819050919050565b7f4e487b7100000000000000000000000000000000000000000000000000000000600052601160045260246000fd5b6000601f19601f8301169050919050565b7f537472696e67733a20686578206c656e67746820696e73756666696369656e74600082015250565b7f416464726573733a20756e61626c6520746f2073656e642076616c75652c207260008201527f6563697069656e74206d61792068617665207265766572746564000000000000602082015250565b7f416464726573733a20696e73756666696369656e742062616c616e6365000000600082015250565b7f416464726573733a20696e73756666696369656e742062616c616e636520666f60008201527f722063616c6c0000000000000000000000000000000000000000000000000000602082015250565b7f496e697469616c697a61626c653a20636f6e747261637420697320616c72656160008201527f647920696e697469616c697a6564000000000000000000000000000000000000602082015250565b7f427567205265706f7274204e6f746172793a204d65726b6c6520726f6f74206e60008201527f6f74207375626d69747465642e00000000000000000000000000000000000000602082015250565b7f53616665436173743a2076616c756520646f65736e27742066697420696e203660008201527f3420626974730000000000000000000000000000000000000000000000000000602082015250565b50565b7f416464726573733a2063616c6c20746f206e6f6e2d636f6e7472616374000000600082015250565b7f427567205265706f7274204e6f746172793a204d65726b6c652070726f6f662060008201527f6661696c65642e00000000000000000000000000000000000000000000000000602082015250565b7f416363657373436f6e74726f6c3a206163636f756e7420000000000000000000600082015250565b7f5361666545524332303a204552433230206f7065726174696f6e20646964206e60008201527f6f74207375636365656400000000000000000000000000000000000000000000602082015250565b7f206973206d697373696e6720726f6c6520000000000000000000000000000000600082015250565b7f416363657373436f6e74726f6c3a2063616e206f6e6c792072656e6f756e636560008201527f20726f6c657320666f722073656c660000000000000000000000000000000000602082015250565b613eac8161399a565b8114613eb757600080fd5b50565b613ec3816139ac565b8114613ece57600080fd5b50565b613eda816139b8565b8114613ee557600080fd5b50565b613ef1816139c2565b8114613efc57600080fd5b50565b613f0881613a31565b8114613f1357600080fd5b50565b613f1f81613a4f565b8114613f2a57600080fd5b5056fea2646970667358221220685a2b5fb59564348010e5ef1ad912af7465e8c134437dc49b7d1193e335073864736f6c63430008040033",
			"opcodes": "PUSH1 0x80 PUSH1 0x40 MSTORE CALLVALUE DUP1 ISZERO PUSH2 0x10 JUMPI PUSH1 0x0 DUP1 REVERT JUMPDEST POP PUSH2 0x3F63 DUP1 PUSH2 0x20 PUSH1 0x0 CODECOPY PUSH1 0x0 RETURN INVALID PUSH1 0x80 PUSH1 0x40 MSTORE PUSH1 0x4 CALLDATASIZE LT PUSH2 0x166 JUMPI PUSH1 0x0 CALLDATALOAD PUSH1 0xE0 SHR DUP1 PUSH4 0x7C9EFEF8 GT PUSH2 0xD1 JUMPI DUP1 PUSH4 0xBF53253B GT PUSH2 0x8A JUMPI DUP1 PUSH4 0xD9CAA3D2 GT PUSH2 0x64 JUMPI DUP1 PUSH4 0xD9CAA3D2 EQ PUSH2 0x5A2 JUMPI DUP1 PUSH4 0xE59D3F5C EQ PUSH2 0x5CB JUMPI DUP1 PUSH4 0xF5B541A6 EQ PUSH2 0x5F4 JUMPI DUP1 PUSH4 0xFDDADBF5 EQ PUSH2 0x61F JUMPI PUSH2 0x166 JUMP JUMPDEST DUP1 PUSH4 0xBF53253B EQ PUSH2 0x525 JUMPI DUP1 PUSH4 0xC4D66DE8 EQ PUSH2 0x550 JUMPI DUP1 PUSH4 0xD547741F EQ PUSH2 0x579 JUMPI PUSH2 0x166 JUMP JUMPDEST DUP1 PUSH4 0x7C9EFEF8 EQ PUSH2 0x3DA JUMPI DUP1 PUSH4 0x8909AA3F EQ PUSH2 0x403 JUMPI DUP1 PUSH4 0x91D14854 EQ PUSH2 0x440 JUMPI DUP1 PUSH4 0x940992A3 EQ PUSH2 0x47D JUMPI DUP1 PUSH4 0xA217FDDF EQ PUSH2 0x4BB JUMPI DUP1 PUSH4 0xB39C4897 EQ PUSH2 0x4E6 JUMPI PUSH2 0x166 JUMP JUMPDEST DUP1 PUSH4 0x3820C4BB GT PUSH2 0x123 JUMPI DUP1 PUSH4 0x3820C4BB EQ PUSH2 0x2B3 JUMPI DUP1 PUSH4 0x530E931C EQ PUSH2 0x2F0 JUMPI DUP1 PUSH4 0x5DC4BB17 EQ PUSH2 0x32D JUMPI DUP1 PUSH4 0x6E5B5114 EQ PUSH2 0x349 JUMPI DUP1 PUSH4 0x71C87AB4 EQ PUSH2 0x372 JUMPI DUP1 PUSH4 0x728CC203 EQ PUSH2 0x3B1 JUMPI PUSH2 0x166 JUMP JUMPDEST DUP1 PUSH4 0x1FFC9A7 EQ PUSH2 0x16B JUMPI DUP1 PUSH4 0x5E2AAF4 EQ PUSH2 0x1A8 JUMPI DUP1 PUSH4 0x20F053E2 EQ PUSH2 0x1E5 JUMPI DUP1 PUSH4 0x248A9CA3 EQ PUSH2 0x224 JUMPI DUP1 PUSH4 0x2F2FF15D EQ PUSH2 0x261 JUMPI DUP1 PUSH4 0x36568ABE EQ PUSH2 0x28A JUMPI JUMPDEST PUSH1 0x0 DUP1 REVERT JUMPDEST CALLVALUE DUP1 ISZERO PUSH2 0x177 JUMPI PUSH1 0x0 DUP1 REVERT JUMPDEST POP PUSH2 0x192 PUSH1 0x4 DUP1 CALLDATASIZE SUB DUP2 ADD SWAP1 PUSH2 0x18D SWAP2 SWAP1 PUSH2 0x2EEA JUMP JUMPDEST PUSH2 0x648 JUMP JUMPDEST PUSH1 0x40 MLOAD PUSH2 0x19F SWAP2 SWAP1 PUSH2 0x346E JUMP JUMPDEST PUSH1 0x40 MLOAD DUP1 SWAP2 SUB SWAP1 RETURN JUMPDEST CALLVALUE DUP1 ISZERO PUSH2 0x1B4 JUMPI PUSH1 0x0 DUP1 REVERT JUMPDEST POP PUSH2 0x1CF PUSH1 0x4 DUP1 CALLDATASIZE SUB DUP2 ADD SWAP1 PUSH2 0x1CA SWAP2 SWAP1 PUSH2 0x2C64 JUMP JUMPDEST PUSH2 0x6C2 JUMP JUMPDEST PUSH1 0x40 MLOAD PUSH2 0x1DC SWAP2 SWAP1 PUSH2 0x346E JUMP JUMPDEST PUSH1 0x40 MLOAD DUP1 SWAP2 SUB SWAP1 RETURN JUMPDEST CALLVALUE DUP1 ISZERO PUSH2 0x1F1 JUMPI PUSH1 0x0 DUP1 REVERT JUMPDEST POP PUSH2 0x20C PUSH1 0x4 DUP1 CALLDATASIZE SUB DUP2 ADD SWAP1 PUSH2 0x207 SWAP2 SWAP1 PUSH2 0x2A59 JUMP JUMPDEST PUSH2 0x706 JUMP JUMPDEST PUSH1 0x40 MLOAD PUSH2 0x21B SWAP4 SWAP3 SWAP2 SWAP1 PUSH2 0x37CA JUMP JUMPDEST PUSH1 0x40 MLOAD DUP1 SWAP2 SUB SWAP1 RETURN JUMPDEST CALLVALUE DUP1 ISZERO PUSH2 0x230 JUMPI PUSH1 0x0 DUP1 REVERT JUMPDEST POP PUSH2 0x24B PUSH1 0x4 DUP1 CALLDATASIZE SUB DUP2 ADD SWAP1 PUSH2 0x246 SWAP2 SWAP1 PUSH2 0x2A59 JUMP JUMPDEST PUSH2 0x774 JUMP JUMPDEST PUSH1 0x40 MLOAD PUSH2 0x258 SWAP2 SWAP1 PUSH2 0x3489 JUMP JUMPDEST PUSH1 0x40 MLOAD DUP1 SWAP2 SUB SWAP1 RETURN JUMPDEST CALLVALUE DUP1 ISZERO PUSH2 0x26D JUMPI PUSH1 0x0 DUP1 REVERT JUMPDEST POP PUSH2 0x288 PUSH1 0x4 DUP1 CALLDATASIZE SUB DUP2 ADD SWAP1 PUSH2 0x283 SWAP2 SWAP1 PUSH2 0x2A82 JUMP JUMPDEST PUSH2 0x794 JUMP JUMPDEST STOP JUMPDEST CALLVALUE DUP1 ISZERO PUSH2 0x296 JUMPI PUSH1 0x0 DUP1 REVERT JUMPDEST POP PUSH2 0x2B1 PUSH1 0x4 DUP1 CALLDATASIZE SUB DUP2 ADD SWAP1 PUSH2 0x2AC SWAP2 SWAP1 PUSH2 0x2A82 JUMP JUMPDEST PUSH2 0x7BD JUMP JUMPDEST STOP JUMPDEST CALLVALUE DUP1 ISZERO PUSH2 0x2BF JUMPI PUSH1 0x0 DUP1 REVERT JUMPDEST POP PUSH2 0x2DA PUSH1 0x4 DUP1 CALLDATASIZE SUB DUP2 ADD SWAP1 PUSH2 0x2D5 SWAP2 SWAP1 PUSH2 0x2CB3 JUMP JUMPDEST PUSH2 0x840 JUMP JUMPDEST PUSH1 0x40 MLOAD PUSH2 0x2E7 SWAP2 SWAP1 PUSH2 0x346E JUMP JUMPDEST PUSH1 0x40 MLOAD DUP1 SWAP2 SUB SWAP1 RETURN JUMPDEST CALLVALUE DUP1 ISZERO PUSH2 0x2FC JUMPI PUSH1 0x0 DUP1 REVERT JUMPDEST POP PUSH2 0x317 PUSH1 0x4 DUP1 CALLDATASIZE SUB DUP2 ADD SWAP1 PUSH2 0x312 SWAP2 SWAP1 PUSH2 0x2A82 JUMP JUMPDEST PUSH2 0x958 JUMP JUMPDEST PUSH1 0x40 MLOAD PUSH2 0x324 SWAP2 SWAP1 PUSH2 0x370A JUMP JUMPDEST PUSH1 0x40 MLOAD DUP1 SWAP2 SUB SWAP1 RETURN JUMPDEST PUSH2 0x347 PUSH1 0x4 DUP1 CALLDATASIZE SUB DUP2 ADD SWAP1 PUSH2 0x342 SWAP2 SWAP1 PUSH2 0x2B6E JUMP JUMPDEST PUSH2 0x97F JUMP JUMPDEST STOP JUMPDEST CALLVALUE DUP1 ISZERO PUSH2 0x355 JUMPI PUSH1 0x0 DUP1 REVERT JUMPDEST POP PUSH2 0x370 PUSH1 0x4 DUP1 CALLDATASIZE SUB DUP2 ADD SWAP1 PUSH2 0x36B SWAP2 SWAP1 PUSH2 0x2BBD JUMP JUMPDEST PUSH2 0xAA0 JUMP JUMPDEST STOP JUMPDEST CALLVALUE DUP1 ISZERO PUSH2 0x37E JUMPI PUSH1 0x0 DUP1 REVERT JUMPDEST POP PUSH2 0x399 PUSH1 0x4 DUP1 CALLDATASIZE SUB DUP2 ADD SWAP1 PUSH2 0x394 SWAP2 SWAP1 PUSH2 0x2A59 JUMP JUMPDEST PUSH2 0xC28 JUMP JUMPDEST PUSH1 0x40 MLOAD PUSH2 0x3A8 SWAP4 SWAP3 SWAP2 SWAP1 PUSH2 0x37CA JUMP JUMPDEST PUSH1 0x40 MLOAD DUP1 SWAP2 SUB SWAP1 RETURN JUMPDEST CALLVALUE DUP1 ISZERO PUSH2 0x3BD JUMPI PUSH1 0x0 DUP1 REVERT JUMPDEST POP PUSH2 0x3D8 PUSH1 0x4 DUP1 CALLDATASIZE SUB DUP2 ADD SWAP1 PUSH2 0x3D3 SWAP2 SWAP1 PUSH2 0x2EAE JUMP JUMPDEST PUSH2 0xC96 JUMP JUMPDEST STOP JUMPDEST CALLVALUE DUP1 ISZERO PUSH2 0x3E6 JUMPI PUSH1 0x0 DUP1 REVERT JUMPDEST POP PUSH2 0x401 PUSH1 0x4 DUP1 CALLDATASIZE SUB DUP2 ADD SWAP1 PUSH2 0x3FC SWAP2 SWAP1 PUSH2 0x2D76 JUMP JUMPDEST PUSH2 0xEA0 JUMP JUMPDEST STOP JUMPDEST CALLVALUE DUP1 ISZERO PUSH2 0x40F JUMPI PUSH1 0x0 DUP1 REVERT JUMPDEST POP PUSH2 0x42A PUSH1 0x4 DUP1 CALLDATASIZE SUB DUP2 ADD SWAP1 PUSH2 0x425 SWAP2 SWAP1 PUSH2 0x2A59 JUMP JUMPDEST PUSH2 0x10F8 JUMP JUMPDEST PUSH1 0x40 MLOAD PUSH2 0x437 SWAP2 SWAP1 PUSH2 0x370A JUMP JUMPDEST PUSH1 0x40 MLOAD DUP1 SWAP2 SUB SWAP1 RETURN JUMPDEST CALLVALUE DUP1 ISZERO PUSH2 0x44C JUMPI PUSH1 0x0 DUP1 REVERT JUMPDEST POP PUSH2 0x467 PUSH1 0x4 DUP1 CALLDATASIZE SUB DUP2 ADD SWAP1 PUSH2 0x462 SWAP2 SWAP1 PUSH2 0x2A82 JUMP JUMPDEST PUSH2 0x1110 JUMP JUMPDEST PUSH1 0x40 MLOAD PUSH2 0x474 SWAP2 SWAP1 PUSH2 0x346E JUMP JUMPDEST PUSH1 0x40 MLOAD DUP1 SWAP2 SUB SWAP1 RETURN JUMPDEST CALLVALUE DUP1 ISZERO PUSH2 0x489 JUMPI PUSH1 0x0 DUP1 REVERT JUMPDEST POP PUSH2 0x4A4 PUSH1 0x4 DUP1 CALLDATASIZE SUB DUP2 ADD SWAP1 PUSH2 0x49F SWAP2 SWAP1 PUSH2 0x2A59 JUMP JUMPDEST PUSH2 0x117B JUMP JUMPDEST PUSH1 0x40 MLOAD PUSH2 0x4B2 SWAP3 SWAP2 SWAP1 PUSH2 0x36E1 JUMP JUMPDEST PUSH1 0x40 MLOAD DUP1 SWAP2 SUB SWAP1 RETURN JUMPDEST CALLVALUE DUP1 ISZERO PUSH2 0x4C7 JUMPI PUSH1 0x0 DUP1 REVERT JUMPDEST POP PUSH2 0x4D0 PUSH2 0x1257 JUMP JUMPDEST PUSH1 0x40 MLOAD PUSH2 0x4DD SWAP2 SWAP1 PUSH2 0x3489 JUMP JUMPDEST PUSH1 0x40 MLOAD DUP1 SWAP2 SUB SWAP1 RETURN JUMPDEST CALLVALUE DUP1 ISZERO PUSH2 0x4F2 JUMPI PUSH1 0x0 DUP1 REVERT JUMPDEST POP PUSH2 0x50D PUSH1 0x4 DUP1 CALLDATASIZE SUB DUP2 ADD SWAP1 PUSH2 0x508 SWAP2 SWAP1 PUSH2 0x2A59 JUMP JUMPDEST PUSH2 0x125E JUMP JUMPDEST PUSH1 0x40 MLOAD PUSH2 0x51C SWAP4 SWAP3 SWAP2 SWAP1 PUSH2 0x37CA JUMP JUMPDEST PUSH1 0x40 MLOAD DUP1 SWAP2 SUB SWAP1 RETURN JUMPDEST CALLVALUE DUP1 ISZERO PUSH2 0x531 JUMPI PUSH1 0x0 DUP1 REVERT JUMPDEST POP PUSH2 0x53A PUSH2 0x12CC JUMP JUMPDEST PUSH1 0x40 MLOAD PUSH2 0x547 SWAP2 SWAP1 PUSH2 0x33F3 JUMP JUMPDEST PUSH1 0x40 MLOAD DUP1 SWAP2 SUB SWAP1 RETURN JUMPDEST CALLVALUE DUP1 ISZERO PUSH2 0x55C JUMPI PUSH1 0x0 DUP1 REVERT JUMPDEST POP PUSH2 0x577 PUSH1 0x4 DUP1 CALLDATASIZE SUB DUP2 ADD SWAP1 PUSH2 0x572 SWAP2 SWAP1 PUSH2 0x2A07 JUMP JUMPDEST PUSH2 0x12D1 JUMP JUMPDEST STOP JUMPDEST CALLVALUE DUP1 ISZERO PUSH2 0x585 JUMPI PUSH1 0x0 DUP1 REVERT JUMPDEST POP PUSH2 0x5A0 PUSH1 0x4 DUP1 CALLDATASIZE SUB DUP2 ADD SWAP1 PUSH2 0x59B SWAP2 SWAP1 PUSH2 0x2A82 JUMP JUMPDEST PUSH2 0x13E2 JUMP JUMPDEST STOP JUMPDEST CALLVALUE DUP1 ISZERO PUSH2 0x5AE JUMPI PUSH1 0x0 DUP1 REVERT JUMPDEST POP PUSH2 0x5C9 PUSH1 0x4 DUP1 CALLDATASIZE SUB DUP2 ADD SWAP1 PUSH2 0x5C4 SWAP2 SWAP1 PUSH2 0x2A59 JUMP JUMPDEST PUSH2 0x140B JUMP JUMPDEST STOP JUMPDEST CALLVALUE DUP1 ISZERO PUSH2 0x5D7 JUMPI PUSH1 0x0 DUP1 REVERT JUMPDEST POP PUSH2 0x5F2 PUSH1 0x4 DUP1 CALLDATASIZE SUB DUP2 ADD SWAP1 PUSH2 0x5ED SWAP2 SWAP1 PUSH2 0x2DE2 JUMP JUMPDEST PUSH2 0x15BE JUMP JUMPDEST STOP JUMPDEST CALLVALUE DUP1 ISZERO PUSH2 0x600 JUMPI PUSH1 0x0 DUP1 REVERT JUMPDEST POP PUSH2 0x609 PUSH2 0x17AA JUMP JUMPDEST PUSH1 0x40 MLOAD PUSH2 0x616 SWAP2 SWAP1 PUSH2 0x3489 JUMP JUMPDEST PUSH1 0x40 MLOAD DUP1 SWAP2 SUB SWAP1 RETURN JUMPDEST CALLVALUE DUP1 ISZERO PUSH2 0x62B JUMPI PUSH1 0x0 DUP1 REVERT JUMPDEST POP PUSH2 0x646 PUSH1 0x4 DUP1 CALLDATASIZE SUB DUP2 ADD SWAP1 PUSH2 0x641 SWAP2 SWAP1 PUSH2 0x2ABE JUMP JUMPDEST PUSH2 0x17CE JUMP JUMPDEST STOP JUMPDEST PUSH1 0x0 PUSH32 0x7965DB0B00000000000000000000000000000000000000000000000000000000 PUSH28 0xFFFFFFFFFFFFFFFFFFFFFFFFFFFFFFFFFFFFFFFFFFFFFFFFFFFFFFFF NOT AND DUP3 PUSH28 0xFFFFFFFFFFFFFFFFFFFFFFFFFFFFFFFFFFFFFFFFFFFFFFFFFFFFFFFF NOT AND EQ DUP1 PUSH2 0x6BB JUMPI POP PUSH2 0x6BA DUP3 PUSH2 0x1A39 JUMP JUMPDEST JUMPDEST SWAP1 POP SWAP2 SWAP1 POP JUMP JUMPDEST PUSH1 0x0 PUSH2 0x6FD PUSH1 0x3 PUSH1 0x0 PUSH2 0x6D5 DUP8 DUP8 PUSH2 0x1AA3 JUMP JUMPDEST DUP2 MSTORE PUSH1 0x20 ADD SWAP1 DUP2 MSTORE PUSH1 0x20 ADD PUSH1 0x0 KECCAK256 PUSH1 0x0 ADD PUSH1 0x0 SWAP1 SLOAD SWAP1 PUSH2 0x100 EXP SWAP1 DIV PUSH1 0xFF AND PUSH1 0xFF AND DUP4 PUSH2 0x1AD6 JUMP JUMPDEST SWAP1 POP SWAP4 SWAP3 POP POP POP JUMP JUMPDEST PUSH1 0x4 PUSH1 0x20 MSTORE DUP1 PUSH1 0x0 MSTORE PUSH1 0x40 PUSH1 0x0 KECCAK256 PUSH1 0x0 SWAP2 POP SWAP1 POP DUP1 PUSH1 0x0 ADD PUSH1 0x0 SWAP1 SLOAD SWAP1 PUSH2 0x100 EXP SWAP1 DIV PUSH1 0xFF AND SWAP1 DUP1 PUSH1 0x0 ADD PUSH1 0x1 SWAP1 SLOAD SWAP1 PUSH2 0x100 EXP SWAP1 DIV PUSH23 0xFFFFFFFFFFFFFFFFFFFFFFFFFFFFFFFFFFFFFFFFFFFFFF AND SWAP1 DUP1 PUSH1 0x0 ADD PUSH1 0x18 SWAP1 SLOAD SWAP1 PUSH2 0x100 EXP SWAP1 DIV PUSH8 0xFFFFFFFFFFFFFFFF AND SWAP1 POP DUP4 JUMP JUMPDEST PUSH1 0x0 PUSH1 0x1 PUSH1 0x0 DUP4 DUP2 MSTORE PUSH1 0x20 ADD SWAP1 DUP2 MSTORE PUSH1 0x20 ADD PUSH1 0x0 KECCAK256 PUSH1 0x1 ADD SLOAD SWAP1 POP SWAP2 SWAP1 POP JUMP JUMPDEST PUSH2 0x79D DUP3 PUSH2 0x774 JUMP JUMPDEST PUSH2 0x7AE DUP2 PUSH2 0x7A9 PUSH2 0x1AEC JUMP JUMPDEST PUSH2 0x1AF4 JUMP JUMPDEST PUSH2 0x7B8 DUP4 DUP4 PUSH2 0x1B91 JUMP JUMPDEST POP POP POP JUMP JUMPDEST PUSH2 0x7C5 PUSH2 0x1AEC JUMP JUMPDEST PUSH20 0xFFFFFFFFFFFFFFFFFFFFFFFFFFFFFFFFFFFFFFFF AND DUP2 PUSH20 0xFFFFFFFFFFFFFFFFFFFFFFFFFFFFFFFFFFFFFFFF AND EQ PUSH2 0x832 JUMPI PUSH1 0x40 MLOAD PUSH32 0x8C379A000000000000000000000000000000000000000000000000000000000 DUP2 MSTORE PUSH1 0x4 ADD PUSH2 0x829 SWAP1 PUSH2 0x36C1 JUMP JUMPDEST PUSH1 0x40 MLOAD DUP1 SWAP2 SUB SWAP1 REVERT JUMPDEST PUSH2 0x83C DUP3 DUP3 PUSH2 0x1C71 JUMP JUMPDEST POP POP JUMP JUMPDEST PUSH1 0x0 PUSH2 0x851 DUP10 DUP10 DUP9 DUP9 DUP9 DUP9 DUP9 PUSH2 0x17CE JUMP JUMPDEST PUSH1 0x0 PUSH1 0x3 PUSH1 0x0 PUSH2 0x861 DUP13 DUP13 PUSH2 0x1AA3 JUMP JUMPDEST DUP2 MSTORE PUSH1 0x20 ADD SWAP1 DUP2 MSTORE PUSH1 0x20 ADD PUSH1 0x0 KECCAK256 PUSH1 0x40 MLOAD DUP1 PUSH1 0x60 ADD PUSH1 0x40 MSTORE SWAP1 DUP2 PUSH1 0x0 DUP3 ADD PUSH1 0x0 SWAP1 SLOAD SWAP1 PUSH2 0x100 EXP SWAP1 DIV PUSH1 0xFF AND PUSH1 0xFF AND PUSH1 0xFF AND DUP2 MSTORE PUSH1 0x20 ADD PUSH1 0x0 DUP3 ADD PUSH1 0x1 SWAP1 SLOAD SWAP1 PUSH2 0x100 EXP SWAP1 DIV PUSH23 0xFFFFFFFFFFFFFFFFFFFFFFFFFFFFFFFFFFFFFFFFFFFFFF AND PUSH23 0xFFFFFFFFFFFFFFFFFFFFFFFFFFFFFFFFFFFFFFFFFFFFFF AND PUSH23 0xFFFFFFFFFFFFFFFFFFFFFFFFFFFFFFFFFFFFFFFFFFFFFF AND DUP2 MSTORE PUSH1 0x20 ADD PUSH1 0x0 DUP3 ADD PUSH1 0x18 SWAP1 SLOAD SWAP1 PUSH2 0x100 EXP SWAP1 DIV PUSH8 0xFFFFFFFFFFFFFFFF AND PUSH8 0xFFFFFFFFFFFFFFFF AND PUSH8 0xFFFFFFFFFFFFFFFF AND DUP2 MSTORE POP POP SWAP1 POP PUSH2 0x938 DUP11 DUP3 PUSH1 0x40 ADD MLOAD PUSH2 0x1D53 JUMP JUMPDEST PUSH2 0x949 DUP2 PUSH1 0x0 ADD MLOAD PUSH1 0xFF AND DUP10 PUSH2 0x1AD6 JUMP JUMPDEST SWAP2 POP POP SWAP9 SWAP8 POP POP POP POP POP POP POP POP JUMP JUMPDEST PUSH1 0x0 PUSH1 0x6 PUSH1 0x0 PUSH2 0x968 DUP6 DUP6 PUSH2 0x1DEE JUMP JUMPDEST DUP2 MSTORE PUSH1 0x20 ADD SWAP1 DUP2 MSTORE PUSH1 0x20 ADD PUSH1 0x0 KECCAK256 SLOAD SWAP1 POP SWAP3 SWAP2 POP POP JUMP JUMPDEST PUSH1 0x0 DUP2 GT PUSH2 0x98C JUMPI PUSH1 0x0 DUP1 REVERT JUMPDEST PUSH1 0x0 PUSH2 0x998 DUP5 DUP5 PUSH2 0x1DEE JUMP JUMPDEST SWAP1 POP PUSH1 0x0 PUSH1 0x6 PUSH1 0x0 DUP4 DUP2 MSTORE PUSH1 0x20 ADD SWAP1 DUP2 MSTORE PUSH1 0x20 ADD PUSH1 0x0 KECCAK256 SLOAD SWAP1 POP PUSH2 0x9C7 DUP3 DUP5 DUP4 PUSH2 0x9C2 SWAP2 SWAP1 PUSH2 0x3878 JUMP JUMPDEST PUSH2 0x1E21 JUMP JUMPDEST CALLER PUSH20 0xFFFFFFFFFFFFFFFFFFFFFFFFFFFFFFFFFFFFFFFF AND DUP6 PUSH32 0x50941445D212167FF98A2FF018C9C9A3181A60E1E39CE40326F17130CA56D143 DUP7 DUP7 PUSH1 0x40 MLOAD PUSH2 0xA10 SWAP3 SWAP2 SWAP1 PUSH2 0x3445 JUMP JUMPDEST PUSH1 0x40 MLOAD DUP1 SWAP2 SUB SWAP1 LOG3 PUSH1 0x0 PUSH20 0xFFFFFFFFFFFFFFFFFFFFFFFFFFFFFFFFFFFFFFFF AND DUP5 PUSH20 0xFFFFFFFFFFFFFFFFFFFFFFFFFFFFFFFFFFFFFFFF AND EQ ISZERO PUSH2 0xA5E JUMPI DUP3 CALLVALUE EQ PUSH2 0xA59 JUMPI PUSH1 0x0 DUP1 REVERT JUMPDEST PUSH2 0xA99 JUMP JUMPDEST PUSH1 0x0 CALLVALUE EQ PUSH2 0xA6B JUMPI PUSH1 0x0 DUP1 REVERT JUMPDEST PUSH2 0xA98 CALLER ADDRESS DUP6 DUP8 PUSH20 0xFFFFFFFFFFFFFFFFFFFFFFFFFFFFFFFFFFFFFFFF AND PUSH2 0x1E3D SWAP1 SWAP4 SWAP3 SWAP2 SWAP1 PUSH4 0xFFFFFFFF AND JUMP JUMPDEST JUMPDEST POP POP POP POP POP JUMP JUMPDEST PUSH1 0x0 PUSH2 0xAAC DUP9 DUP9 PUSH2 0x1DEE JUMP JUMPDEST SWAP1 POP PUSH1 0x0 PUSH1 0x6 PUSH1 0x0 DUP4 DUP2 MSTORE PUSH1 0x20 ADD SWAP1 DUP2 MSTORE PUSH1 0x20 ADD PUSH1 0x0 KECCAK256 SLOAD SWAP1 POP PUSH2 0xB28 DUP10 PUSH1 0x40 MLOAD DUP1 PUSH1 0x40 ADD PUSH1 0x40 MSTORE DUP1 PUSH1 0x8 DUP2 MSTORE PUSH1 0x20 ADD PUSH32 0x7265706F72746572000000000000000000000000000000000000000000000000 DUP2 MSTORE POP DUP9 DUP9 PUSH1 0x40 MLOAD PUSH1 0x20 ADD PUSH2 0xB12 SWAP2 SWAP1 PUSH2 0x33F3 JUMP JUMPDEST PUSH1 0x40 MLOAD PUSH1 0x20 DUP2 DUP4 SUB SUB DUP2 MSTORE SWAP1 PUSH1 0x40 MSTORE DUP9 DUP9 PUSH2 0x1EC6 JUMP JUMPDEST PUSH2 0xB3D DUP3 DUP9 DUP4 PUSH2 0xB38 SWAP2 SWAP1 PUSH2 0x3966 JUMP JUMPDEST PUSH2 0x1E21 JUMP JUMPDEST DUP5 PUSH20 0xFFFFFFFFFFFFFFFFFFFFFFFFFFFFFFFFFFFFFFFF AND DUP10 PUSH32 0x6C3A45613039E0A1117BD6CE110AB3C920271709C010983D921A2CD268E2EA47 DUP11 DUP11 PUSH1 0x40 MLOAD PUSH2 0xB86 SWAP3 SWAP2 SWAP1 PUSH2 0x3445 JUMP JUMPDEST PUSH1 0x40 MLOAD DUP1 SWAP2 SUB SWAP1 LOG3 PUSH1 0x0 PUSH20 0xFFFFFFFFFFFFFFFFFFFFFFFFFFFFFFFFFFFFFFFF AND DUP9 PUSH20 0xFFFFFFFFFFFFFFFFFFFFFFFFFFFFFFFFFFFFFFFF AND EQ ISZERO PUSH2 0xBF1 JUMPI PUSH2 0xBEC DUP8 DUP7 PUSH20 0xFFFFFFFFFFFFFFFFFFFFFFFFFFFFFFFFFFFFFFFF AND PUSH2 0x2022 SWAP1 SWAP2 SWAP1 PUSH4 0xFFFFFFFF AND JUMP JUMPDEST PUSH2 0xC1D JUMP JUMPDEST PUSH2 0xC1C DUP6 DUP9 DUP11 PUSH20 0xFFFFFFFFFFFFFFFFFFFFFFFFFFFFFFFFFFFFFFFF AND PUSH2 0x2116 SWAP1 SWAP3 SWAP2 SWAP1 PUSH4 0xFFFFFFFF AND JUMP JUMPDEST JUMPDEST POP POP POP POP POP POP POP POP POP JUMP JUMPDEST PUSH1 0x3 PUSH1 0x20 MSTORE DUP1 PUSH1 0x0 MSTORE PUSH1 0x40 PUSH1 0x0 KECCAK256 PUSH1 0x0 SWAP2 POP SWAP1 POP DUP1 PUSH1 0x0 ADD PUSH1 0x0 SWAP1 SLOAD SWAP1 PUSH2 0x100 EXP SWAP1 DIV PUSH1 0xFF AND SWAP1 DUP1 PUSH1 0x0 ADD PUSH1 0x1 SWAP1 SLOAD SWAP1 PUSH2 0x100 EXP SWAP1 DIV PUSH23 0xFFFFFFFFFFFFFFFFFFFFFFFFFFFFFFFFFFFFFFFFFFFFFF AND SWAP1 DUP1 PUSH1 0x0 ADD PUSH1 0x18 SWAP1 SLOAD SWAP1 PUSH2 0x100 EXP SWAP1 DIV PUSH8 0xFFFFFFFFFFFFFFFF AND SWAP1 POP DUP4 JUMP JUMPDEST PUSH32 0x97667070C54EF182B0F5858B034BEAC1B6F3089AA2D3188BB1E8929F4FA9B929 PUSH2 0xCC8 DUP2 PUSH2 0xCC3 PUSH2 0x1AEC JUMP JUMPDEST PUSH2 0x1AF4 JUMP JUMPDEST PUSH1 0x0 DUP1 SHL PUSH1 0x5 PUSH1 0x0 PUSH2 0xD10 DUP7 CALLER PUSH1 0x40 MLOAD DUP1 PUSH1 0x40 ADD PUSH1 0x40 MSTORE DUP1 PUSH1 0x6 DUP2 MSTORE PUSH1 0x20 ADD PUSH32 0x7265706F72740000000000000000000000000000000000000000000000000000 DUP2 MSTORE POP PUSH2 0x219C JUMP JUMPDEST DUP2 MSTORE PUSH1 0x20 ADD SWAP1 DUP2 MSTORE PUSH1 0x20 ADD PUSH1 0x0 KECCAK256 PUSH1 0x1 ADD SLOAD EQ ISZERO PUSH2 0xD2D JUMPI PUSH1 0x0 DUP1 REVERT JUMPDEST PUSH1 0x0 DUP3 PUSH1 0xFF AND EQ ISZERO PUSH2 0xD3E JUMPI PUSH1 0x0 DUP1 REVERT JUMPDEST PUSH1 0x0 PUSH2 0xD49 TIMESTAMP PUSH2 0x21D2 JUMP JUMPDEST SWAP1 POP PUSH1 0x40 MLOAD DUP1 PUSH1 0x60 ADD PUSH1 0x40 MSTORE DUP1 DUP5 PUSH1 0xFF AND DUP2 MSTORE PUSH1 0x20 ADD PUSH1 0x0 PUSH23 0xFFFFFFFFFFFFFFFFFFFFFFFFFFFFFFFFFFFFFFFFFFFFFF AND DUP2 MSTORE PUSH1 0x20 ADD DUP3 PUSH8 0xFFFFFFFFFFFFFFFF AND DUP2 MSTORE POP PUSH1 0x3 PUSH1 0x0 PUSH2 0xD9B DUP8 CALLER PUSH2 0x1AA3 JUMP JUMPDEST DUP2 MSTORE PUSH1 0x20 ADD SWAP1 DUP2 MSTORE PUSH1 0x20 ADD PUSH1 0x0 KECCAK256 PUSH1 0x0 DUP3 ADD MLOAD DUP2 PUSH1 0x0 ADD PUSH1 0x0 PUSH2 0x100 EXP DUP2 SLOAD DUP2 PUSH1 0xFF MUL NOT AND SWAP1 DUP4 PUSH1 0xFF AND MUL OR SWAP1 SSTORE POP PUSH1 0x20 DUP3 ADD MLOAD DUP2 PUSH1 0x0 ADD PUSH1 0x1 PUSH2 0x100 EXP DUP2 SLOAD DUP2 PUSH23 0xFFFFFFFFFFFFFFFFFFFFFFFFFFFFFFFFFFFFFFFFFFFFFF MUL NOT AND SWAP1 DUP4 PUSH23 0xFFFFFFFFFFFFFFFFFFFFFFFFFFFFFFFFFFFFFFFFFFFFFF AND MUL OR SWAP1 SSTORE POP PUSH1 0x40 DUP3 ADD MLOAD DUP2 PUSH1 0x0 ADD PUSH1 0x18 PUSH2 0x100 EXP DUP2 SLOAD DUP2 PUSH8 0xFFFFFFFFFFFFFFFF MUL NOT AND SWAP1 DUP4 PUSH8 0xFFFFFFFFFFFFFFFF AND MUL OR SWAP1 SSTORE POP SWAP1 POP POP DUP4 CALLER PUSH20 0xFFFFFFFFFFFFFFFFFFFFFFFFFFFFFFFFFFFFFFFF AND PUSH32 0xBB119022CA5DEB228A464C00B50BE8A2D0DB6203DDA115464AF25FCB1D7FC741 DUP6 DUP5 PUSH1 0x40 MLOAD PUSH2 0xE92 SWAP3 SWAP2 SWAP1 PUSH2 0x3801 JUMP JUMPDEST PUSH1 0x40 MLOAD DUP1 SWAP2 SUB SWAP1 LOG3 POP POP POP POP JUMP JUMPDEST PUSH32 0x97667070C54EF182B0F5858B034BEAC1B6F3089AA2D3188BB1E8929F4FA9B929 PUSH2 0xED2 DUP2 PUSH2 0xECD PUSH2 0x1AEC JUMP JUMPDEST PUSH2 0x1AF4 JUMP JUMPDEST PUSH1 0x0 DUP1 SHL DUP3 EQ ISZERO PUSH2 0xEE2 JUMPI PUSH1 0x0 DUP1 REVERT JUMPDEST PUSH1 0x0 PUSH1 0x5 PUSH1 0x0 PUSH2 0xF37 DUP9 CALLER DUP10 DUP10 DUP1 DUP1 PUSH1 0x1F ADD PUSH1 0x20 DUP1 SWAP2 DIV MUL PUSH1 0x20 ADD PUSH1 0x40 MLOAD SWAP1 DUP2 ADD PUSH1 0x40 MSTORE DUP1 SWAP4 SWAP3 SWAP2 SWAP1 DUP2 DUP2 MSTORE PUSH1 0x20 ADD DUP4 DUP4 DUP1 DUP3 DUP5 CALLDATACOPY PUSH1 0x0 DUP2 DUP5 ADD MSTORE PUSH1 0x1F NOT PUSH1 0x1F DUP3 ADD AND SWAP1 POP DUP1 DUP4 ADD SWAP3 POP POP POP POP POP POP POP PUSH2 0x219C JUMP JUMPDEST DUP2 MSTORE PUSH1 0x20 ADD SWAP1 DUP2 MSTORE PUSH1 0x20 ADD PUSH1 0x0 KECCAK256 SWAP1 POP PUSH1 0x0 DUP2 PUSH1 0x0 ADD PUSH1 0x0 ADD PUSH1 0x18 SWAP1 SLOAD SWAP1 PUSH2 0x100 EXP SWAP1 DIV PUSH8 0xFFFFFFFFFFFFFFFF AND PUSH8 0xFFFFFFFFFFFFFFFF AND EQ DUP1 ISZERO PUSH2 0xF82 JUMPI POP PUSH1 0x0 DUP1 SHL DUP2 PUSH1 0x1 ADD SLOAD EQ JUMPDEST PUSH2 0xF8B JUMPI PUSH1 0x0 DUP1 REVERT JUMPDEST PUSH1 0x0 PUSH2 0xF96 TIMESTAMP PUSH2 0x21D2 JUMP JUMPDEST SWAP1 POP DUP4 DUP3 PUSH1 0x1 ADD DUP2 SWAP1 SSTORE POP PUSH1 0x40 MLOAD DUP1 PUSH1 0x60 ADD PUSH1 0x40 MSTORE DUP1 PUSH1 0x0 PUSH1 0xFF AND DUP2 MSTORE PUSH1 0x20 ADD PUSH1 0x0 PUSH23 0xFFFFFFFFFFFFFFFFFFFFFFFFFFFFFFFFFFFFFFFFFFFFFF AND DUP2 MSTORE PUSH1 0x20 ADD DUP3 PUSH8 0xFFFFFFFFFFFFFFFF AND DUP2 MSTORE POP DUP3 PUSH1 0x0 ADD PUSH1 0x0 DUP3 ADD MLOAD DUP2 PUSH1 0x0 ADD PUSH1 0x0 PUSH2 0x100 EXP DUP2 SLOAD DUP2 PUSH1 0xFF MUL NOT AND SWAP1 DUP4 PUSH1 0xFF AND MUL OR SWAP1 SSTORE POP PUSH1 0x20 DUP3 ADD MLOAD DUP2 PUSH1 0x0 ADD PUSH1 0x1 PUSH2 0x100 EXP DUP2 SLOAD DUP2 PUSH23 0xFFFFFFFFFFFFFFFFFFFFFFFFFFFFFFFFFFFFFFFFFFFFFF MUL NOT AND SWAP1 DUP4 PUSH23 0xFFFFFFFFFFFFFFFFFFFFFFFFFFFFFFFFFFFFFFFFFFFFFF AND MUL OR SWAP1 SSTORE POP PUSH1 0x40 DUP3 ADD MLOAD DUP2 PUSH1 0x0 ADD PUSH1 0x18 PUSH2 0x100 EXP DUP2 SLOAD DUP2 PUSH8 0xFFFFFFFFFFFFFFFF MUL NOT AND SWAP1 DUP4 PUSH8 0xFFFFFFFFFFFFFFFF AND MUL OR SWAP1 SSTORE POP SWAP1 POP POP DUP6 DUP6 PUSH1 0x40 MLOAD PUSH2 0x1098 SWAP3 SWAP2 SWAP1 PUSH2 0x338B JUMP JUMPDEST PUSH1 0x40 MLOAD DUP1 SWAP2 SUB SWAP1 KECCAK256 DUP8 CALLER PUSH20 0xFFFFFFFFFFFFFFFFFFFFFFFFFFFFFFFFFFFFFFFF AND PUSH32 0x369A3629B1E90A807362918AF20258C3524B651746847E6525B1798CCB05586F DUP5 PUSH1 0x40 MLOAD PUSH2 0x10E7 SWAP2 SWAP1 PUSH2 0x37AF JUMP JUMPDEST PUSH1 0x40 MLOAD DUP1 SWAP2 SUB SWAP1 LOG4 POP POP POP POP POP POP POP JUMP JUMPDEST PUSH1 0x6 PUSH1 0x20 MSTORE DUP1 PUSH1 0x0 MSTORE PUSH1 0x40 PUSH1 0x0 KECCAK256 PUSH1 0x0 SWAP2 POP SWAP1 POP SLOAD DUP2 JUMP JUMPDEST PUSH1 0x0 PUSH1 0x1 PUSH1 0x0 DUP5 DUP2 MSTORE PUSH1 0x20 ADD SWAP1 DUP2 MSTORE PUSH1 0x20 ADD PUSH1 0x0 KECCAK256 PUSH1 0x0 ADD PUSH1 0x0 DUP4 PUSH20 0xFFFFFFFFFFFFFFFFFFFFFFFFFFFFFFFFFFFFFFFF AND PUSH20 0xFFFFFFFFFFFFFFFFFFFFFFFFFFFFFFFFFFFFFFFF AND DUP2 MSTORE PUSH1 0x20 ADD SWAP1 DUP2 MSTORE PUSH1 0x20 ADD PUSH1 0x0 KECCAK256 PUSH1 0x0 SWAP1 SLOAD SWAP1 PUSH2 0x100 EXP SWAP1 DIV PUSH1 0xFF AND SWAP1 POP SWAP3 SWAP2 POP POP JUMP JUMPDEST PUSH1 0x5 PUSH1 0x20 MSTORE DUP1 PUSH1 0x0 MSTORE PUSH1 0x40 PUSH1 0x0 KECCAK256 PUSH1 0x0 SWAP2 POP SWAP1 POP DUP1 PUSH1 0x0 ADD PUSH1 0x40 MLOAD DUP1 PUSH1 0x60 ADD PUSH1 0x40 MSTORE SWAP1 DUP2 PUSH1 0x0 DUP3 ADD PUSH1 0x0 SWAP1 SLOAD SWAP1 PUSH2 0x100 EXP SWAP1 DIV PUSH1 0xFF AND PUSH1 0xFF AND PUSH1 0xFF AND DUP2 MSTORE PUSH1 0x20 ADD PUSH1 0x0 DUP3 ADD PUSH1 0x1 SWAP1 SLOAD SWAP1 PUSH2 0x100 EXP SWAP1 DIV PUSH23 0xFFFFFFFFFFFFFFFFFFFFFFFFFFFFFFFFFFFFFFFFFFFFFF AND PUSH23 0xFFFFFFFFFFFFFFFFFFFFFFFFFFFFFFFFFFFFFFFFFFFFFF AND PUSH23 0xFFFFFFFFFFFFFFFFFFFFFFFFFFFFFFFFFFFFFFFFFFFFFF AND DUP2 MSTORE PUSH1 0x20 ADD PUSH1 0x0 DUP3 ADD PUSH1 0x18 SWAP1 SLOAD SWAP1 PUSH2 0x100 EXP SWAP1 DIV PUSH8 0xFFFFFFFFFFFFFFFF AND PUSH8 0xFFFFFFFFFFFFFFFF AND PUSH8 0xFFFFFFFFFFFFFFFF AND DUP2 MSTORE POP POP SWAP1 DUP1 PUSH1 0x1 ADD SLOAD SWAP1 POP DUP3 JUMP JUMPDEST PUSH1 0x0 DUP1 SHL DUP2 JUMP JUMPDEST PUSH1 0x2 PUSH1 0x20 MSTORE DUP1 PUSH1 0x0 MSTORE PUSH1 0x40 PUSH1 0x0 KECCAK256 PUSH1 0x0 SWAP2 POP SWAP1 POP DUP1 PUSH1 0x0 ADD PUSH1 0x0 SWAP1 SLOAD SWAP1 PUSH2 0x100 EXP SWAP1 DIV PUSH1 0xFF AND SWAP1 DUP1 PUSH1 0x0 ADD PUSH1 0x1 SWAP1 SLOAD SWAP1 PUSH2 0x100 EXP SWAP1 DIV PUSH23 0xFFFFFFFFFFFFFFFFFFFFFFFFFFFFFFFFFFFFFFFFFFFFFF AND SWAP1 DUP1 PUSH1 0x0 ADD PUSH1 0x18 SWAP1 SLOAD SWAP1 PUSH2 0x100 EXP SWAP1 DIV PUSH8 0xFFFFFFFFFFFFFFFF AND SWAP1 POP DUP4 JUMP JUMPDEST PUSH1 0x0 DUP2 JUMP JUMPDEST PUSH1 0x0 PUSH1 0x1 SWAP1 SLOAD SWAP1 PUSH2 0x100 EXP SWAP1 DIV PUSH1 0xFF AND DUP1 PUSH2 0x12F7 JUMPI POP PUSH1 0x0 DUP1 SLOAD SWAP1 PUSH2 0x100 EXP SWAP1 DIV PUSH1 0xFF AND ISZERO JUMPDEST PUSH2 0x1336 JUMPI PUSH1 0x40 MLOAD PUSH32 0x8C379A000000000000000000000000000000000000000000000000000000000 DUP2 MSTORE PUSH1 0x4 ADD PUSH2 0x132D SWAP1 PUSH2 0x3601 JUMP JUMPDEST PUSH1 0x40 MLOAD DUP1 SWAP2 SUB SWAP1 REVERT JUMPDEST PUSH1 0x0 DUP1 PUSH1 0x1 SWAP1 SLOAD SWAP1 PUSH2 0x100 EXP SWAP1 DIV PUSH1 0xFF AND ISZERO SWAP1 POP DUP1 ISZERO PUSH2 0x1386 JUMPI PUSH1 0x1 PUSH1 0x0 PUSH1 0x1 PUSH2 0x100 EXP DUP2 SLOAD DUP2 PUSH1 0xFF MUL NOT AND SWAP1 DUP4 ISZERO ISZERO MUL OR SWAP1 SSTORE POP PUSH1 0x1 PUSH1 0x0 DUP1 PUSH2 0x100 EXP DUP2 SLOAD DUP2 PUSH1 0xFF MUL NOT AND SWAP1 DUP4 ISZERO ISZERO MUL OR SWAP1 SSTORE POP JUMPDEST PUSH2 0x1393 PUSH1 0x0 DUP1 SHL DUP4 PUSH2 0x2227 JUMP JUMPDEST PUSH2 0x13BD PUSH32 0x97667070C54EF182B0F5858B034BEAC1B6F3089AA2D3188BB1E8929F4FA9B929 DUP4 PUSH2 0x2227 JUMP JUMPDEST DUP1 ISZERO PUSH2 0x13DE JUMPI PUSH1 0x0 DUP1 PUSH1 0x1 PUSH2 0x100 EXP DUP2 SLOAD DUP2 PUSH1 0xFF MUL NOT AND SWAP1 DUP4 ISZERO ISZERO MUL OR SWAP1 SSTORE POP JUMPDEST POP POP JUMP JUMPDEST PUSH2 0x13EB DUP3 PUSH2 0x774 JUMP JUMPDEST PUSH2 0x13FC DUP2 PUSH2 0x13F7 PUSH2 0x1AEC JUMP JUMPDEST PUSH2 0x1AF4 JUMP JUMPDEST PUSH2 0x1406 DUP4 DUP4 PUSH2 0x1C71 JUMP JUMPDEST POP POP POP JUMP JUMPDEST PUSH32 0x97667070C54EF182B0F5858B034BEAC1B6F3089AA2D3188BB1E8929F4FA9B929 PUSH2 0x143D DUP2 PUSH2 0x1438 PUSH2 0x1AEC JUMP JUMPDEST PUSH2 0x1AF4 JUMP JUMPDEST PUSH1 0x0 PUSH1 0x2 PUSH1 0x0 DUP5 DUP2 MSTORE PUSH1 0x20 ADD SWAP1 DUP2 MSTORE PUSH1 0x20 ADD PUSH1 0x0 KECCAK256 PUSH1 0x0 ADD PUSH1 0x18 SWAP1 SLOAD SWAP1 PUSH2 0x100 EXP SWAP1 DIV PUSH8 0xFFFFFFFFFFFFFFFF AND PUSH8 0xFFFFFFFFFFFFFFFF AND EQ PUSH2 0x147E JUMPI PUSH1 0x0 DUP1 REVERT JUMPDEST PUSH1 0x0 PUSH2 0x1489 TIMESTAMP PUSH2 0x21D2 JUMP JUMPDEST SWAP1 POP PUSH1 0x40 MLOAD DUP1 PUSH1 0x60 ADD PUSH1 0x40 MSTORE DUP1 PUSH1 0x0 PUSH1 0xFF AND DUP2 MSTORE PUSH1 0x20 ADD PUSH1 0x0 PUSH23 0xFFFFFFFFFFFFFFFFFFFFFFFFFFFFFFFFFFFFFFFFFFFFFF AND DUP2 MSTORE PUSH1 0x20 ADD DUP3 PUSH8 0xFFFFFFFFFFFFFFFF AND DUP2 MSTORE POP PUSH1 0x2 PUSH1 0x0 DUP6 DUP2 MSTORE PUSH1 0x20 ADD SWAP1 DUP2 MSTORE PUSH1 0x20 ADD PUSH1 0x0 KECCAK256 PUSH1 0x0 DUP3 ADD MLOAD DUP2 PUSH1 0x0 ADD PUSH1 0x0 PUSH2 0x100 EXP DUP2 SLOAD DUP2 PUSH1 0xFF MUL NOT AND SWAP1 DUP4 PUSH1 0xFF AND MUL OR SWAP1 SSTORE POP PUSH1 0x20 DUP3 ADD MLOAD DUP2 PUSH1 0x0 ADD PUSH1 0x1 PUSH2 0x100 EXP DUP2 SLOAD DUP2 PUSH23 0xFFFFFFFFFFFFFFFFFFFFFFFFFFFFFFFFFFFFFFFFFFFFFF MUL NOT AND SWAP1 DUP4 PUSH23 0xFFFFFFFFFFFFFFFFFFFFFFFFFFFFFFFFFFFFFFFFFFFFFF AND MUL OR SWAP1 SSTORE POP PUSH1 0x40 DUP3 ADD MLOAD DUP2 PUSH1 0x0 ADD PUSH1 0x18 PUSH2 0x100 EXP DUP2 SLOAD DUP2 PUSH8 0xFFFFFFFFFFFFFFFF MUL NOT AND SWAP1 DUP4 PUSH8 0xFFFFFFFFFFFFFFFF AND MUL OR SWAP1 SSTORE POP SWAP1 POP POP DUP3 PUSH32 0x253C339A28E236388AA154042D109F85249AFE8CA219071E93347D732982CAC2 DUP3 PUSH1 0x40 MLOAD PUSH2 0x15B1 SWAP2 SWAP1 PUSH2 0x37AF JUMP JUMPDEST PUSH1 0x40 MLOAD DUP1 SWAP2 SUB SWAP1 LOG2 POP POP POP JUMP JUMPDEST PUSH32 0x97667070C54EF182B0F5858B034BEAC1B6F3089AA2D3188BB1E8929F4FA9B929 PUSH2 0x15F0 DUP2 PUSH2 0x15EB PUSH2 0x1AEC JUMP JUMPDEST PUSH2 0x1AF4 JUMP JUMPDEST PUSH1 0x0 PUSH1 0x4 PUSH1 0x0 PUSH2 0x1644 DUP13 DUP13 DUP13 DUP1 DUP1 PUSH1 0x1F ADD PUSH1 0x20 DUP1 SWAP2 DIV MUL PUSH1 0x20 ADD PUSH1 0x40 MLOAD SWAP1 DUP2 ADD PUSH1 0x40 MSTORE DUP1 SWAP4 SWAP3 SWAP2 SWAP1 DUP2 DUP2 MSTORE PUSH1 0x20 ADD DUP4 DUP4 DUP1 DUP3 DUP5 CALLDATACOPY PUSH1 0x0 DUP2 DUP5 ADD MSTORE PUSH1 0x1F NOT PUSH1 0x1F DUP3 ADD AND SWAP1 POP DUP1 DUP4 ADD SWAP3 POP POP POP POP POP POP POP PUSH2 0x2235 JUMP JUMPDEST DUP2 MSTORE PUSH1 0x20 ADD SWAP1 DUP2 MSTORE PUSH1 0x20 ADD PUSH1 0x0 KECCAK256 SWAP1 POP PUSH1 0x0 DUP2 PUSH1 0x0 ADD PUSH1 0x18 SWAP1 SLOAD SWAP1 PUSH2 0x100 EXP SWAP1 DIV PUSH8 0xFFFFFFFFFFFFFFFF AND PUSH8 0xFFFFFFFFFFFFFFFF AND EQ PUSH2 0x1683 JUMPI PUSH1 0x0 DUP1 REVERT JUMPDEST PUSH2 0x1719 DUP11 DUP11 DUP11 DUP1 DUP1 PUSH1 0x1F ADD PUSH1 0x20 DUP1 SWAP2 DIV MUL PUSH1 0x20 ADD PUSH1 0x40 MLOAD SWAP1 DUP2 ADD PUSH1 0x40 MSTORE DUP1 SWAP4 SWAP3 SWAP2 SWAP1 DUP2 DUP2 MSTORE PUSH1 0x20 ADD DUP4 DUP4 DUP1 DUP3 DUP5 CALLDATACOPY PUSH1 0x0 DUP2 DUP5 ADD MSTORE PUSH1 0x1F NOT PUSH1 0x1F DUP3 ADD AND SWAP1 POP DUP1 DUP4 ADD SWAP3 POP POP POP POP POP POP POP DUP10 DUP10 DUP10 DUP1 DUP1 PUSH1 0x1F ADD PUSH1 0x20 DUP1 SWAP2 DIV MUL PUSH1 0x20 ADD PUSH1 0x40 MLOAD SWAP1 DUP2 ADD PUSH1 0x40 MSTORE DUP1 SWAP4 SWAP3 SWAP2 SWAP1 DUP2 DUP2 MSTORE PUSH1 0x20 ADD DUP4 DUP4 DUP1 DUP3 DUP5 CALLDATACOPY PUSH1 0x0 DUP2 DUP5 ADD MSTORE PUSH1 0x1F NOT PUSH1 0x1F DUP3 ADD AND SWAP1 POP DUP1 DUP4 ADD SWAP3 POP POP POP POP POP POP POP DUP9 DUP9 PUSH2 0x1EC6 JUMP JUMPDEST PUSH2 0x1722 TIMESTAMP PUSH2 0x21D2 JUMP JUMPDEST DUP2 PUSH1 0x0 ADD PUSH1 0x18 PUSH2 0x100 EXP DUP2 SLOAD DUP2 PUSH8 0xFFFFFFFFFFFFFFFF MUL NOT AND SWAP1 DUP4 PUSH8 0xFFFFFFFFFFFFFFFF AND MUL OR SWAP1 SSTORE POP DUP9 DUP9 PUSH1 0x40 MLOAD PUSH2 0x175C SWAP3 SWAP2 SWAP1 PUSH2 0x338B JUMP JUMPDEST PUSH1 0x40 MLOAD DUP1 SWAP2 SUB SWAP1 KECCAK256 DUP11 PUSH32 0x2DBC7D77B34FF61AFD4AB472F9AC9CB2458609E516B9D75FC715F8A80E019DC5 DUP9 DUP9 PUSH1 0x40 MLOAD PUSH2 0x1796 SWAP3 SWAP2 SWAP1 PUSH2 0x353B JUMP JUMPDEST PUSH1 0x40 MLOAD DUP1 SWAP2 SUB SWAP1 LOG3 POP POP POP POP POP POP POP POP POP POP JUMP JUMPDEST PUSH32 0x97667070C54EF182B0F5858B034BEAC1B6F3089AA2D3188BB1E8929F4FA9B929 DUP2 JUMP JUMPDEST PUSH1 0x0 PUSH1 0x5 PUSH1 0x0 PUSH2 0x1814 DUP11 DUP11 PUSH1 0x40 MLOAD DUP1 PUSH1 0x40 ADD PUSH1 0x40 MSTORE DUP1 PUSH1 0x6 DUP2 MSTORE PUSH1 0x20 ADD PUSH32 0x7265706F72740000000000000000000000000000000000000000000000000000 DUP2 MSTORE POP PUSH2 0x219C JUMP JUMPDEST DUP2 MSTORE PUSH1 0x20 ADD SWAP1 DUP2 MSTORE PUSH1 0x20 ADD PUSH1 0x0 KECCAK256 PUSH1 0x40 MLOAD DUP1 PUSH1 0x40 ADD PUSH1 0x40 MSTORE SWAP1 DUP2 PUSH1 0x0 DUP3 ADD PUSH1 0x40 MLOAD DUP1 PUSH1 0x60 ADD PUSH1 0x40 MSTORE SWAP1 DUP2 PUSH1 0x0 DUP3 ADD PUSH1 0x0 SWAP1 SLOAD SWAP1 PUSH2 0x100 EXP SWAP1 DIV PUSH1 0xFF AND PUSH1 0xFF AND PUSH1 0xFF AND DUP2 MSTORE PUSH1 0x20 ADD PUSH1 0x0 DUP3 ADD PUSH1 0x1 SWAP1 SLOAD SWAP1 PUSH2 0x100 EXP SWAP1 DIV PUSH23 0xFFFFFFFFFFFFFFFFFFFFFFFFFFFFFFFFFFFFFFFFFFFFFF AND PUSH23 0xFFFFFFFFFFFFFFFFFFFFFFFFFFFFFFFFFFFFFFFFFFFFFF AND PUSH23 0xFFFFFFFFFFFFFFFFFFFFFFFFFFFFFFFFFFFFFFFFFFFFFF AND DUP2 MSTORE PUSH1 0x20 ADD PUSH1 0x0 DUP3 ADD PUSH1 0x18 SWAP1 SLOAD SWAP1 PUSH2 0x100 EXP SWAP1 DIV PUSH8 0xFFFFFFFFFFFFFFFF AND PUSH8 0xFFFFFFFFFFFFFFFF AND PUSH8 0xFFFFFFFFFFFFFFFF AND DUP2 MSTORE POP POP DUP2 MSTORE PUSH1 0x20 ADD PUSH1 0x1 DUP3 ADD SLOAD DUP2 MSTORE POP POP SWAP1 POP PUSH2 0x190D DUP9 DUP3 PUSH1 0x0 ADD MLOAD PUSH1 0x40 ADD MLOAD PUSH2 0x1D53 JUMP JUMPDEST PUSH1 0x0 PUSH1 0x1 DUP9 PUSH1 0x40 MLOAD DUP1 PUSH1 0x40 ADD PUSH1 0x40 MSTORE DUP1 PUSH1 0x6 DUP2 MSTORE PUSH1 0x20 ADD PUSH32 0x7265706F72740000000000000000000000000000000000000000000000000000 DUP2 MSTORE POP DUP10 PUSH1 0x40 MLOAD PUSH1 0x20 ADD PUSH2 0x195C SWAP5 SWAP4 SWAP3 SWAP2 SWAP1 PUSH2 0x3725 JUMP JUMPDEST PUSH1 0x40 MLOAD PUSH1 0x20 DUP2 DUP4 SUB SUB DUP2 MSTORE SWAP1 PUSH1 0x40 MSTORE DUP7 DUP7 PUSH1 0x40 MLOAD PUSH1 0x20 ADD PUSH2 0x197F SWAP4 SWAP3 SWAP2 SWAP1 PUSH2 0x3341 JUMP JUMPDEST PUSH1 0x40 MLOAD PUSH1 0x20 DUP2 DUP4 SUB SUB DUP2 MSTORE SWAP1 PUSH1 0x40 MSTORE DUP1 MLOAD SWAP1 PUSH1 0x20 ADD KECCAK256 SWAP1 POP DUP1 DUP3 PUSH1 0x20 ADD MLOAD EQ PUSH2 0x19A7 JUMPI PUSH1 0x0 DUP1 REVERT JUMPDEST PUSH2 0x1A2E DUP10 PUSH1 0x40 MLOAD DUP1 PUSH1 0x40 ADD PUSH1 0x40 MSTORE DUP1 PUSH1 0x6 DUP2 MSTORE PUSH1 0x20 ADD PUSH32 0x7265706F72740000000000000000000000000000000000000000000000000000 DUP2 MSTORE POP DUP10 DUP10 DUP10 DUP1 DUP1 PUSH1 0x1F ADD PUSH1 0x20 DUP1 SWAP2 DIV MUL PUSH1 0x20 ADD PUSH1 0x40 MLOAD SWAP1 DUP2 ADD PUSH1 0x40 MSTORE DUP1 SWAP4 SWAP3 SWAP2 SWAP1 DUP2 DUP2 MSTORE PUSH1 0x20 ADD DUP4 DUP4 DUP1 DUP3 DUP5 CALLDATACOPY PUSH1 0x0 DUP2 DUP5 ADD MSTORE PUSH1 0x1F NOT PUSH1 0x1F DUP3 ADD AND SWAP1 POP DUP1 DUP4 ADD SWAP3 POP POP POP POP POP POP POP DUP9 DUP9 PUSH2 0x1EC6 JUMP JUMPDEST POP POP POP POP POP POP POP POP POP JUMP JUMPDEST PUSH1 0x0 PUSH32 0x1FFC9A700000000000000000000000000000000000000000000000000000000 PUSH28 0xFFFFFFFFFFFFFFFFFFFFFFFFFFFFFFFFFFFFFFFFFFFFFFFFFFFFFFFF NOT AND DUP3 PUSH28 0xFFFFFFFFFFFFFFFFFFFFFFFFFFFFFFFFFFFFFFFFFFFFFFFFFFFFFFFF NOT AND EQ SWAP1 POP SWAP2 SWAP1 POP JUMP JUMPDEST PUSH1 0x0 DUP3 DUP3 PUSH1 0x40 MLOAD PUSH1 0x20 ADD PUSH2 0x1AB8 SWAP3 SWAP2 SWAP1 PUSH2 0x34A4 JUMP JUMPDEST PUSH1 0x40 MLOAD PUSH1 0x20 DUP2 DUP4 SUB SUB DUP2 MSTORE SWAP1 PUSH1 0x40 MSTORE DUP1 MLOAD SWAP1 PUSH1 0x20 ADD KECCAK256 SWAP1 POP SWAP3 SWAP2 POP POP JUMP JUMPDEST PUSH1 0x0 PUSH1 0x1 DUP1 DUP4 PUSH1 0xFF AND DUP6 SWAP1 SHR AND EQ SWAP1 POP SWAP3 SWAP2 POP POP JUMP JUMPDEST PUSH1 0x0 CALLER SWAP1 POP SWAP1 JUMP JUMPDEST PUSH2 0x1AFE DUP3 DUP3 PUSH2 0x1110 JUMP JUMPDEST PUSH2 0x1B8D JUMPI PUSH2 0x1B23 DUP2 PUSH20 0xFFFFFFFFFFFFFFFFFFFFFFFFFFFFFFFFFFFFFFFF AND PUSH1 0x14 PUSH2 0x2268 JUMP JUMPDEST PUSH2 0x1B31 DUP4 PUSH1 0x0 SHR PUSH1 0x20 PUSH2 0x2268 JUMP JUMPDEST PUSH1 0x40 MLOAD PUSH1 0x20 ADD PUSH2 0x1B42 SWAP3 SWAP2 SWAP1 PUSH2 0x33B9 JUMP JUMPDEST PUSH1 0x40 MLOAD PUSH1 0x20 DUP2 DUP4 SUB SUB DUP2 MSTORE SWAP1 PUSH1 0x40 MSTORE PUSH1 0x40 MLOAD PUSH32 0x8C379A000000000000000000000000000000000000000000000000000000000 DUP2 MSTORE PUSH1 0x4 ADD PUSH2 0x1B84 SWAP2 SWAP1 PUSH2 0x355F JUMP JUMPDEST PUSH1 0x40 MLOAD DUP1 SWAP2 SUB SWAP1 REVERT JUMPDEST POP POP JUMP JUMPDEST PUSH2 0x1B9B DUP3 DUP3 PUSH2 0x1110 JUMP JUMPDEST PUSH2 0x1C6D JUMPI PUSH1 0x1 DUP1 PUSH1 0x0 DUP5 DUP2 MSTORE PUSH1 0x20 ADD SWAP1 DUP2 MSTORE PUSH1 0x20 ADD PUSH1 0x0 KECCAK256 PUSH1 0x0 ADD PUSH1 0x0 DUP4 PUSH20 0xFFFFFFFFFFFFFFFFFFFFFFFFFFFFFFFFFFFFFFFF AND PUSH20 0xFFFFFFFFFFFFFFFFFFFFFFFFFFFFFFFFFFFFFFFF AND DUP2 MSTORE PUSH1 0x20 ADD SWAP1 DUP2 MSTORE PUSH1 0x20 ADD PUSH1 0x0 KECCAK256 PUSH1 0x0 PUSH2 0x100 EXP DUP2 SLOAD DUP2 PUSH1 0xFF MUL NOT AND SWAP1 DUP4 ISZERO ISZERO MUL OR SWAP1 SSTORE POP PUSH2 0x1C12 PUSH2 0x1AEC JUMP JUMPDEST PUSH20 0xFFFFFFFFFFFFFFFFFFFFFFFFFFFFFFFFFFFFFFFF AND DUP2 PUSH20 0xFFFFFFFFFFFFFFFFFFFFFFFFFFFFFFFFFFFFFFFF AND DUP4 PUSH32 0x2F8788117E7EFF1D82E926EC794901D17C78024A50270940304540A733656F0D PUSH1 0x40 MLOAD PUSH1 0x40 MLOAD DUP1 SWAP2 SUB SWAP1 LOG4 JUMPDEST POP POP JUMP JUMPDEST PUSH2 0x1C7B DUP3 DUP3 PUSH2 0x1110 JUMP JUMPDEST ISZERO PUSH2 0x1D4F JUMPI PUSH1 0x0 PUSH1 0x1 PUSH1 0x0 DUP5 DUP2 MSTORE PUSH1 0x20 ADD SWAP1 DUP2 MSTORE PUSH1 0x20 ADD PUSH1 0x0 KECCAK256 PUSH1 0x0 ADD PUSH1 0x0 DUP4 PUSH20 0xFFFFFFFFFFFFFFFFFFFFFFFFFFFFFFFFFFFFFFFF AND PUSH20 0xFFFFFFFFFFFFFFFFFFFFFFFFFFFFFFFFFFFFFFFF AND DUP2 MSTORE PUSH1 0x20 ADD SWAP1 DUP2 MSTORE PUSH1 0x20 ADD PUSH1 0x0 KECCAK256 PUSH1 0x0 PUSH2 0x100 EXP DUP2 SLOAD DUP2 PUSH1 0xFF MUL NOT AND SWAP1 DUP4 ISZERO ISZERO MUL OR SWAP1 SSTORE POP PUSH2 0x1CF4 PUSH2 0x1AEC JUMP JUMPDEST PUSH20 0xFFFFFFFFFFFFFFFFFFFFFFFFFFFFFFFFFFFFFFFF AND DUP2 PUSH20 0xFFFFFFFFFFFFFFFFFFFFFFFFFFFFFFFFFFFFFFFF AND DUP4 PUSH32 0xF6391F5C32D9C69D2A47EA670B442974B53935D1EDC7FD64EB21E047A839171B PUSH1 0x40 MLOAD PUSH1 0x40 MLOAD DUP1 SWAP2 SUB SWAP1 LOG4 JUMPDEST POP POP JUMP JUMPDEST PUSH1 0x4 PUSH1 0x0 PUSH2 0x1D96 DUP5 PUSH1 0x40 MLOAD DUP1 PUSH1 0x40 ADD PUSH1 0x40 MSTORE DUP1 PUSH1 0x6 DUP2 MSTORE PUSH1 0x20 ADD PUSH32 0x7265706F72740000000000000000000000000000000000000000000000000000 DUP2 MSTORE POP PUSH2 0x2235 JUMP JUMPDEST DUP2 MSTORE PUSH1 0x20 ADD SWAP1 DUP2 MSTORE PUSH1 0x20 ADD PUSH1 0x0 KECCAK256 PUSH1 0x0 ADD PUSH1 0x18 SWAP1 SLOAD SWAP1 PUSH2 0x100 EXP SWAP1 DIV PUSH8 0xFFFFFFFFFFFFFFFF AND PUSH8 0xFFFFFFFFFFFFFFFF AND PUSH3 0x15180 DUP3 PUSH2 0x1DD5 SWAP2 SWAP1 PUSH2 0x38CE JUMP JUMPDEST PUSH8 0xFFFFFFFFFFFFFFFF AND GT ISZERO PUSH2 0x1DEA JUMPI PUSH1 0x0 DUP1 REVERT JUMPDEST POP POP JUMP JUMPDEST PUSH1 0x0 DUP3 DUP3 PUSH1 0x40 MLOAD PUSH1 0x20 ADD PUSH2 0x1E03 SWAP3 SWAP2 SWAP1 PUSH2 0x34A4 JUMP JUMPDEST PUSH1 0x40 MLOAD PUSH1 0x20 DUP2 DUP4 SUB SUB DUP2 MSTORE SWAP1 PUSH1 0x40 MSTORE DUP1 MLOAD SWAP1 PUSH1 0x20 ADD KECCAK256 SWAP1 POP SWAP3 SWAP2 POP POP JUMP JUMPDEST DUP1 PUSH1 0x6 PUSH1 0x0 DUP5 DUP2 MSTORE PUSH1 0x20 ADD SWAP1 DUP2 MSTORE PUSH1 0x20 ADD PUSH1 0x0 KECCAK256 DUP2 SWAP1 SSTORE POP POP POP JUMP JUMPDEST PUSH2 0x1EC0 DUP5 PUSH4 0x23B872DD PUSH1 0xE0 SHL DUP6 DUP6 DUP6 PUSH1 0x40 MLOAD PUSH1 0x24 ADD PUSH2 0x1E5E SWAP4 SWAP3 SWAP2 SWAP1 PUSH2 0x340E JUMP JUMPDEST PUSH1 0x40 MLOAD PUSH1 0x20 DUP2 DUP4 SUB SUB DUP2 MSTORE SWAP1 PUSH1 0x40 MSTORE SWAP1 PUSH28 0xFFFFFFFFFFFFFFFFFFFFFFFFFFFFFFFFFFFFFFFFFFFFFFFFFFFFFFFF NOT AND PUSH1 0x20 DUP3 ADD DUP1 MLOAD PUSH28 0xFFFFFFFFFFFFFFFFFFFFFFFFFFFFFFFFFFFFFFFFFFFFFFFFFFFFFFFF DUP4 DUP2 DUP4 AND OR DUP4 MSTORE POP POP POP POP PUSH2 0x2562 JUMP JUMPDEST POP POP POP POP JUMP JUMPDEST PUSH1 0x0 PUSH1 0x2 PUSH1 0x0 DUP9 DUP2 MSTORE PUSH1 0x20 ADD SWAP1 DUP2 MSTORE PUSH1 0x20 ADD PUSH1 0x0 KECCAK256 PUSH1 0x0 ADD PUSH1 0x18 SWAP1 SLOAD SWAP1 PUSH2 0x100 EXP SWAP1 DIV PUSH8 0xFFFFFFFFFFFFFFFF AND PUSH8 0xFFFFFFFFFFFFFFFF AND EQ ISZERO PUSH2 0x1F3E JUMPI PUSH1 0x40 MLOAD PUSH32 0x8C379A000000000000000000000000000000000000000000000000000000000 DUP2 MSTORE PUSH1 0x4 ADD PUSH2 0x1F35 SWAP1 PUSH2 0x3621 JUMP JUMPDEST PUSH1 0x40 MLOAD DUP1 SWAP2 SUB SWAP1 REVERT JUMPDEST PUSH1 0x0 DUP1 DUP7 DUP7 PUSH1 0x40 MLOAD PUSH1 0x20 ADD PUSH2 0x1F55 SWAP4 SWAP3 SWAP2 SWAP1 PUSH2 0x3771 JUMP JUMPDEST PUSH1 0x40 MLOAD PUSH1 0x20 DUP2 DUP4 SUB SUB DUP2 MSTORE SWAP1 PUSH1 0x40 MSTORE DUP5 PUSH1 0x40 MLOAD PUSH1 0x20 ADD PUSH2 0x1F76 SWAP3 SWAP2 SWAP1 PUSH2 0x3367 JUMP JUMPDEST PUSH1 0x40 MLOAD PUSH1 0x20 DUP2 DUP4 SUB SUB DUP2 MSTORE SWAP1 PUSH1 0x40 MSTORE DUP1 MLOAD SWAP1 PUSH1 0x20 ADD KECCAK256 SWAP1 POP PUSH2 0x1FDA DUP4 DUP4 DUP1 DUP1 PUSH1 0x20 MUL PUSH1 0x20 ADD PUSH1 0x40 MLOAD SWAP1 DUP2 ADD PUSH1 0x40 MSTORE DUP1 SWAP4 SWAP3 SWAP2 SWAP1 DUP2 DUP2 MSTORE PUSH1 0x20 ADD DUP4 DUP4 PUSH1 0x20 MUL DUP1 DUP3 DUP5 CALLDATACOPY PUSH1 0x0 DUP2 DUP5 ADD MSTORE PUSH1 0x1F NOT PUSH1 0x1F DUP3 ADD AND SWAP1 POP DUP1 DUP4 ADD SWAP3 POP POP POP POP POP POP POP DUP9 DUP4 PUSH2 0x2629 JUMP JUMPDEST PUSH2 0x2019 JUMPI PUSH1 0x40 MLOAD PUSH32 0x8C379A000000000000000000000000000000000000000000000000000000000 DUP2 MSTORE PUSH1 0x4 ADD PUSH2 0x2010 SWAP1 PUSH2 0x3681 JUMP JUMPDEST PUSH1 0x40 MLOAD DUP1 SWAP2 SUB SWAP1 REVERT JUMPDEST POP POP POP POP POP POP POP JUMP JUMPDEST DUP1 SELFBALANCE LT ISZERO PUSH2 0x2065 JUMPI PUSH1 0x40 MLOAD PUSH32 0x8C379A000000000000000000000000000000000000000000000000000000000 DUP2 MSTORE PUSH1 0x4 ADD PUSH2 0x205C SWAP1 PUSH2 0x35C1 JUMP JUMPDEST PUSH1 0x40 MLOAD DUP1 SWAP2 SUB SWAP1 REVERT JUMPDEST PUSH1 0x0 DUP3 PUSH20 0xFFFFFFFFFFFFFFFFFFFFFFFFFFFFFFFFFFFFFFFF AND DUP3 PUSH1 0x40 MLOAD PUSH2 0x208B SWAP1 PUSH2 0x33A4 JUMP JUMPDEST PUSH1 0x0 PUSH1 0x40 MLOAD DUP1 DUP4 SUB DUP2 DUP6 DUP8 GAS CALL SWAP3 POP POP POP RETURNDATASIZE DUP1 PUSH1 0x0 DUP2 EQ PUSH2 0x20C8 JUMPI PUSH1 0x40 MLOAD SWAP2 POP PUSH1 0x1F NOT PUSH1 0x3F RETURNDATASIZE ADD AND DUP3 ADD PUSH1 0x40 MSTORE RETURNDATASIZE DUP3 MSTORE RETURNDATASIZE PUSH1 0x0 PUSH1 0x20 DUP5 ADD RETURNDATACOPY PUSH2 0x20CD JUMP JUMPDEST PUSH1 0x60 SWAP2 POP JUMPDEST POP POP SWAP1 POP DUP1 PUSH2 0x2111 JUMPI PUSH1 0x40 MLOAD PUSH32 0x8C379A000000000000000000000000000000000000000000000000000000000 DUP2 MSTORE PUSH1 0x4 ADD PUSH2 0x2108 SWAP1 PUSH2 0x35A1 JUMP JUMPDEST PUSH1 0x40 MLOAD DUP1 SWAP2 SUB SWAP1 REVERT JUMPDEST POP POP POP JUMP JUMPDEST PUSH2 0x2197 DUP4 PUSH4 0xA9059CBB PUSH1 0xE0 SHL DUP5 DUP5 PUSH1 0x40 MLOAD PUSH1 0x24 ADD PUSH2 0x2135 SWAP3 SWAP2 SWAP1 PUSH2 0x3445 JUMP JUMPDEST PUSH1 0x40 MLOAD PUSH1 0x20 DUP2 DUP4 SUB SUB DUP2 MSTORE SWAP1 PUSH1 0x40 MSTORE SWAP1 PUSH28 0xFFFFFFFFFFFFFFFFFFFFFFFFFFFFFFFFFFFFFFFFFFFFFFFFFFFFFFFF NOT AND PUSH1 0x20 DUP3 ADD DUP1 MLOAD PUSH28 0xFFFFFFFFFFFFFFFFFFFFFFFFFFFFFFFFFFFFFFFFFFFFFFFFFFFFFFFF DUP4 DUP2 DUP4 AND OR DUP4 MSTORE POP POP POP POP PUSH2 0x2562 JUMP JUMPDEST POP POP POP JUMP JUMPDEST PUSH1 0x0 DUP4 DUP4 DUP4 PUSH1 0x40 MLOAD PUSH1 0x20 ADD PUSH2 0x21B3 SWAP4 SWAP3 SWAP2 SWAP1 PUSH2 0x34CD JUMP JUMPDEST PUSH1 0x40 MLOAD PUSH1 0x20 DUP2 DUP4 SUB SUB DUP2 MSTORE SWAP1 PUSH1 0x40 MSTORE DUP1 MLOAD SWAP1 PUSH1 0x20 ADD KECCAK256 SWAP1 POP SWAP4 SWAP3 POP POP POP JUMP JUMPDEST PUSH1 0x0 PUSH9 0x10000000000000000 DUP3 LT PUSH2 0x221F JUMPI PUSH1 0x40 MLOAD PUSH32 0x8C379A000000000000000000000000000000000000000000000000000000000 DUP2 MSTORE PUSH1 0x4 ADD PUSH2 0x2216 SWAP1 PUSH2 0x3641 JUMP JUMPDEST PUSH1 0x40 MLOAD DUP1 SWAP2 SUB SWAP1 REVERT JUMPDEST DUP2 SWAP1 POP SWAP2 SWAP1 POP JUMP JUMPDEST PUSH2 0x2231 DUP3 DUP3 PUSH2 0x1B91 JUMP JUMPDEST POP POP JUMP JUMPDEST PUSH1 0x0 DUP3 DUP3 PUSH1 0x40 MLOAD PUSH1 0x20 ADD PUSH2 0x224A SWAP3 SWAP2 SWAP1 PUSH2 0x350B JUMP JUMPDEST PUSH1 0x40 MLOAD PUSH1 0x20 DUP2 DUP4 SUB SUB DUP2 MSTORE SWAP1 PUSH1 0x40 MSTORE DUP1 MLOAD SWAP1 PUSH1 0x20 ADD KECCAK256 SWAP1 POP SWAP3 SWAP2 POP POP JUMP JUMPDEST PUSH1 0x60 PUSH1 0x0 PUSH1 0x2 DUP4 PUSH1 0x2 PUSH2 0x227B SWAP2 SWAP1 PUSH2 0x390C JUMP JUMPDEST PUSH2 0x2285 SWAP2 SWAP1 PUSH2 0x3878 JUMP JUMPDEST PUSH8 0xFFFFFFFFFFFFFFFF DUP2 GT ISZERO PUSH2 0x22C4 JUMPI PUSH32 0x4E487B7100000000000000000000000000000000000000000000000000000000 PUSH1 0x0 MSTORE PUSH1 0x41 PUSH1 0x4 MSTORE PUSH1 0x24 PUSH1 0x0 REVERT JUMPDEST PUSH1 0x40 MLOAD SWAP1 DUP1 DUP3 MSTORE DUP1 PUSH1 0x1F ADD PUSH1 0x1F NOT AND PUSH1 0x20 ADD DUP3 ADD PUSH1 0x40 MSTORE DUP1 ISZERO PUSH2 0x22F6 JUMPI DUP2 PUSH1 0x20 ADD PUSH1 0x1 DUP3 MUL DUP1 CALLDATASIZE DUP4 CALLDATACOPY DUP1 DUP3 ADD SWAP2 POP POP SWAP1 POP JUMPDEST POP SWAP1 POP PUSH32 0x3000000000000000000000000000000000000000000000000000000000000000 DUP2 PUSH1 0x0 DUP2 MLOAD DUP2 LT PUSH2 0x2354 JUMPI PUSH32 0x4E487B7100000000000000000000000000000000000000000000000000000000 PUSH1 0x0 MSTORE PUSH1 0x32 PUSH1 0x4 MSTORE PUSH1 0x24 PUSH1 0x0 REVERT JUMPDEST PUSH1 0x20 ADD ADD SWAP1 PUSH31 0xFFFFFFFFFFFFFFFFFFFFFFFFFFFFFFFFFFFFFFFFFFFFFFFFFFFFFFFFFFFFFF NOT AND SWAP1 DUP2 PUSH1 0x0 BYTE SWAP1 MSTORE8 POP PUSH32 0x7800000000000000000000000000000000000000000000000000000000000000 DUP2 PUSH1 0x1 DUP2 MLOAD DUP2 LT PUSH2 0x23DE JUMPI PUSH32 0x4E487B7100000000000000000000000000000000000000000000000000000000 PUSH1 0x0 MSTORE PUSH1 0x32 PUSH1 0x4 MSTORE PUSH1 0x24 PUSH1 0x0 REVERT JUMPDEST PUSH1 0x20 ADD ADD SWAP1 PUSH31 0xFFFFFFFFFFFFFFFFFFFFFFFFFFFFFFFFFFFFFFFFFFFFFFFFFFFFFFFFFFFFFF NOT AND SWAP1 DUP2 PUSH1 0x0 BYTE SWAP1 MSTORE8 POP PUSH1 0x0 PUSH1 0x1 DUP5 PUSH1 0x2 PUSH2 0x241E SWAP2 SWAP1 PUSH2 0x390C JUMP JUMPDEST PUSH2 0x2428 SWAP2 SWAP1 PUSH2 0x3878 JUMP JUMPDEST SWAP1 POP JUMPDEST PUSH1 0x1 DUP2 GT ISZERO PUSH2 0x2514 JUMPI PUSH32 0x3031323334353637383961626364656600000000000000000000000000000000 PUSH1 0xF DUP7 AND PUSH1 0x10 DUP2 LT PUSH2 0x2490 JUMPI PUSH32 0x4E487B7100000000000000000000000000000000000000000000000000000000 PUSH1 0x0 MSTORE PUSH1 0x32 PUSH1 0x4 MSTORE PUSH1 0x24 PUSH1 0x0 REVERT JUMPDEST BYTE PUSH1 0xF8 SHL DUP3 DUP3 DUP2 MLOAD DUP2 LT PUSH2 0x24CD JUMPI PUSH32 0x4E487B7100000000000000000000000000000000000000000000000000000000 PUSH1 0x0 MSTORE PUSH1 0x32 PUSH1 0x4 MSTORE PUSH1 0x24 PUSH1 0x0 REVERT JUMPDEST PUSH1 0x20 ADD ADD SWAP1 PUSH31 0xFFFFFFFFFFFFFFFFFFFFFFFFFFFFFFFFFFFFFFFFFFFFFFFFFFFFFFFFFFFFFF NOT AND SWAP1 DUP2 PUSH1 0x0 BYTE SWAP1 MSTORE8 POP PUSH1 0x4 DUP6 SWAP1 SHR SWAP5 POP DUP1 PUSH2 0x250D SWAP1 PUSH2 0x3A9E JUMP JUMPDEST SWAP1 POP PUSH2 0x242B JUMP JUMPDEST POP PUSH1 0x0 DUP5 EQ PUSH2 0x2558 JUMPI PUSH1 0x40 MLOAD PUSH32 0x8C379A000000000000000000000000000000000000000000000000000000000 DUP2 MSTORE PUSH1 0x4 ADD PUSH2 0x254F SWAP1 PUSH2 0x3581 JUMP JUMPDEST PUSH1 0x40 MLOAD DUP1 SWAP2 SUB SWAP1 REVERT JUMPDEST DUP1 SWAP2 POP POP SWAP3 SWAP2 POP POP JUMP JUMPDEST PUSH1 0x0 PUSH2 0x25C4 DUP3 PUSH1 0x40 MLOAD DUP1 PUSH1 0x40 ADD PUSH1 0x40 MSTORE DUP1 PUSH1 0x20 DUP2 MSTORE PUSH1 0x20 ADD PUSH32 0x5361666545524332303A206C6F772D6C6576656C2063616C6C206661696C6564 DUP2 MSTORE POP DUP6 PUSH20 0xFFFFFFFFFFFFFFFFFFFFFFFFFFFFFFFFFFFFFFFF AND PUSH2 0x2705 SWAP1 SWAP3 SWAP2 SWAP1 PUSH4 0xFFFFFFFF AND JUMP JUMPDEST SWAP1 POP PUSH1 0x0 DUP2 MLOAD GT ISZERO PUSH2 0x2624 JUMPI DUP1 DUP1 PUSH1 0x20 ADD SWAP1 MLOAD DUP2 ADD SWAP1 PUSH2 0x25E4 SWAP2 SWAP1 PUSH2 0x2A30 JUMP JUMPDEST PUSH2 0x2623 JUMPI PUSH1 0x40 MLOAD PUSH32 0x8C379A000000000000000000000000000000000000000000000000000000000 DUP2 MSTORE PUSH1 0x4 ADD PUSH2 0x261A SWAP1 PUSH2 0x36A1 JUMP JUMPDEST PUSH1 0x40 MLOAD DUP1 SWAP2 SUB SWAP1 REVERT JUMPDEST JUMPDEST POP POP POP JUMP JUMPDEST PUSH1 0x0 DUP1 DUP3 SWAP1 POP PUSH1 0x0 JUMPDEST DUP6 MLOAD DUP2 LT ISZERO PUSH2 0x26F7 JUMPI PUSH1 0x0 DUP7 DUP3 DUP2 MLOAD DUP2 LT PUSH2 0x2676 JUMPI PUSH32 0x4E487B7100000000000000000000000000000000000000000000000000000000 PUSH1 0x0 MSTORE PUSH1 0x32 PUSH1 0x4 MSTORE PUSH1 0x24 PUSH1 0x0 REVERT JUMPDEST PUSH1 0x20 MUL PUSH1 0x20 ADD ADD MLOAD SWAP1 POP DUP1 DUP4 GT PUSH2 0x26B7 JUMPI DUP3 DUP2 PUSH1 0x40 MLOAD PUSH1 0x20 ADD PUSH2 0x269A SWAP3 SWAP2 SWAP1 PUSH2 0x32FE JUMP JUMPDEST PUSH1 0x40 MLOAD PUSH1 0x20 DUP2 DUP4 SUB SUB DUP2 MSTORE SWAP1 PUSH1 0x40 MSTORE DUP1 MLOAD SWAP1 PUSH1 0x20 ADD KECCAK256 SWAP3 POP PUSH2 0x26E3 JUMP JUMPDEST DUP1 DUP4 PUSH1 0x40 MLOAD PUSH1 0x20 ADD PUSH2 0x26CA SWAP3 SWAP2 SWAP1 PUSH2 0x32FE JUMP JUMPDEST PUSH1 0x40 MLOAD PUSH1 0x20 DUP2 DUP4 SUB SUB DUP2 MSTORE SWAP1 PUSH1 0x40 MSTORE DUP1 MLOAD SWAP1 PUSH1 0x20 ADD KECCAK256 SWAP3 POP JUMPDEST POP DUP1 DUP1 PUSH2 0x26EF SWAP1 PUSH2 0x3AC8 JUMP JUMPDEST SWAP2 POP POP PUSH2 0x2632 JUMP JUMPDEST POP DUP4 DUP2 EQ SWAP2 POP POP SWAP4 SWAP3 POP POP POP JUMP JUMPDEST PUSH1 0x60 PUSH2 0x2714 DUP5 DUP5 PUSH1 0x0 DUP6 PUSH2 0x271D JUMP JUMPDEST SWAP1 POP SWAP4 SWAP3 POP POP POP JUMP JUMPDEST PUSH1 0x60 DUP3 SELFBALANCE LT ISZERO PUSH2 0x2762 JUMPI PUSH1 0x40 MLOAD PUSH32 0x8C379A000000000000000000000000000000000000000000000000000000000 DUP2 MSTORE PUSH1 0x4 ADD PUSH2 0x2759 SWAP1 PUSH2 0x35E1 JUMP JUMPDEST PUSH1 0x40 MLOAD DUP1 SWAP2 SUB SWAP1 REVERT JUMPDEST PUSH2 0x276B DUP6 PUSH2 0x2831 JUMP JUMPDEST PUSH2 0x27AA JUMPI PUSH1 0x40 MLOAD PUSH32 0x8C379A000000000000000000000000000000000000000000000000000000000 DUP2 MSTORE PUSH1 0x4 ADD PUSH2 0x27A1 SWAP1 PUSH2 0x3661 JUMP JUMPDEST PUSH1 0x40 MLOAD DUP1 SWAP2 SUB SWAP1 REVERT JUMPDEST PUSH1 0x0 DUP1 DUP7 PUSH20 0xFFFFFFFFFFFFFFFFFFFFFFFFFFFFFFFFFFFFFFFF AND DUP6 DUP8 PUSH1 0x40 MLOAD PUSH2 0x27D3 SWAP2 SWAP1 PUSH2 0x332A JUMP JUMPDEST PUSH1 0x0 PUSH1 0x40 MLOAD DUP1 DUP4 SUB DUP2 DUP6 DUP8 GAS CALL SWAP3 POP POP POP RETURNDATASIZE DUP1 PUSH1 0x0 DUP2 EQ PUSH2 0x2810 JUMPI PUSH1 0x40 MLOAD SWAP2 POP PUSH1 0x1F NOT PUSH1 0x3F RETURNDATASIZE ADD AND DUP3 ADD PUSH1 0x40 MSTORE RETURNDATASIZE DUP3 MSTORE RETURNDATASIZE PUSH1 0x0 PUSH1 0x20 DUP5 ADD RETURNDATACOPY PUSH2 0x2815 JUMP JUMPDEST PUSH1 0x60 SWAP2 POP JUMPDEST POP SWAP2 POP SWAP2 POP PUSH2 0x2825 DUP3 DUP3 DUP7 PUSH2 0x2844 JUMP JUMPDEST SWAP3 POP POP POP SWAP5 SWAP4 POP POP POP POP JUMP JUMPDEST PUSH1 0x0 DUP1 DUP3 EXTCODESIZE SWAP1 POP PUSH1 0x0 DUP2 GT SWAP2 POP POP SWAP2 SWAP1 POP JUMP JUMPDEST PUSH1 0x60 DUP4 ISZERO PUSH2 0x2854 JUMPI DUP3 SWAP1 POP PUSH2 0x28A4 JUMP JUMPDEST PUSH1 0x0 DUP4 MLOAD GT ISZERO PUSH2 0x2867 JUMPI DUP3 MLOAD DUP1 DUP5 PUSH1 0x20 ADD REVERT JUMPDEST DUP2 PUSH1 0x40 MLOAD PUSH32 0x8C379A000000000000000000000000000000000000000000000000000000000 DUP2 MSTORE PUSH1 0x4 ADD PUSH2 0x289B SWAP2 SWAP1 PUSH2 0x355F JUMP JUMPDEST PUSH1 0x40 MLOAD DUP1 SWAP2 SUB SWAP1 REVERT JUMPDEST SWAP4 SWAP3 POP POP POP JUMP JUMPDEST PUSH1 0x0 DUP2 CALLDATALOAD SWAP1 POP PUSH2 0x28BA DUP2 PUSH2 0x3EA3 JUMP JUMPDEST SWAP3 SWAP2 POP POP JUMP JUMPDEST PUSH1 0x0 DUP1 DUP4 PUSH1 0x1F DUP5 ADD SLT PUSH2 0x28D2 JUMPI PUSH1 0x0 DUP1 REVERT JUMPDEST DUP3 CALLDATALOAD SWAP1 POP PUSH8 0xFFFFFFFFFFFFFFFF DUP2 GT ISZERO PUSH2 0x28EB JUMPI PUSH1 0x0 DUP1 REVERT JUMPDEST PUSH1 0x20 DUP4 ADD SWAP2 POP DUP4 PUSH1 0x20 DUP3 MUL DUP4 ADD GT ISZERO PUSH2 0x2903 JUMPI PUSH1 0x0 DUP1 REVERT JUMPDEST SWAP3 POP SWAP3 SWAP1 POP JUMP JUMPDEST PUSH1 0x0 DUP2 MLOAD SWAP1 POP PUSH2 0x2919 DUP2 PUSH2 0x3EBA JUMP JUMPDEST SWAP3 SWAP2 POP POP JUMP JUMPDEST PUSH1 0x0 DUP2 CALLDATALOAD SWAP1 POP PUSH2 0x292E DUP2 PUSH2 0x3ED1 JUMP JUMPDEST SWAP3 SWAP2 POP POP JUMP JUMPDEST PUSH1 0x0 DUP2 CALLDATALOAD SWAP1 POP PUSH2 0x2943 DUP2 PUSH2 0x3EE8 JUMP JUMPDEST SWAP3 SWAP2 POP POP JUMP JUMPDEST PUSH1 0x0 DUP1 DUP4 PUSH1 0x1F DUP5 ADD SLT PUSH2 0x295B JUMPI PUSH1 0x0 DUP1 REVERT JUMPDEST DUP3 CALLDATALOAD SWAP1 POP PUSH8 0xFFFFFFFFFFFFFFFF DUP2 GT ISZERO PUSH2 0x2974 JUMPI PUSH1 0x0 DUP1 REVERT JUMPDEST PUSH1 0x20 DUP4 ADD SWAP2 POP DUP4 PUSH1 0x1 DUP3 MUL DUP4 ADD GT ISZERO PUSH2 0x298C JUMPI PUSH1 0x0 DUP1 REVERT JUMPDEST SWAP3 POP SWAP3 SWAP1 POP JUMP JUMPDEST PUSH1 0x0 DUP1 DUP4 PUSH1 0x1F DUP5 ADD SLT PUSH2 0x29A5 JUMPI PUSH1 0x0 DUP1 REVERT JUMPDEST DUP3 CALLDATALOAD SWAP1 POP PUSH8 0xFFFFFFFFFFFFFFFF DUP2 GT ISZERO PUSH2 0x29BE JUMPI PUSH1 0x0 DUP1 REVERT JUMPDEST PUSH1 0x20 DUP4 ADD SWAP2 POP DUP4 PUSH1 0x1 DUP3 MUL DUP4 ADD GT ISZERO PUSH2 0x29D6 JUMPI PUSH1 0x0 DUP1 REVERT JUMPDEST SWAP3 POP SWAP3 SWAP1 POP JUMP JUMPDEST PUSH1 0x0 DUP2 CALLDATALOAD SWAP1 POP PUSH2 0x29EC DUP2 PUSH2 0x3EFF JUMP JUMPDEST SWAP3 SWAP2 POP POP JUMP JUMPDEST PUSH1 0x0 DUP2 CALLDATALOAD SWAP1 POP PUSH2 0x2A01 DUP2 PUSH2 0x3F16 JUMP JUMPDEST SWAP3 SWAP2 POP POP JUMP JUMPDEST PUSH1 0x0 PUSH1 0x20 DUP3 DUP5 SUB SLT ISZERO PUSH2 0x2A19 JUMPI PUSH1 0x0 DUP1 REVERT JUMPDEST PUSH1 0x0 PUSH2 0x2A27 DUP5 DUP3 DUP6 ADD PUSH2 0x28AB JUMP JUMPDEST SWAP2 POP POP SWAP3 SWAP2 POP POP JUMP JUMPDEST PUSH1 0x0 PUSH1 0x20 DUP3 DUP5 SUB SLT ISZERO PUSH2 0x2A42 JUMPI PUSH1 0x0 DUP1 REVERT JUMPDEST PUSH1 0x0 PUSH2 0x2A50 DUP5 DUP3 DUP6 ADD PUSH2 0x290A JUMP JUMPDEST SWAP2 POP POP SWAP3 SWAP2 POP POP JUMP JUMPDEST PUSH1 0x0 PUSH1 0x20 DUP3 DUP5 SUB SLT ISZERO PUSH2 0x2A6B JUMPI PUSH1 0x0 DUP1 REVERT JUMPDEST PUSH1 0x0 PUSH2 0x2A79 DUP5 DUP3 DUP6 ADD PUSH2 0x291F JUMP JUMPDEST SWAP2 POP POP SWAP3 SWAP2 POP POP JUMP JUMPDEST PUSH1 0x0 DUP1 PUSH1 0x40 DUP4 DUP6 SUB SLT ISZERO PUSH2 0x2A95 JUMPI PUSH1 0x0 DUP1 REVERT JUMPDEST PUSH1 0x0 PUSH2 0x2AA3 DUP6 DUP3 DUP7 ADD PUSH2 0x291F JUMP JUMPDEST SWAP3 POP POP PUSH1 0x20 PUSH2 0x2AB4 DUP6 DUP3 DUP7 ADD PUSH2 0x28AB JUMP JUMPDEST SWAP2 POP POP SWAP3 POP SWAP3 SWAP1 POP JUMP JUMPDEST PUSH1 0x0 DUP1 PUSH1 0x0 DUP1 PUSH1 0x0 DUP1 PUSH1 0x0 PUSH1 0xA0 DUP9 DUP11 SUB SLT ISZERO PUSH2 0x2AD9 JUMPI PUSH1 0x0 DUP1 REVERT JUMPDEST PUSH1 0x0 PUSH2 0x2AE7 DUP11 DUP3 DUP12 ADD PUSH2 0x291F JUMP JUMPDEST SWAP8 POP POP PUSH1 0x20 PUSH2 0x2AF8 DUP11 DUP3 DUP12 ADD PUSH2 0x28AB JUMP JUMPDEST SWAP7 POP POP PUSH1 0x40 PUSH2 0x2B09 DUP11 DUP3 DUP12 ADD PUSH2 0x291F JUMP JUMPDEST SWAP6 POP POP PUSH1 0x60 DUP9 ADD CALLDATALOAD PUSH8 0xFFFFFFFFFFFFFFFF DUP2 GT ISZERO PUSH2 0x2B26 JUMPI PUSH1 0x0 DUP1 REVERT JUMPDEST PUSH2 0x2B32 DUP11 DUP3 DUP12 ADD PUSH2 0x2949 JUMP JUMPDEST SWAP5 POP SWAP5 POP POP PUSH1 0x80 DUP9 ADD CALLDATALOAD PUSH8 0xFFFFFFFFFFFFFFFF DUP2 GT ISZERO PUSH2 0x2B51 JUMPI PUSH1 0x0 DUP1 REVERT JUMPDEST PUSH2 0x2B5D DUP11 DUP3 DUP12 ADD PUSH2 0x28C0 JUMP JUMPDEST SWAP3 POP SWAP3 POP POP SWAP3 SWAP6 SWAP9 SWAP2 SWAP5 SWAP8 POP SWAP3 SWAP6 POP JUMP JUMPDEST PUSH1 0x0 DUP1 PUSH1 0x0 PUSH1 0x60 DUP5 DUP7 SUB SLT ISZERO PUSH2 0x2B83 JUMPI PUSH1 0x0 DUP1 REVERT JUMPDEST PUSH1 0x0 PUSH2 0x2B91 DUP7 DUP3 DUP8 ADD PUSH2 0x291F JUMP JUMPDEST SWAP4 POP POP PUSH1 0x20 PUSH2 0x2BA2 DUP7 DUP3 DUP8 ADD PUSH2 0x28AB JUMP JUMPDEST SWAP3 POP POP PUSH1 0x40 PUSH2 0x2BB3 DUP7 DUP3 DUP8 ADD PUSH2 0x29DD JUMP JUMPDEST SWAP2 POP POP SWAP3 POP SWAP3 POP SWAP3 JUMP JUMPDEST PUSH1 0x0 DUP1 PUSH1 0x0 DUP1 PUSH1 0x0 DUP1 PUSH1 0x0 PUSH1 0xC0 DUP9 DUP11 SUB SLT ISZERO PUSH2 0x2BD8 JUMPI PUSH1 0x0 DUP1 REVERT JUMPDEST PUSH1 0x0 PUSH2 0x2BE6 DUP11 DUP3 DUP12 ADD PUSH2 0x291F JUMP JUMPDEST SWAP8 POP POP PUSH1 0x20 PUSH2 0x2BF7 DUP11 DUP3 DUP12 ADD PUSH2 0x28AB JUMP JUMPDEST SWAP7 POP POP PUSH1 0x40 PUSH2 0x2C08 DUP11 DUP3 DUP12 ADD PUSH2 0x29DD JUMP JUMPDEST SWAP6 POP POP PUSH1 0x60 PUSH2 0x2C19 DUP11 DUP3 DUP12 ADD PUSH2 0x291F JUMP JUMPDEST SWAP5 POP POP PUSH1 0x80 PUSH2 0x2C2A DUP11 DUP3 DUP12 ADD PUSH2 0x28AB JUMP JUMPDEST SWAP4 POP POP PUSH1 0xA0 DUP9 ADD CALLDATALOAD PUSH8 0xFFFFFFFFFFFFFFFF DUP2 GT ISZERO PUSH2 0x2C47 JUMPI PUSH1 0x0 DUP1 REVERT JUMPDEST PUSH2 0x2C53 DUP11 DUP3 DUP12 ADD PUSH2 0x28C0 JUMP JUMPDEST SWAP3 POP SWAP3 POP POP SWAP3 SWAP6 SWAP9 SWAP2 SWAP5 SWAP8 POP SWAP3 SWAP6 POP JUMP JUMPDEST PUSH1 0x0 DUP1 PUSH1 0x0 PUSH1 0x60 DUP5 DUP7 SUB SLT ISZERO PUSH2 0x2C79 JUMPI PUSH1 0x0 DUP1 REVERT JUMPDEST PUSH1 0x0 PUSH2 0x2C87 DUP7 DUP3 DUP8 ADD PUSH2 0x291F JUMP JUMPDEST SWAP4 POP POP PUSH1 0x20 PUSH2 0x2C98 DUP7 DUP3 DUP8 ADD PUSH2 0x28AB JUMP JUMPDEST SWAP3 POP POP PUSH1 0x40 PUSH2 0x2CA9 DUP7 DUP3 DUP8 ADD PUSH2 0x29F2 JUMP JUMPDEST SWAP2 POP POP SWAP3 POP SWAP3 POP SWAP3 JUMP JUMPDEST PUSH1 0x0 DUP1 PUSH1 0x0 DUP1 PUSH1 0x0 DUP1 PUSH1 0x0 DUP1 PUSH1 0xC0 DUP10 DUP12 SUB SLT ISZERO PUSH2 0x2CCF JUMPI PUSH1 0x0 DUP1 REVERT JUMPDEST PUSH1 0x0 PUSH2 0x2CDD DUP12 DUP3 DUP13 ADD PUSH2 0x291F JUMP JUMPDEST SWAP9 POP POP PUSH1 0x20 PUSH2 0x2CEE DUP12 DUP3 DUP13 ADD PUSH2 0x28AB JUMP JUMPDEST SWAP8 POP POP PUSH1 0x40 PUSH2 0x2CFF DUP12 DUP3 DUP13 ADD PUSH2 0x29F2 JUMP JUMPDEST SWAP7 POP POP PUSH1 0x60 PUSH2 0x2D10 DUP12 DUP3 DUP13 ADD PUSH2 0x291F JUMP JUMPDEST SWAP6 POP POP PUSH1 0x80 DUP10 ADD CALLDATALOAD PUSH8 0xFFFFFFFFFFFFFFFF DUP2 GT ISZERO PUSH2 0x2D2D JUMPI PUSH1 0x0 DUP1 REVERT JUMPDEST PUSH2 0x2D39 DUP12 DUP3 DUP13 ADD PUSH2 0x2949 JUMP JUMPDEST SWAP5 POP SWAP5 POP POP PUSH1 0xA0 DUP10 ADD CALLDATALOAD PUSH8 0xFFFFFFFFFFFFFFFF DUP2 GT ISZERO PUSH2 0x2D58 JUMPI PUSH1 0x0 DUP1 REVERT JUMPDEST PUSH2 0x2D64 DUP12 DUP3 DUP13 ADD PUSH2 0x28C0 JUMP JUMPDEST SWAP3 POP SWAP3 POP POP SWAP3 SWAP6 SWAP9 POP SWAP3 SWAP6 SWAP9 SWAP1 SWAP4 SWAP7 POP JUMP JUMPDEST PUSH1 0x0 DUP1 PUSH1 0x0 DUP1 PUSH1 0x60 DUP6 DUP8 SUB SLT ISZERO PUSH2 0x2D8C JUMPI PUSH1 0x0 DUP1 REVERT JUMPDEST PUSH1 0x0 PUSH2 0x2D9A DUP8 DUP3 DUP9 ADD PUSH2 0x291F JUMP JUMPDEST SWAP5 POP POP PUSH1 0x20 DUP6 ADD CALLDATALOAD PUSH8 0xFFFFFFFFFFFFFFFF DUP2 GT ISZERO PUSH2 0x2DB7 JUMPI PUSH1 0x0 DUP1 REVERT JUMPDEST PUSH2 0x2DC3 DUP8 DUP3 DUP9 ADD PUSH2 0x2993 JUMP JUMPDEST SWAP4 POP SWAP4 POP POP PUSH1 0x40 PUSH2 0x2DD6 DUP8 DUP3 DUP9 ADD PUSH2 0x291F JUMP JUMPDEST SWAP2 POP POP SWAP3 SWAP6 SWAP2 SWAP5 POP SWAP3 POP JUMP JUMPDEST PUSH1 0x0 DUP1 PUSH1 0x0 DUP1 PUSH1 0x0 DUP1 PUSH1 0x0 DUP1 PUSH1 0xA0 DUP10 DUP12 SUB SLT ISZERO PUSH2 0x2DFE JUMPI PUSH1 0x0 DUP1 REVERT JUMPDEST PUSH1 0x0 PUSH2 0x2E0C DUP12 DUP3 DUP13 ADD PUSH2 0x291F JUMP JUMPDEST SWAP9 POP POP PUSH1 0x20 DUP10 ADD CALLDATALOAD PUSH8 0xFFFFFFFFFFFFFFFF DUP2 GT ISZERO PUSH2 0x2E29 JUMPI PUSH1 0x0 DUP1 REVERT JUMPDEST PUSH2 0x2E35 DUP12 DUP3 DUP13 ADD PUSH2 0x2993 JUMP JUMPDEST SWAP8 POP SWAP8 POP POP PUSH1 0x40 PUSH2 0x2E48 DUP12 DUP3 DUP13 ADD PUSH2 0x291F JUMP JUMPDEST SWAP6 POP POP PUSH1 0x60 DUP10 ADD CALLDATALOAD PUSH8 0xFFFFFFFFFFFFFFFF DUP2 GT ISZERO PUSH2 0x2E65 JUMPI PUSH1 0x0 DUP1 REVERT JUMPDEST PUSH2 0x2E71 DUP12 DUP3 DUP13 ADD PUSH2 0x2949 JUMP JUMPDEST SWAP5 POP SWAP5 POP POP PUSH1 0x80 DUP10 ADD CALLDATALOAD PUSH8 0xFFFFFFFFFFFFFFFF DUP2 GT ISZERO PUSH2 0x2E90 JUMPI PUSH1 0x0 DUP1 REVERT JUMPDEST PUSH2 0x2E9C DUP12 DUP3 DUP13 ADD PUSH2 0x28C0 JUMP JUMPDEST SWAP3 POP SWAP3 POP POP SWAP3 SWAP6 SWAP9 POP SWAP3 SWAP6 SWAP9 SWAP1 SWAP4 SWAP7 POP JUMP JUMPDEST PUSH1 0x0 DUP1 PUSH1 0x40 DUP4 DUP6 SUB SLT ISZERO PUSH2 0x2EC1 JUMPI PUSH1 0x0 DUP1 REVERT JUMPDEST PUSH1 0x0 PUSH2 0x2ECF DUP6 DUP3 DUP7 ADD PUSH2 0x291F JUMP JUMPDEST SWAP3 POP POP PUSH1 0x20 PUSH2 0x2EE0 DUP6 DUP3 DUP7 ADD PUSH2 0x29F2 JUMP JUMPDEST SWAP2 POP POP SWAP3 POP SWAP3 SWAP1 POP JUMP JUMPDEST PUSH1 0x0 PUSH1 0x20 DUP3 DUP5 SUB SLT ISZERO PUSH2 0x2EFC JUMPI PUSH1 0x0 DUP1 REVERT JUMPDEST PUSH1 0x0 PUSH2 0x2F0A DUP5 DUP3 DUP6 ADD PUSH2 0x2934 JUMP JUMPDEST SWAP2 POP POP SWAP3 SWAP2 POP POP JUMP JUMPDEST PUSH2 0x2F1C DUP2 PUSH2 0x399A JUMP JUMPDEST DUP3 MSTORE POP POP JUMP JUMPDEST PUSH2 0x2F2B DUP2 PUSH2 0x39AC JUMP JUMPDEST DUP3 MSTORE POP POP JUMP JUMPDEST PUSH2 0x2F3A DUP2 PUSH2 0x39B8 JUMP JUMPDEST DUP3 MSTORE POP POP JUMP JUMPDEST PUSH2 0x2F51 PUSH2 0x2F4C DUP3 PUSH2 0x39B8 JUMP JUMPDEST PUSH2 0x3B11 JUMP JUMPDEST DUP3 MSTORE POP POP JUMP JUMPDEST PUSH1 0x0 PUSH2 0x2F63 DUP4 DUP6 PUSH2 0x3840 JUMP JUMPDEST SWAP4 POP PUSH2 0x2F70 DUP4 DUP6 DUP5 PUSH2 0x3A5C JUMP JUMPDEST PUSH2 0x2F79 DUP4 PUSH2 0x3B4A JUMP JUMPDEST DUP5 ADD SWAP1 POP SWAP4 SWAP3 POP POP POP JUMP JUMPDEST PUSH1 0x0 PUSH2 0x2F90 DUP4 DUP6 PUSH2 0x3851 JUMP JUMPDEST SWAP4 POP PUSH2 0x2F9D DUP4 DUP6 DUP5 PUSH2 0x3A5C JUMP JUMPDEST DUP3 DUP5 ADD SWAP1 POP SWAP4 SWAP3 POP POP POP JUMP JUMPDEST PUSH1 0x0 PUSH2 0x2FB4 DUP3 PUSH2 0x382A JUMP JUMPDEST PUSH2 0x2FBE DUP2 DUP6 PUSH2 0x3851 JUMP JUMPDEST SWAP4 POP PUSH2 0x2FCE DUP2 DUP6 PUSH1 0x20 DUP7 ADD PUSH2 0x3A6B JUMP JUMPDEST DUP1 DUP5 ADD SWAP2 POP POP SWAP3 SWAP2 POP POP JUMP JUMPDEST PUSH1 0x0 PUSH2 0x2FE6 DUP4 DUP6 PUSH2 0x386D JUMP JUMPDEST SWAP4 POP PUSH2 0x2FF3 DUP4 DUP6 DUP5 PUSH2 0x3A5C JUMP JUMPDEST DUP3 DUP5 ADD SWAP1 POP SWAP4 SWAP3 POP POP POP JUMP JUMPDEST PUSH1 0x0 PUSH2 0x300A DUP3 PUSH2 0x3835 JUMP JUMPDEST PUSH2 0x3014 DUP2 DUP6 PUSH2 0x385C JUMP JUMPDEST SWAP4 POP PUSH2 0x3024 DUP2 DUP6 PUSH1 0x20 DUP7 ADD PUSH2 0x3A6B JUMP JUMPDEST PUSH2 0x302D DUP2 PUSH2 0x3B4A JUMP JUMPDEST DUP5 ADD SWAP2 POP POP SWAP3 SWAP2 POP POP JUMP JUMPDEST PUSH1 0x0 PUSH2 0x3043 DUP3 PUSH2 0x3835 JUMP JUMPDEST PUSH2 0x304D DUP2 DUP6 PUSH2 0x386D JUMP JUMPDEST SWAP4 POP PUSH2 0x305D DUP2 DUP6 PUSH1 0x20 DUP7 ADD PUSH2 0x3A6B JUMP JUMPDEST DUP1 DUP5 ADD SWAP2 POP POP SWAP3 SWAP2 POP POP JUMP JUMPDEST PUSH1 0x0 PUSH2 0x3076 PUSH1 0x20 DUP4 PUSH2 0x385C JUMP JUMPDEST SWAP2 POP PUSH2 0x3081 DUP3 PUSH2 0x3B5B JUMP JUMPDEST PUSH1 0x20 DUP3 ADD SWAP1 POP SWAP2 SWAP1 POP JUMP JUMPDEST PUSH1 0x0 PUSH2 0x3099 PUSH1 0x3A DUP4 PUSH2 0x385C JUMP JUMPDEST SWAP2 POP PUSH2 0x30A4 DUP3 PUSH2 0x3B84 JUMP JUMPDEST PUSH1 0x40 DUP3 ADD SWAP1 POP SWAP2 SWAP1 POP JUMP JUMPDEST PUSH1 0x0 PUSH2 0x30BC PUSH1 0x1D DUP4 PUSH2 0x385C JUMP JUMPDEST SWAP2 POP PUSH2 0x30C7 DUP3 PUSH2 0x3BD3 JUMP JUMPDEST PUSH1 0x20 DUP3 ADD SWAP1 POP SWAP2 SWAP1 POP JUMP JUMPDEST PUSH1 0x0 PUSH2 0x30DF PUSH1 0x26 DUP4 PUSH2 0x385C JUMP JUMPDEST SWAP2 POP PUSH2 0x30EA DUP3 PUSH2 0x3BFC JUMP JUMPDEST PUSH1 0x40 DUP3 ADD SWAP1 POP SWAP2 SWAP1 POP JUMP JUMPDEST PUSH1 0x0 PUSH2 0x3102 PUSH1 0x2E DUP4 PUSH2 0x385C JUMP JUMPDEST SWAP2 POP PUSH2 0x310D DUP3 PUSH2 0x3C4B JUMP JUMPDEST PUSH1 0x40 DUP3 ADD SWAP1 POP SWAP2 SWAP1 POP JUMP JUMPDEST PUSH1 0x0 PUSH2 0x3125 PUSH1 0x2D DUP4 PUSH2 0x385C JUMP JUMPDEST SWAP2 POP PUSH2 0x3130 DUP3 PUSH2 0x3C9A JUMP JUMPDEST PUSH1 0x40 DUP3 ADD SWAP1 POP SWAP2 SWAP1 POP JUMP JUMPDEST PUSH1 0x0 PUSH2 0x3148 PUSH1 0x26 DUP4 PUSH2 0x385C JUMP JUMPDEST SWAP2 POP PUSH2 0x3153 DUP3 PUSH2 0x3CE9 JUMP JUMPDEST PUSH1 0x40 DUP3 ADD SWAP1 POP SWAP2 SWAP1 POP JUMP JUMPDEST PUSH1 0x0 PUSH2 0x316B PUSH1 0x0 DUP4 PUSH2 0x3851 JUMP JUMPDEST SWAP2 POP PUSH2 0x3176 DUP3 PUSH2 0x3D38 JUMP JUMPDEST PUSH1 0x0 DUP3 ADD SWAP1 POP SWAP2 SWAP1 POP JUMP JUMPDEST PUSH1 0x0 PUSH2 0x318E PUSH1 0x1D DUP4 PUSH2 0x385C JUMP JUMPDEST SWAP2 POP PUSH2 0x3199 DUP3 PUSH2 0x3D3B JUMP JUMPDEST PUSH1 0x20 DUP3 ADD SWAP1 POP SWAP2 SWAP1 POP JUMP JUMPDEST PUSH1 0x0 PUSH2 0x31B1 PUSH1 0x27 DUP4 PUSH2 0x385C JUMP JUMPDEST SWAP2 POP PUSH2 0x31BC DUP3 PUSH2 0x3D64 JUMP JUMPDEST PUSH1 0x40 DUP3 ADD SWAP1 POP SWAP2 SWAP1 POP JUMP JUMPDEST PUSH1 0x0 PUSH2 0x31D4 PUSH1 0x17 DUP4 PUSH2 0x386D JUMP JUMPDEST SWAP2 POP PUSH2 0x31DF DUP3 PUSH2 0x3DB3 JUMP JUMPDEST PUSH1 0x17 DUP3 ADD SWAP1 POP SWAP2 SWAP1 POP JUMP JUMPDEST PUSH1 0x0 PUSH2 0x31F7 PUSH1 0x2A DUP4 PUSH2 0x385C JUMP JUMPDEST SWAP2 POP PUSH2 0x3202 DUP3 PUSH2 0x3DDC JUMP JUMPDEST PUSH1 0x40 DUP3 ADD SWAP1 POP SWAP2 SWAP1 POP JUMP JUMPDEST PUSH1 0x0 PUSH2 0x321A PUSH1 0x11 DUP4 PUSH2 0x386D JUMP JUMPDEST SWAP2 POP PUSH2 0x3225 DUP3 PUSH2 0x3E2B JUMP JUMPDEST PUSH1 0x11 DUP3 ADD SWAP1 POP SWAP2 SWAP1 POP JUMP JUMPDEST PUSH1 0x0 PUSH2 0x323D PUSH1 0x2F DUP4 PUSH2 0x385C JUMP JUMPDEST SWAP2 POP PUSH2 0x3248 DUP3 PUSH2 0x3E54 JUMP JUMPDEST PUSH1 0x40 DUP3 ADD SWAP1 POP SWAP2 SWAP1 POP JUMP JUMPDEST PUSH1 0x60 DUP3 ADD PUSH1 0x0 DUP3 ADD MLOAD PUSH2 0x3269 PUSH1 0x0 DUP6 ADD DUP3 PUSH2 0x32E0 JUMP JUMPDEST POP PUSH1 0x20 DUP3 ADD MLOAD PUSH2 0x327C PUSH1 0x20 DUP6 ADD DUP3 PUSH2 0x3295 JUMP JUMPDEST POP PUSH1 0x40 DUP3 ADD MLOAD PUSH2 0x328F PUSH1 0x40 DUP6 ADD DUP3 PUSH2 0x32C2 JUMP JUMPDEST POP POP POP POP JUMP JUMPDEST PUSH2 0x329E DUP2 PUSH2 0x3A0E JUMP JUMPDEST DUP3 MSTORE POP POP JUMP JUMPDEST PUSH2 0x32AD DUP2 PUSH2 0x3A0E JUMP JUMPDEST DUP3 MSTORE POP POP JUMP JUMPDEST PUSH2 0x32BC DUP2 PUSH2 0x3A31 JUMP JUMPDEST DUP3 MSTORE POP POP JUMP JUMPDEST PUSH2 0x32CB DUP2 PUSH2 0x3A3B JUMP JUMPDEST DUP3 MSTORE POP POP JUMP JUMPDEST PUSH2 0x32DA DUP2 PUSH2 0x3A3B JUMP JUMPDEST DUP3 MSTORE POP POP JUMP JUMPDEST PUSH2 0x32E9 DUP2 PUSH2 0x3A4F JUMP JUMPDEST DUP3 MSTORE POP POP JUMP JUMPDEST PUSH2 0x32F8 DUP2 PUSH2 0x3A4F JUMP JUMPDEST DUP3 MSTORE POP POP JUMP JUMPDEST PUSH1 0x0 PUSH2 0x330A DUP3 DUP6 PUSH2 0x2F40 JUMP JUMPDEST PUSH1 0x20 DUP3 ADD SWAP2 POP PUSH2 0x331A DUP3 DUP5 PUSH2 0x2F40 JUMP JUMPDEST PUSH1 0x20 DUP3 ADD SWAP2 POP DUP2 SWAP1 POP SWAP4 SWAP3 POP POP POP JUMP JUMPDEST PUSH1 0x0 PUSH2 0x3336 DUP3 DUP5 PUSH2 0x2FA9 JUMP JUMPDEST SWAP2 POP DUP2 SWAP1 POP SWAP3 SWAP2 POP POP JUMP JUMPDEST PUSH1 0x0 PUSH2 0x334D DUP3 DUP7 PUSH2 0x2FA9 JUMP JUMPDEST SWAP2 POP PUSH2 0x335A DUP3 DUP5 DUP7 PUSH2 0x2F84 JUMP JUMPDEST SWAP2 POP DUP2 SWAP1 POP SWAP5 SWAP4 POP POP POP POP JUMP JUMPDEST PUSH1 0x0 PUSH2 0x3373 DUP3 DUP6 PUSH2 0x2FA9 JUMP JUMPDEST SWAP2 POP PUSH2 0x337F DUP3 DUP5 PUSH2 0x2FA9 JUMP JUMPDEST SWAP2 POP DUP2 SWAP1 POP SWAP4 SWAP3 POP POP POP JUMP JUMPDEST PUSH1 0x0 PUSH2 0x3398 DUP3 DUP5 DUP7 PUSH2 0x2FDA JUMP JUMPDEST SWAP2 POP DUP2 SWAP1 POP SWAP4 SWAP3 POP POP POP JUMP JUMPDEST PUSH1 0x0 PUSH2 0x33AF DUP3 PUSH2 0x315E JUMP JUMPDEST SWAP2 POP DUP2 SWAP1 POP SWAP2 SWAP1 POP JUMP JUMPDEST PUSH1 0x0 PUSH2 0x33C4 DUP3 PUSH2 0x31C7 JUMP JUMPDEST SWAP2 POP PUSH2 0x33D0 DUP3 DUP6 PUSH2 0x3038 JUMP JUMPDEST SWAP2 POP PUSH2 0x33DB DUP3 PUSH2 0x320D JUMP JUMPDEST SWAP2 POP PUSH2 0x33E7 DUP3 DUP5 PUSH2 0x3038 JUMP JUMPDEST SWAP2 POP DUP2 SWAP1 POP SWAP4 SWAP3 POP POP POP JUMP JUMPDEST PUSH1 0x0 PUSH1 0x20 DUP3 ADD SWAP1 POP PUSH2 0x3408 PUSH1 0x0 DUP4 ADD DUP5 PUSH2 0x2F13 JUMP JUMPDEST SWAP3 SWAP2 POP POP JUMP JUMPDEST PUSH1 0x0 PUSH1 0x60 DUP3 ADD SWAP1 POP PUSH2 0x3423 PUSH1 0x0 DUP4 ADD DUP7 PUSH2 0x2F13 JUMP JUMPDEST PUSH2 0x3430 PUSH1 0x20 DUP4 ADD DUP6 PUSH2 0x2F13 JUMP JUMPDEST PUSH2 0x343D PUSH1 0x40 DUP4 ADD DUP5 PUSH2 0x32B3 JUMP JUMPDEST SWAP5 SWAP4 POP POP POP POP JUMP JUMPDEST PUSH1 0x0 PUSH1 0x40 DUP3 ADD SWAP1 POP PUSH2 0x345A PUSH1 0x0 DUP4 ADD DUP6 PUSH2 0x2F13 JUMP JUMPDEST PUSH2 0x3467 PUSH1 0x20 DUP4 ADD DUP5 PUSH2 0x32B3 JUMP JUMPDEST SWAP4 SWAP3 POP POP POP JUMP JUMPDEST PUSH1 0x0 PUSH1 0x20 DUP3 ADD SWAP1 POP PUSH2 0x3483 PUSH1 0x0 DUP4 ADD DUP5 PUSH2 0x2F22 JUMP JUMPDEST SWAP3 SWAP2 POP POP JUMP JUMPDEST PUSH1 0x0 PUSH1 0x20 DUP3 ADD SWAP1 POP PUSH2 0x349E PUSH1 0x0 DUP4 ADD DUP5 PUSH2 0x2F31 JUMP JUMPDEST SWAP3 SWAP2 POP POP JUMP JUMPDEST PUSH1 0x0 PUSH1 0x40 DUP3 ADD SWAP1 POP PUSH2 0x34B9 PUSH1 0x0 DUP4 ADD DUP6 PUSH2 0x2F31 JUMP JUMPDEST PUSH2 0x34C6 PUSH1 0x20 DUP4 ADD DUP5 PUSH2 0x2F13 JUMP JUMPDEST SWAP4 SWAP3 POP POP POP JUMP JUMPDEST PUSH1 0x0 PUSH1 0x60 DUP3 ADD SWAP1 POP PUSH2 0x34E2 PUSH1 0x0 DUP4 ADD DUP7 PUSH2 0x2F31 JUMP JUMPDEST PUSH2 0x34EF PUSH1 0x20 DUP4 ADD DUP6 PUSH2 0x2F13 JUMP JUMPDEST DUP2 DUP2 SUB PUSH1 0x40 DUP4 ADD MSTORE PUSH2 0x3501 DUP2 DUP5 PUSH2 0x2FFF JUMP JUMPDEST SWAP1 POP SWAP5 SWAP4 POP POP POP POP JUMP JUMPDEST PUSH1 0x0 PUSH1 0x40 DUP3 ADD SWAP1 POP PUSH2 0x3520 PUSH1 0x0 DUP4 ADD DUP6 PUSH2 0x2F31 JUMP JUMPDEST DUP2 DUP2 SUB PUSH1 0x20 DUP4 ADD MSTORE PUSH2 0x3532 DUP2 DUP5 PUSH2 0x2FFF JUMP JUMPDEST SWAP1 POP SWAP4 SWAP3 POP POP POP JUMP JUMPDEST PUSH1 0x0 PUSH1 0x20 DUP3 ADD SWAP1 POP DUP2 DUP2 SUB PUSH1 0x0 DUP4 ADD MSTORE PUSH2 0x3556 DUP2 DUP5 DUP7 PUSH2 0x2F57 JUMP JUMPDEST SWAP1 POP SWAP4 SWAP3 POP POP POP JUMP JUMPDEST PUSH1 0x0 PUSH1 0x20 DUP3 ADD SWAP1 POP DUP2 DUP2 SUB PUSH1 0x0 DUP4 ADD MSTORE PUSH2 0x3579 DUP2 DUP5 PUSH2 0x2FFF JUMP JUMPDEST SWAP1 POP SWAP3 SWAP2 POP POP JUMP JUMPDEST PUSH1 0x0 PUSH1 0x20 DUP3 ADD SWAP1 POP DUP2 DUP2 SUB PUSH1 0x0 DUP4 ADD MSTORE PUSH2 0x359A DUP2 PUSH2 0x3069 JUMP JUMPDEST SWAP1 POP SWAP2 SWAP1 POP JUMP JUMPDEST PUSH1 0x0 PUSH1 0x20 DUP3 ADD SWAP1 POP DUP2 DUP2 SUB PUSH1 0x0 DUP4 ADD MSTORE PUSH2 0x35BA DUP2 PUSH2 0x308C JUMP JUMPDEST SWAP1 POP SWAP2 SWAP1 POP JUMP JUMPDEST PUSH1 0x0 PUSH1 0x20 DUP3 ADD SWAP1 POP DUP2 DUP2 SUB PUSH1 0x0 DUP4 ADD MSTORE PUSH2 0x35DA DUP2 PUSH2 0x30AF JUMP JUMPDEST SWAP1 POP SWAP2 SWAP1 POP JUMP JUMPDEST PUSH1 0x0 PUSH1 0x20 DUP3 ADD SWAP1 POP DUP2 DUP2 SUB PUSH1 0x0 DUP4 ADD MSTORE PUSH2 0x35FA DUP2 PUSH2 0x30D2 JUMP JUMPDEST SWAP1 POP SWAP2 SWAP1 POP JUMP JUMPDEST PUSH1 0x0 PUSH1 0x20 DUP3 ADD SWAP1 POP DUP2 DUP2 SUB PUSH1 0x0 DUP4 ADD MSTORE PUSH2 0x361A DUP2 PUSH2 0x30F5 JUMP JUMPDEST SWAP1 POP SWAP2 SWAP1 POP JUMP JUMPDEST PUSH1 0x0 PUSH1 0x20 DUP3 ADD SWAP1 POP DUP2 DUP2 SUB PUSH1 0x0 DUP4 ADD MSTORE PUSH2 0x363A DUP2 PUSH2 0x3118 JUMP JUMPDEST SWAP1 POP SWAP2 SWAP1 POP JUMP JUMPDEST PUSH1 0x0 PUSH1 0x20 DUP3 ADD SWAP1 POP DUP2 DUP2 SUB PUSH1 0x0 DUP4 ADD MSTORE PUSH2 0x365A DUP2 PUSH2 0x313B JUMP JUMPDEST SWAP1 POP SWAP2 SWAP1 POP JUMP JUMPDEST PUSH1 0x0 PUSH1 0x20 DUP3 ADD SWAP1 POP DUP2 DUP2 SUB PUSH1 0x0 DUP4 ADD MSTORE PUSH2 0x367A DUP2 PUSH2 0x3181 JUMP JUMPDEST SWAP1 POP SWAP2 SWAP1 POP JUMP JUMPDEST PUSH1 0x0 PUSH1 0x20 DUP3 ADD SWAP1 POP DUP2 DUP2 SUB PUSH1 0x0 DUP4 ADD MSTORE PUSH2 0x369A DUP2 PUSH2 0x31A4 JUMP JUMPDEST SWAP1 POP SWAP2 SWAP1 POP JUMP JUMPDEST PUSH1 0x0 PUSH1 0x20 DUP3 ADD SWAP1 POP DUP2 DUP2 SUB PUSH1 0x0 DUP4 ADD MSTORE PUSH2 0x36BA DUP2 PUSH2 0x31EA JUMP JUMPDEST SWAP1 POP SWAP2 SWAP1 POP JUMP JUMPDEST PUSH1 0x0 PUSH1 0x20 DUP3 ADD SWAP1 POP DUP2 DUP2 SUB PUSH1 0x0 DUP4 ADD MSTORE PUSH2 0x36DA DUP2 PUSH2 0x3230 JUMP JUMPDEST SWAP1 POP SWAP2 SWAP1 POP JUMP JUMPDEST PUSH1 0x0 PUSH1 0x80 DUP3 ADD SWAP1 POP PUSH2 0x36F6 PUSH1 0x0 DUP4 ADD DUP6 PUSH2 0x3253 JUMP JUMPDEST PUSH2 0x3703 PUSH1 0x60 DUP4 ADD DUP5 PUSH2 0x2F31 JUMP JUMPDEST SWAP4 SWAP3 POP POP POP JUMP JUMPDEST PUSH1 0x0 PUSH1 0x20 DUP3 ADD SWAP1 POP PUSH2 0x371F PUSH1 0x0 DUP4 ADD DUP5 PUSH2 0x32B3 JUMP JUMPDEST SWAP3 SWAP2 POP POP JUMP JUMPDEST PUSH1 0x0 PUSH1 0x80 DUP3 ADD SWAP1 POP PUSH2 0x373A PUSH1 0x0 DUP4 ADD DUP8 PUSH2 0x32B3 JUMP JUMPDEST PUSH2 0x3747 PUSH1 0x20 DUP4 ADD DUP7 PUSH2 0x2F13 JUMP JUMPDEST DUP2 DUP2 SUB PUSH1 0x40 DUP4 ADD MSTORE PUSH2 0x3759 DUP2 DUP6 PUSH2 0x2FFF JUMP JUMPDEST SWAP1 POP PUSH2 0x3768 PUSH1 0x60 DUP4 ADD DUP5 PUSH2 0x2F31 JUMP JUMPDEST SWAP6 SWAP5 POP POP POP POP POP JUMP JUMPDEST PUSH1 0x0 PUSH1 0x60 DUP3 ADD SWAP1 POP PUSH2 0x3786 PUSH1 0x0 DUP4 ADD DUP7 PUSH2 0x32B3 JUMP JUMPDEST DUP2 DUP2 SUB PUSH1 0x20 DUP4 ADD MSTORE PUSH2 0x3798 DUP2 DUP6 PUSH2 0x2FFF JUMP JUMPDEST SWAP1 POP PUSH2 0x37A7 PUSH1 0x40 DUP4 ADD DUP5 PUSH2 0x2F31 JUMP JUMPDEST SWAP5 SWAP4 POP POP POP POP JUMP JUMPDEST PUSH1 0x0 PUSH1 0x20 DUP3 ADD SWAP1 POP PUSH2 0x37C4 PUSH1 0x0 DUP4 ADD DUP5 PUSH2 0x32D1 JUMP JUMPDEST SWAP3 SWAP2 POP POP JUMP JUMPDEST PUSH1 0x0 PUSH1 0x60 DUP3 ADD SWAP1 POP PUSH2 0x37DF PUSH1 0x0 DUP4 ADD DUP7 PUSH2 0x32EF JUMP JUMPDEST PUSH2 0x37EC PUSH1 0x20 DUP4 ADD DUP6 PUSH2 0x32A4 JUMP JUMPDEST PUSH2 0x37F9 PUSH1 0x40 DUP4 ADD DUP5 PUSH2 0x32D1 JUMP JUMPDEST SWAP5 SWAP4 POP POP POP POP JUMP JUMPDEST PUSH1 0x0 PUSH1 0x40 DUP3 ADD SWAP1 POP PUSH2 0x3816 PUSH1 0x0 DUP4 ADD DUP6 PUSH2 0x32EF JUMP JUMPDEST PUSH2 0x3823 PUSH1 0x20 DUP4 ADD DUP5 PUSH2 0x32D1 JUMP JUMPDEST SWAP4 SWAP3 POP POP POP JUMP JUMPDEST PUSH1 0x0 DUP2 MLOAD SWAP1 POP SWAP2 SWAP1 POP JUMP JUMPDEST PUSH1 0x0 DUP2 MLOAD SWAP1 POP SWAP2 SWAP1 POP JUMP JUMPDEST PUSH1 0x0 DUP3 DUP3 MSTORE PUSH1 0x20 DUP3 ADD SWAP1 POP SWAP3 SWAP2 POP POP JUMP JUMPDEST PUSH1 0x0 DUP2 SWAP1 POP SWAP3 SWAP2 POP POP JUMP JUMPDEST PUSH1 0x0 DUP3 DUP3 MSTORE PUSH1 0x20 DUP3 ADD SWAP1 POP SWAP3 SWAP2 POP POP JUMP JUMPDEST PUSH1 0x0 DUP2 SWAP1 POP SWAP3 SWAP2 POP POP JUMP JUMPDEST PUSH1 0x0 PUSH2 0x3883 DUP3 PUSH2 0x3A31 JUMP JUMPDEST SWAP2 POP PUSH2 0x388E DUP4 PUSH2 0x3A31 JUMP JUMPDEST SWAP3 POP DUP3 PUSH32 0xFFFFFFFFFFFFFFFFFFFFFFFFFFFFFFFFFFFFFFFFFFFFFFFFFFFFFFFFFFFFFFFF SUB DUP3 GT ISZERO PUSH2 0x38C3 JUMPI PUSH2 0x38C2 PUSH2 0x3B1B JUMP JUMPDEST JUMPDEST DUP3 DUP3 ADD SWAP1 POP SWAP3 SWAP2 POP POP JUMP JUMPDEST PUSH1 0x0 PUSH2 0x38D9 DUP3 PUSH2 0x3A3B JUMP JUMPDEST SWAP2 POP PUSH2 0x38E4 DUP4 PUSH2 0x3A3B JUMP JUMPDEST SWAP3 POP DUP3 PUSH8 0xFFFFFFFFFFFFFFFF SUB DUP3 GT ISZERO PUSH2 0x3901 JUMPI PUSH2 0x3900 PUSH2 0x3B1B JUMP JUMPDEST JUMPDEST DUP3 DUP3 ADD SWAP1 POP SWAP3 SWAP2 POP POP JUMP JUMPDEST PUSH1 0x0 PUSH2 0x3917 DUP3 PUSH2 0x3A31 JUMP JUMPDEST SWAP2 POP PUSH2 0x3922 DUP4 PUSH2 0x3A31 JUMP JUMPDEST SWAP3 POP DUP2 PUSH32 0xFFFFFFFFFFFFFFFFFFFFFFFFFFFFFFFFFFFFFFFFFFFFFFFFFFFFFFFFFFFFFFFF DIV DUP4 GT DUP3 ISZERO ISZERO AND ISZERO PUSH2 0x395B JUMPI PUSH2 0x395A PUSH2 0x3B1B JUMP JUMPDEST JUMPDEST DUP3 DUP3 MUL SWAP1 POP SWAP3 SWAP2 POP POP JUMP JUMPDEST PUSH1 0x0 PUSH2 0x3971 DUP3 PUSH2 0x3A31 JUMP JUMPDEST SWAP2 POP PUSH2 0x397C DUP4 PUSH2 0x3A31 JUMP JUMPDEST SWAP3 POP DUP3 DUP3 LT ISZERO PUSH2 0x398F JUMPI PUSH2 0x398E PUSH2 0x3B1B JUMP JUMPDEST JUMPDEST DUP3 DUP3 SUB SWAP1 POP SWAP3 SWAP2 POP POP JUMP JUMPDEST PUSH1 0x0 PUSH2 0x39A5 DUP3 PUSH2 0x39EE JUMP JUMPDEST SWAP1 POP SWAP2 SWAP1 POP JUMP JUMPDEST PUSH1 0x0 DUP2 ISZERO ISZERO SWAP1 POP SWAP2 SWAP1 POP JUMP JUMPDEST PUSH1 0x0 DUP2 SWAP1 POP SWAP2 SWAP1 POP JUMP JUMPDEST PUSH1 0x0 PUSH32 0xFFFFFFFF00000000000000000000000000000000000000000000000000000000 DUP3 AND SWAP1 POP SWAP2 SWAP1 POP JUMP JUMPDEST PUSH1 0x0 PUSH20 0xFFFFFFFFFFFFFFFFFFFFFFFFFFFFFFFFFFFFFFFF DUP3 AND SWAP1 POP SWAP2 SWAP1 POP JUMP JUMPDEST PUSH1 0x0 PUSH23 0xFFFFFFFFFFFFFFFFFFFFFFFFFFFFFFFFFFFFFFFFFFFFFF DUP3 AND SWAP1 POP SWAP2 SWAP1 POP JUMP JUMPDEST PUSH1 0x0 DUP2 SWAP1 POP SWAP2 SWAP1 POP JUMP JUMPDEST PUSH1 0x0 PUSH8 0xFFFFFFFFFFFFFFFF DUP3 AND SWAP1 POP SWAP2 SWAP1 POP JUMP JUMPDEST PUSH1 0x0 PUSH1 0xFF DUP3 AND SWAP1 POP SWAP2 SWAP1 POP JUMP JUMPDEST DUP3 DUP2 DUP4 CALLDATACOPY PUSH1 0x0 DUP4 DUP4 ADD MSTORE POP POP POP JUMP JUMPDEST PUSH1 0x0 JUMPDEST DUP4 DUP2 LT ISZERO PUSH2 0x3A89 JUMPI DUP1 DUP3 ADD MLOAD DUP2 DUP5 ADD MSTORE PUSH1 0x20 DUP2 ADD SWAP1 POP PUSH2 0x3A6E JUMP JUMPDEST DUP4 DUP2 GT ISZERO PUSH2 0x3A98 JUMPI PUSH1 0x0 DUP5 DUP5 ADD MSTORE JUMPDEST POP POP POP POP JUMP JUMPDEST PUSH1 0x0 PUSH2 0x3AA9 DUP3 PUSH2 0x3A31 JUMP JUMPDEST SWAP2 POP PUSH1 0x0 DUP3 EQ ISZERO PUSH2 0x3ABD JUMPI PUSH2 0x3ABC PUSH2 0x3B1B JUMP JUMPDEST JUMPDEST PUSH1 0x1 DUP3 SUB SWAP1 POP SWAP2 SWAP1 POP JUMP JUMPDEST PUSH1 0x0 PUSH2 0x3AD3 DUP3 PUSH2 0x3A31 JUMP JUMPDEST SWAP2 POP PUSH32 0xFFFFFFFFFFFFFFFFFFFFFFFFFFFFFFFFFFFFFFFFFFFFFFFFFFFFFFFFFFFFFFFF DUP3 EQ ISZERO PUSH2 0x3B06 JUMPI PUSH2 0x3B05 PUSH2 0x3B1B JUMP JUMPDEST JUMPDEST PUSH1 0x1 DUP3 ADD SWAP1 POP SWAP2 SWAP1 POP JUMP JUMPDEST PUSH1 0x0 DUP2 SWAP1 POP SWAP2 SWAP1 POP JUMP JUMPDEST PUSH32 0x4E487B7100000000000000000000000000000000000000000000000000000000 PUSH1 0x0 MSTORE PUSH1 0x11 PUSH1 0x4 MSTORE PUSH1 0x24 PUSH1 0x0 REVERT JUMPDEST PUSH1 0x0 PUSH1 0x1F NOT PUSH1 0x1F DUP4 ADD AND SWAP1 POP SWAP2 SWAP1 POP JUMP JUMPDEST PUSH32 0x537472696E67733A20686578206C656E67746820696E73756666696369656E74 PUSH1 0x0 DUP3 ADD MSTORE POP JUMP JUMPDEST PUSH32 0x416464726573733A20756E61626C6520746F2073656E642076616C75652C2072 PUSH1 0x0 DUP3 ADD MSTORE PUSH32 0x6563697069656E74206D61792068617665207265766572746564000000000000 PUSH1 0x20 DUP3 ADD MSTORE POP JUMP JUMPDEST PUSH32 0x416464726573733A20696E73756666696369656E742062616C616E6365000000 PUSH1 0x0 DUP3 ADD MSTORE POP JUMP JUMPDEST PUSH32 0x416464726573733A20696E73756666696369656E742062616C616E636520666F PUSH1 0x0 DUP3 ADD MSTORE PUSH32 0x722063616C6C0000000000000000000000000000000000000000000000000000 PUSH1 0x20 DUP3 ADD MSTORE POP JUMP JUMPDEST PUSH32 0x496E697469616C697A61626C653A20636F6E747261637420697320616C726561 PUSH1 0x0 DUP3 ADD MSTORE PUSH32 0x647920696E697469616C697A6564000000000000000000000000000000000000 PUSH1 0x20 DUP3 ADD MSTORE POP JUMP JUMPDEST PUSH32 0x427567205265706F7274204E6F746172793A204D65726B6C6520726F6F74206E PUSH1 0x0 DUP3 ADD MSTORE PUSH32 0x6F74207375626D69747465642E00000000000000000000000000000000000000 PUSH1 0x20 DUP3 ADD MSTORE POP JUMP JUMPDEST PUSH32 0x53616665436173743A2076616C756520646F65736E27742066697420696E2036 PUSH1 0x0 DUP3 ADD MSTORE PUSH32 0x3420626974730000000000000000000000000000000000000000000000000000 PUSH1 0x20 DUP3 ADD MSTORE POP JUMP JUMPDEST POP JUMP JUMPDEST PUSH32 0x416464726573733A2063616C6C20746F206E6F6E2D636F6E7472616374000000 PUSH1 0x0 DUP3 ADD MSTORE POP JUMP JUMPDEST PUSH32 0x427567205265706F7274204E6F746172793A204D65726B6C652070726F6F6620 PUSH1 0x0 DUP3 ADD MSTORE PUSH32 0x6661696C65642E00000000000000000000000000000000000000000000000000 PUSH1 0x20 DUP3 ADD MSTORE POP JUMP JUMPDEST PUSH32 0x416363657373436F6E74726F6C3A206163636F756E7420000000000000000000 PUSH1 0x0 DUP3 ADD MSTORE POP JUMP JUMPDEST PUSH32 0x5361666545524332303A204552433230206F7065726174696F6E20646964206E PUSH1 0x0 DUP3 ADD MSTORE PUSH32 0x6F74207375636365656400000000000000000000000000000000000000000000 PUSH1 0x20 DUP3 ADD MSTORE POP JUMP JUMPDEST PUSH32 0x206973206D697373696E6720726F6C6520000000000000000000000000000000 PUSH1 0x0 DUP3 ADD MSTORE POP JUMP JUMPDEST PUSH32 0x416363657373436F6E74726F6C3A2063616E206F6E6C792072656E6F756E6365 PUSH1 0x0 DUP3 ADD MSTORE PUSH32 0x20726F6C657320666F722073656C660000000000000000000000000000000000 PUSH1 0x20 DUP3 ADD MSTORE POP JUMP JUMPDEST PUSH2 0x3EAC DUP2 PUSH2 0x399A JUMP JUMPDEST DUP2 EQ PUSH2 0x3EB7 JUMPI PUSH1 0x0 DUP1 REVERT JUMPDEST POP JUMP JUMPDEST PUSH2 0x3EC3 DUP2 PUSH2 0x39AC JUMP JUMPDEST DUP2 EQ PUSH2 0x3ECE JUMPI PUSH1 0x0 DUP1 REVERT JUMPDEST POP JUMP JUMPDEST PUSH2 0x3EDA DUP2 PUSH2 0x39B8 JUMP JUMPDEST DUP2 EQ PUSH2 0x3EE5 JUMPI PUSH1 0x0 DUP1 REVERT JUMPDEST POP JUMP JUMPDEST PUSH2 0x3EF1 DUP2 PUSH2 0x39C2 JUMP JUMPDEST DUP2 EQ PUSH2 0x3EFC JUMPI PUSH1 0x0 DUP1 REVERT JUMPDEST POP JUMP JUMPDEST PUSH2 0x3F08 DUP2 PUSH2 0x3A31 JUMP JUMPDEST DUP2 EQ PUSH2 0x3F13 JUMPI PUSH1 0x0 DUP1 REVERT JUMPDEST POP JUMP JUMPDEST PUSH2 0x3F1F DUP2 PUSH2 0x3A4F JUMP JUMPDEST DUP2 EQ PUSH2 0x3F2A JUMPI PUSH1 0x0 DUP1 REVERT JUMPDEST POP JUMP INVALID LOG2 PUSH5 0x6970667358 0x22 SLT KECCAK256 PUSH9 0x5A2B5FB59564348010 0xE5 0xEF BYTE 0xD9 SLT 0xAF PUSH21 0x65E8C134437DC49B7D1193E335073864736F6C6343 STOP ADDMOD DIV STOP CALLER "
		},
		"gasEstimates": {
			"creation": {
				"codeDepositCost": "3245400",
				"executionCost": "3603",
				"totalCost": "3249003"
			},
			"external": {
				"DEFAULT_ADMIN_ROLE()": "446",
				"NATIVE_ASSET()": "423",
				"OPERATOR_ROLE()": "417",
				"attest(bytes32,string,bytes32)": "infinite",
				"attestations(bytes32)": "infinite",
				"balances(bytes32)": "1510",
				"disclose(bytes32,string,bytes32,bytes,bytes32[])": "infinite",
				"disclosures(bytes32)": "3597",
				"getBalance(bytes32,address)": "infinite",
				"getRoleAdmin(bytes32)": "infinite",
				"grantRole(bytes32,address)": "infinite",
				"hasRole(bytes32,address)": "1907",
				"initialize(address)": "infinite",
				"payReporter(bytes32,address,uint256)": "infinite",
				"renounceRole(bytes32,address)": "infinite",
				"reportHasStatus(bytes32,address,uint8)": "infinite",
				"reportStatuses(bytes32)": "3640",
				"reports(bytes32)": "3662",
				"revokeRole(bytes32,address)": "infinite",
				"submit(bytes32)": "infinite",
				"supportsInterface(bytes4)": "751",
				"updateReport(bytes32,uint8)": "infinite",
				"validateAttestation(bytes32,address,bytes32,bytes,bytes32[])": "infinite",
				"validateReportStatus(bytes32,address,uint8,bytes32,bytes,bytes32[])": "infinite",
				"withdraw(bytes32,address,uint256,bytes32,address,bytes32[])": "infinite"
			},
			"internal": {
				"_checkProof(bytes32,string memory,bytes32,bytes memory,bytes32[] calldata)": "infinite",
				"_getAttestationID(bytes32,address,string memory)": "infinite",
				"_getBalanceID(bytes32,address)": "infinite",
				"_getDisclosureID(bytes32,string memory)": "infinite",
				"_getFlag(uint256,uint8)": "57",
				"_getReportStatusID(bytes32,address)": "infinite",
				"_modifyBalance(bytes32,uint256)": "20111",
				"_validateTimestamp(bytes32,uint64)": "infinite"
			}
		},
		"methodIdentifiers": {
			"DEFAULT_ADMIN_ROLE()": "a217fddf",
			"NATIVE_ASSET()": "bf53253b",
			"OPERATOR_ROLE()": "f5b541a6",
			"attest(bytes32,string,bytes32)": "7c9efef8",
			"attestations(bytes32)": "940992a3",
			"balances(bytes32)": "8909aa3f",
			"disclose(bytes32,string,bytes32,bytes,bytes32[])": "e59d3f5c",
			"disclosures(bytes32)": "20f053e2",
			"getBalance(bytes32,address)": "530e931c",
			"getRoleAdmin(bytes32)": "248a9ca3",
			"grantRole(bytes32,address)": "2f2ff15d",
			"hasRole(bytes32,address)": "91d14854",
			"initialize(address)": "c4d66de8",
			"payReporter(bytes32,address,uint256)": "5dc4bb17",
			"renounceRole(bytes32,address)": "36568abe",
			"reportHasStatus(bytes32,address,uint8)": "05e2aaf4",
			"reportStatuses(bytes32)": "71c87ab4",
			"reports(bytes32)": "b39c4897",
			"revokeRole(bytes32,address)": "d547741f",
			"submit(bytes32)": "d9caa3d2",
			"supportsInterface(bytes4)": "01ffc9a7",
			"updateReport(bytes32,uint8)": "728cc203",
			"validateAttestation(bytes32,address,bytes32,bytes,bytes32[])": "fddadbf5",
			"validateReportStatus(bytes32,address,uint8,bytes32,bytes,bytes32[])": "3820c4bb",
			"withdraw(bytes32,address,uint256,bytes32,address,bytes32[])": "6e5b5114"
		}
	},
	"abi": [
		{
			"anonymous": false,
			"inputs": [
				{
					"indexed": true,
					"internalType": "bytes32",
					"name": "reportRoot",
					"type": "bytes32"
				},
				{
					"indexed": true,
					"internalType": "address",
					"name": "from",
					"type": "address"
				},
				{
					"indexed": false,
					"internalType": "address",
					"name": "paymentToken",
					"type": "address"
				},
				{
					"indexed": false,
					"internalType": "uint256",
					"name": "amount",
					"type": "uint256"
				}
			],
			"name": "Payment",
			"type": "event"
		},
		{
			"anonymous": false,
			"inputs": [
				{
					"indexed": true,
					"internalType": "address",
					"name": "triager",
					"type": "address"
				},
				{
					"indexed": true,
					"internalType": "bytes32",
					"name": "reportRoot",
					"type": "bytes32"
				},
				{
					"indexed": true,
					"internalType": "string",
					"name": "key",
					"type": "string"
				},
				{
					"indexed": false,
					"internalType": "uint64",
					"name": "timestamp",
					"type": "uint64"
				}
			],
			"name": "ReportAttestation",
			"type": "event"
		},
		{
			"anonymous": false,
			"inputs": [
				{
					"indexed": true,
					"internalType": "bytes32",
					"name": "reportRoot",
					"type": "bytes32"
				},
				{
					"indexed": true,
					"internalType": "string",
					"name": "key",
					"type": "string"
				},
				{
					"indexed": false,
					"internalType": "bytes",
					"name": "value",
					"type": "bytes"
				}
			],
			"name": "ReportDisclosure",
			"type": "event"
		},
		{
			"anonymous": false,
			"inputs": [
				{
					"indexed": true,
					"internalType": "bytes32",
					"name": "reportRoot",
					"type": "bytes32"
				},
				{
					"indexed": false,
					"internalType": "uint64",
					"name": "timestamp",
					"type": "uint64"
				}
			],
			"name": "ReportSubmitted",
			"type": "event"
		},
		{
			"anonymous": false,
			"inputs": [
				{
					"indexed": true,
					"internalType": "address",
					"name": "triager",
					"type": "address"
				},
				{
					"indexed": true,
					"internalType": "bytes32",
					"name": "reportRoot",
					"type": "bytes32"
				},
				{
					"indexed": false,
					"internalType": "uint8",
					"name": "newStatusBitField",
					"type": "uint8"
				},
				{
					"indexed": false,
					"internalType": "uint64",
					"name": "timestamp",
					"type": "uint64"
				}
			],
			"name": "ReportUpdated",
			"type": "event"
		},
		{
			"anonymous": false,
			"inputs": [
				{
					"indexed": true,
					"internalType": "bytes32",
					"name": "role",
					"type": "bytes32"
				},
				{
					"indexed": true,
					"internalType": "bytes32",
					"name": "previousAdminRole",
					"type": "bytes32"
				},
				{
					"indexed": true,
					"internalType": "bytes32",
					"name": "newAdminRole",
					"type": "bytes32"
				}
			],
			"name": "RoleAdminChanged",
			"type": "event"
		},
		{
			"anonymous": false,
			"inputs": [
				{
					"indexed": true,
					"internalType": "bytes32",
					"name": "role",
					"type": "bytes32"
				},
				{
					"indexed": true,
					"internalType": "address",
					"name": "account",
					"type": "address"
				},
				{
					"indexed": true,
					"internalType": "address",
					"name": "sender",
					"type": "address"
				}
			],
			"name": "RoleGranted",
			"type": "event"
		},
		{
			"anonymous": false,
			"inputs": [
				{
					"indexed": true,
					"internalType": "bytes32",
					"name": "role",
					"type": "bytes32"
				},
				{
					"indexed": true,
					"internalType": "address",
					"name": "account",
					"type": "address"
				},
				{
					"indexed": true,
					"internalType": "address",
					"name": "sender",
					"type": "address"
				}
			],
			"name": "RoleRevoked",
			"type": "event"
		},
		{
			"anonymous": false,
			"inputs": [
				{
					"indexed": true,
					"internalType": "bytes32",
					"name": "reportRoot",
					"type": "bytes32"
				},
				{
					"indexed": true,
					"internalType": "address",
					"name": "to",
					"type": "address"
				},
				{
					"indexed": false,
					"internalType": "address",
					"name": "paymentToken",
					"type": "address"
				},
				{
					"indexed": false,
					"internalType": "uint256",
					"name": "amount",
					"type": "uint256"
				}
			],
			"name": "Withdrawal",
			"type": "event"
		},
		{
			"inputs": [],
			"name": "DEFAULT_ADMIN_ROLE",
			"outputs": [
				{
					"internalType": "bytes32",
					"name": "",
					"type": "bytes32"
				}
			],
			"stateMutability": "view",
			"type": "function"
		},
		{
			"inputs": [],
			"name": "NATIVE_ASSET",
			"outputs": [
				{
					"internalType": "address",
					"name": "",
					"type": "address"
				}
			],
			"stateMutability": "view",
			"type": "function"
		},
		{
			"inputs": [],
			"name": "OPERATOR_ROLE",
			"outputs": [
				{
					"internalType": "bytes32",
					"name": "",
					"type": "bytes32"
				}
			],
			"stateMutability": "view",
			"type": "function"
		},
		{
			"inputs": [
				{
					"internalType": "bytes32",
					"name": "reportRoot",
					"type": "bytes32"
				},
				{
					"internalType": "string",
					"name": "key",
					"type": "string"
				},
				{
					"internalType": "bytes32",
					"name": "commitment",
					"type": "bytes32"
				}
			],
			"name": "attest",
			"outputs": [],
			"stateMutability": "nonpayable",
			"type": "function"
		},
		{
			"inputs": [
				{
					"internalType": "bytes32",
					"name": "",
					"type": "bytes32"
				}
			],
			"name": "attestations",
			"outputs": [
				{
					"components": [
						{
							"internalType": "uint8",
							"name": "flags",
							"type": "uint8"
						},
						{
							"internalType": "uint184",
							"name": "_reserved",
							"type": "uint184"
						},
						{
							"internalType": "uint64",
							"name": "timestamp",
							"type": "uint64"
						}
					],
					"internalType": "struct BugReportNotary.TimestampPadded",
					"name": "timestamp",
					"type": "tuple"
				},
				{
					"internalType": "bytes32",
					"name": "commitment",
					"type": "bytes32"
				}
			],
			"stateMutability": "view",
			"type": "function"
		},
		{
			"inputs": [
				{
					"internalType": "bytes32",
					"name": "",
					"type": "bytes32"
				}
			],
			"name": "balances",
			"outputs": [
				{
					"internalType": "uint256",
					"name": "",
					"type": "uint256"
				}
			],
			"stateMutability": "view",
			"type": "function"
		},
		{
			"inputs": [
				{
					"internalType": "bytes32",
					"name": "reportRoot",
					"type": "bytes32"
				},
				{
					"internalType": "string",
					"name": "key",
					"type": "string"
				},
				{
					"internalType": "bytes32",
					"name": "salt",
					"type": "bytes32"
				},
				{
					"internalType": "bytes",
					"name": "value",
					"type": "bytes"
				},
				{
					"internalType": "bytes32[]",
					"name": "merkleProof",
					"type": "bytes32[]"
				}
			],
			"name": "disclose",
			"outputs": [],
			"stateMutability": "nonpayable",
			"type": "function"
		},
		{
			"inputs": [
				{
					"internalType": "bytes32",
					"name": "",
					"type": "bytes32"
				}
			],
			"name": "disclosures",
			"outputs": [
				{
					"internalType": "uint8",
					"name": "flags",
					"type": "uint8"
				},
				{
					"internalType": "uint184",
					"name": "_reserved",
					"type": "uint184"
				},
				{
					"internalType": "uint64",
					"name": "timestamp",
					"type": "uint64"
				}
			],
			"stateMutability": "view",
			"type": "function"
		},
		{
			"inputs": [
				{
					"internalType": "bytes32",
					"name": "reportRoot",
					"type": "bytes32"
				},
				{
					"internalType": "address",
					"name": "paymentToken",
					"type": "address"
				}
			],
			"name": "getBalance",
			"outputs": [
				{
					"internalType": "uint256",
					"name": "",
					"type": "uint256"
				}
			],
			"stateMutability": "view",
			"type": "function"
		},
		{
			"inputs": [
				{
					"internalType": "bytes32",
					"name": "role",
					"type": "bytes32"
				}
			],
			"name": "getRoleAdmin",
			"outputs": [
				{
					"internalType": "bytes32",
					"name": "",
					"type": "bytes32"
				}
			],
			"stateMutability": "view",
			"type": "function"
		},
		{
			"inputs": [
				{
					"internalType": "bytes32",
					"name": "role",
					"type": "bytes32"
				},
				{
					"internalType": "address",
					"name": "account",
					"type": "address"
				}
			],
			"name": "grantRole",
			"outputs": [],
			"stateMutability": "nonpayable",
			"type": "function"
		},
		{
			"inputs": [
				{
					"internalType": "bytes32",
					"name": "role",
					"type": "bytes32"
				},
				{
					"internalType": "address",
					"name": "account",
					"type": "address"
				}
			],
			"name": "hasRole",
			"outputs": [
				{
					"internalType": "bool",
					"name": "",
					"type": "bool"
				}
			],
			"stateMutability": "view",
			"type": "function"
		},
		{
			"inputs": [
				{
					"internalType": "address",
					"name": "initAdmin",
					"type": "address"
				}
			],
			"name": "initialize",
			"outputs": [],
			"stateMutability": "nonpayable",
			"type": "function"
		},
		{
			"inputs": [
				{
					"internalType": "bytes32",
					"name": "reportRoot",
					"type": "bytes32"
				},
				{
					"internalType": "address",
					"name": "paymentToken",
					"type": "address"
				},
				{
					"internalType": "uint256",
					"name": "amount",
					"type": "uint256"
				}
			],
			"name": "payReporter",
			"outputs": [],
			"stateMutability": "payable",
			"type": "function"
		},
		{
			"inputs": [
				{
					"internalType": "bytes32",
					"name": "role",
					"type": "bytes32"
				},
				{
					"internalType": "address",
					"name": "account",
					"type": "address"
				}
			],
			"name": "renounceRole",
			"outputs": [],
			"stateMutability": "nonpayable",
			"type": "function"
		},
		{
			"inputs": [
				{
					"internalType": "bytes32",
					"name": "reportRoot",
					"type": "bytes32"
				},
				{
					"internalType": "address",
					"name": "triager",
					"type": "address"
				},
				{
					"internalType": "uint8",
					"name": "statusType",
					"type": "uint8"
				}
			],
			"name": "reportHasStatus",
			"outputs": [
				{
					"internalType": "bool",
					"name": "",
					"type": "bool"
				}
			],
			"stateMutability": "view",
			"type": "function"
		},
		{
			"inputs": [
				{
					"internalType": "bytes32",
					"name": "",
					"type": "bytes32"
				}
			],
			"name": "reportStatuses",
			"outputs": [
				{
					"internalType": "uint8",
					"name": "flags",
					"type": "uint8"
				},
				{
					"internalType": "uint184",
					"name": "_reserved",
					"type": "uint184"
				},
				{
					"internalType": "uint64",
					"name": "timestamp",
					"type": "uint64"
				}
			],
			"stateMutability": "view",
			"type": "function"
		},
		{
			"inputs": [
				{
					"internalType": "bytes32",
					"name": "",
					"type": "bytes32"
				}
			],
			"name": "reports",
			"outputs": [
				{
					"internalType": "uint8",
					"name": "flags",
					"type": "uint8"
				},
				{
					"internalType": "uint184",
					"name": "_reserved",
					"type": "uint184"
				},
				{
					"internalType": "uint64",
					"name": "timestamp",
					"type": "uint64"
				}
			],
			"stateMutability": "view",
			"type": "function"
		},
		{
			"inputs": [
				{
					"internalType": "bytes32",
					"name": "role",
					"type": "bytes32"
				},
				{
					"internalType": "address",
					"name": "account",
					"type": "address"
				}
			],
			"name": "revokeRole",
			"outputs": [],
			"stateMutability": "nonpayable",
			"type": "function"
		},
		{
			"inputs": [
				{
					"internalType": "bytes32",
					"name": "reportRoot",
					"type": "bytes32"
				}
			],
			"name": "submit",
			"outputs": [],
			"stateMutability": "nonpayable",
			"type": "function"
		},
		{
			"inputs": [
				{
					"internalType": "bytes4",
					"name": "interfaceId",
					"type": "bytes4"
				}
			],
			"name": "supportsInterface",
			"outputs": [
				{
					"internalType": "bool",
					"name": "",
					"type": "bool"
				}
			],
			"stateMutability": "view",
			"type": "function"
		},
		{
			"inputs": [
				{
					"internalType": "bytes32",
					"name": "reportRoot",
					"type": "bytes32"
				},
				{
					"internalType": "uint8",
					"name": "newStatusBitField",
					"type": "uint8"
				}
			],
			"name": "updateReport",
			"outputs": [],
			"stateMutability": "nonpayable",
			"type": "function"
		},
		{
			"inputs": [
				{
					"internalType": "bytes32",
					"name": "reportRoot",
					"type": "bytes32"
				},
				{
					"internalType": "address",
					"name": "triager",
					"type": "address"
				},
				{
					"internalType": "bytes32",
					"name": "salt",
					"type": "bytes32"
				},
				{
					"internalType": "bytes",
					"name": "value",
					"type": "bytes"
				},
				{
					"internalType": "bytes32[]",
					"name": "merkleProof",
					"type": "bytes32[]"
				}
			],
			"name": "validateAttestation",
			"outputs": [],
			"stateMutability": "view",
			"type": "function"
		},
		{
			"inputs": [
				{
					"internalType": "bytes32",
					"name": "reportRoot",
					"type": "bytes32"
				},
				{
					"internalType": "address",
					"name": "triager",
					"type": "address"
				},
				{
					"internalType": "uint8",
					"name": "statusType",
					"type": "uint8"
				},
				{
					"internalType": "bytes32",
					"name": "salt",
					"type": "bytes32"
				},
				{
					"internalType": "bytes",
					"name": "value",
					"type": "bytes"
				},
				{
					"internalType": "bytes32[]",
					"name": "merkleProof",
					"type": "bytes32[]"
				}
			],
			"name": "validateReportStatus",
			"outputs": [
				{
					"internalType": "bool",
					"name": "",
					"type": "bool"
				}
			],
			"stateMutability": "view",
			"type": "function"
		},
		{
			"inputs": [
				{
					"internalType": "bytes32",
					"name": "reportRoot",
					"type": "bytes32"
				},
				{
					"internalType": "address",
					"name": "paymentToken",
					"type": "address"
				},
				{
					"internalType": "uint256",
					"name": "amount",
					"type": "uint256"
				},
				{
					"internalType": "bytes32",
					"name": "salt",
					"type": "bytes32"
				},
				{
					"internalType": "address",
					"name": "reporter",
					"type": "address"
				},
				{
					"internalType": "bytes32[]",
					"name": "merkleProof",
					"type": "bytes32[]"
				}
			],
			"name": "withdraw",
			"outputs": [],
			"stateMutability": "nonpayable",
			"type": "function"
		}
	]
}